:020000040800F2
:10000000C0080020A5200008E51F0008E71F000821
:10001000E91F0008EB1F0008ED1F000800000000AA
:10002000000000000000000000000000EF1F0008BA
:10003000F11F000800000000F31F0008F51F000872
:10004000531D0008531D0008531D0008531D0008D0
:10005000531D0008531D0008531D0008531D0008C0
:10006000531D0008531D0008531D0008531D0008B0
:10007000531D0008531D0008531D0008531D0008A0
:10008000531D0008531D0008531D0008531D000890
:10009000FF1F000807200008531D0008531D00081B
:1000A000531D0008531D0008531D0008531D000870
:1000B000F71F0008531D0008531D0008531D0008BA
:1000C000531D0008531D0008531D0008531D000850
:1000D000531D0008531D0008531D0008531D000840
:1000E000531D0008531D0008531D000880B58749A3
:1000F00088420AD101215FF0007000F012FC00215B
:100100005FF0007000F00DFC09E001215FF08060FD
:1001100000F007FC00215FF0806000F002FC01BDF0
:1001200000220022036833F002030360036853F0E7
:100130000103036000E0521C4368DB0703D44FF661
:10014000FF739A42F7D14268D20701D400206AE0D7
:100150008A79012A04D1026852F08002026003E029
:10016000026832F080020260CA79012A04D1026872
:1001700052F04002026003E0026832F04002026086
:100180000A7A012A04D1026852F02002026003E0D8
:10019000026832F0200202604A7A012A04D1026821
:1001A00052F01002026003E0026832F010020260B6
:1001B0008A7A012A04D1026852F00802026003E040
:1001C000026832F008020260CA7A012A04D1026889
:1001D00052F00402026003E0026832F0040202609E
:1001E0008A78CB781B0653EA82730A7953EA024372
:1001F0004A7953EA02530988491E0B43C3610168D7
:10020000490849000160002100E0491C4268D2070A
:1002100003D54FF6FF729142F7D14068C00701D570
:10022000002000E00120C0B2704710B4002101217D
:10023000827A11FA02F23649096851F00101344B11
:100240001960344909689143324B1960017B0029D8
:1002500015D13149096891432F4B1960C1884388F2
:1002600053EA01432D49847A41F834302B49837A8B
:1002700001EBC3018388048854EA03444C60017B8A
:10028000012915D1244909681143234B19600188BC
:10029000438853EA01432149847A41F834301F49A5
:1002A000837A01EBC3018388C48854EA03444C6019
:1002B000C17A002905D11A4909689143184B196080
:1002C00004E0174909681143154B19600189002999
:1002D00004D1144909689143124B1960018901291D
:1002E00004D11049096811430E4B1960407B012865
:1002F00004D10848006802430648026004480068C8
:10030000400840000249086010BC7047006400408B
:10031000006600401C6600400C66004040660040DD
:100320000466004014660040D2B2002A03D042693D
:100330001143416103E0426932EA010141617047C2
:1003400010B400228268520101D500220AE08268BE
:10035000120101D5012205E08268D20001D50222F6
:1003600000E004221300DBB2042B00F084801300B1
:10037000DBB21B010344D3F8803113F001031400F6
:10038000E4B224010444C4F880310B7A002B11D16B
:100390001300DBB21B010344D3F880410B6854EA1D
:1003A00043544B7A1C431300DBB21B010344C3F8D4
:1003B000804112E01300DBB21B010344D3F88041FB
:1003C0004B6854EAC3040B7A1C434B7A1C4313005A
:1003D000DBB21B010344C3F880418B7A13F00F0397
:1003E0008B721300DBB21B010344D3F884311B0969
:1003F0001B011400E4B224010444C4F88431130046
:10040000DBB21B010344D3F884418B7A1C431300F5
:10041000DBB21B010344C3F884418B7B4C7B240477
:1004200054EA03640B7B54EA0324CB7A1C43130085
:10043000DBB21B010344C3F888418B7C4C7C240451
:1004400054EA03640B7C54EA0324C97B0C43110077
:10045000C9B209010144C1F88C411100C9B20901B6
:100460000144D1F8801151F001011300DBB21B01EE
:100470001844C0F880111000C0B210BC70470022B0
:10048000C9B2002903D0022920D00FD32EE0816801
:10049000890011F004010A43816811F002010A4346
:1004A0008068800E10F00100024320E08168890915
:1004B00011F004010A438168090A11F002010A439C
:1004C0008068C00E10F00100024310E08168890BC3
:1004D00011F004010A438168090C11F002010A437A
:1004E0008068000F10F00100024300E00022D2B249
:1004F000002A04D0052A04D0072A04D005E00220EF
:1005000004E0002002E0012000E00020C0B27047BB
:10051000C9B2002902D12021C16001E0202101617E
:10052000704780B50B00DBB21B010344D3F8B03138
:1005300013F004031372137A002B08D10B00DBB203
:100540001B010344D3F8B0315B0D136007E00B00CF
:10055000DBB21B010344D3F8B031DB0853600B005E
:10056000DBB21B010344D3F8B03113F00203537222
:100570000B00DBB21B010344D3F8B43113F00F03BB
:1005800093720B00DBB21B010344D3F8B4311B0A96
:10059000D3740B00DBB21B010344D3F8B831D37220
:1005A0000B00DBB21B010344D3F8B8311B0A1373F1
:1005B0000B00DBB21B010344D3F8B8311B0C53739F
:1005C0000B00DBB21B010344D3F8B8311B0E93734D
:1005D0000B00DBB21B010344D3F8BC31D3730B0017
:1005E000DBB21B010344D3F8BC311B0A13740B00AC
:1005F000DBB21B010344D3F8BC311B0C53740B005A
:10060000DBB21B010344D3F8BC311B0E9374C9B297
:10061000FFF77EFF01BD042926D0052919D0062940
:100620001AD007291CD0082921D0202922D04029FE
:1006300023D0B1F5807F23D0B1F5007F25D0B1F56F
:10064000806F27D0B1F5803F29D0B1F5003F29D088
:100650002BE00121816028E04FF48071816024E06B
:100660005FF48031816020E00821C1601DE010212D
:10067000C1601AE00821016117E01021016114E056
:1006800081694908490081610FE0816931F0020107
:1006900081610AE0816931F00401816105E008218E
:1006A000416002E010214160FFE77047DFF8D002AF
:1006B000006850F00100DFF8C8120860DFF8C402DB
:1006C0000168DFF8C4020140DFF8B8020160DFF81A
:1006D000B0020168DFF8B4020140DFF8A402016053
:1006E000DFF89C02006830F48020DFF89412086084
:1006F000DFF89002006830F4FE00DFF8881208602E
:100700005FF41F00DFF8881208607047DFF870128E
:10071000096831F48031DFF868221160DFF8601277
:10072000096831F48021DFF858221160B0F5803F6C
:1007300003D0B0F5802F09D011E0DFF84402006843
:1007400050F48030DFF83812086008E0DFF830023B
:10075000006850F4A020DFF828120860FFE7704717
:1007600080B50020009000200020312000F0E9F842
:100770000099491C00910099B1F5A06F02D0C0B258
:100780000028F2D0312000F0DCF8002801D0012050
:1007900000E00020C0B202BD00227A4A126832F4A2
:1007A0007C1210430843774908607047C0B279490A
:1007B0000860704700217349096889088900084367
:1007C0007049086070476F48006810F00C0070476F
:1007D00000216C49096831F0F0010843694908605B
:1007E000704700216749096831F4E06108436549B1
:1007F0000860704700216349096831F4605151EA8B
:10080000C0016048016070470021002100210021E3
:100810005C49096811F00C01002904D0042905D0B5
:10082000082906D021E05D49016020E05B490160B4
:100830001DE054490A6812F470125249096811F413
:100840008031920C921C002903D155494A43026021
:100850000AE04C490968890303D551494A430260BB
:1008600002E04E494A43026001E04C4901604549BB
:10087000096811F0F00109094A4A515C0268CA404E
:1008800042604049096811F4E061090A454A515C37
:100890004268CA4082603B49096811F46051C90A44
:1008A000404A515C4268CA40C2603649096811F446
:1008B0004041890B3C4A515CC268B2FBF1F10161D5
:1008C0007047C9B2002905D038490968084337493B
:1008D000086005E03549096831EA000033490860DD
:1008E0007047C9B2002905D0314909680843304929
:1008F000086005E02E49096831EA00002C490860CB
:100900007047C9B2002905D02A4909680843294916
:10091000086005E02749096831EA000025490860B8
:100920007047C9B2002905D0234909680843224904
:10093000086005E02049096831EA00001E490860A6
:1009400070470021002100210100C9B24909C9B244
:10095000012902D10A49096806E0022902D10E499B
:10096000096801E015490968C0B210F01F00C140D4
:10097000C80701D5012000E00020C0B27047000088
:1009800000100240041002400000FFF8FFFFF6FED6
:1009900008100240600042422010024000127A001B
:1009A00000093D000000002010000020141002404B
:1009B000181002401C100240101002402410024087
:1009C00080B50021DFF81405FFF79BFF00214FF6EB
:1009D0003D40FFF786FF00215720FFF772FF01BD62
:1009E00080B5FFF763FE5FF48030FFF78FFEFFF7FF
:1009F000B7FEDFF8EC140870DFF8E4040078012893
:100A000024D1022000F08AFA102000F092FA5FF45C
:100A100000115FF44030FFF7BFFE0120FFF7C6FE74
:100A20003920FFF78EFF0028FAD00220FFF7C2FE20
:100A3000FFF7C9FE0828FBD10020FFF7C9FE4FF4DD
:100A4000A060FFF7D7FE0020FFF7CBFE01BDE0B5A9
:100A500001210120FFF755FF0020ADF8020040F60C
:100A60000F60DFF88014096890FBF1F0ADF800002A
:100A700040F2CF70ADF804000020ADF80600002071
:100A80008DF8080069465FF0804000F065FA0121AA
:100A90005FF0804000F07EFA012201215FF080408B
:100AA00000F086FA07BD80B588B001210820FFF765
:100AB00018FF4FF40070ADF8000018208DF8030007
:100AC00001208DF802006946DFF81C0400F080FA6E
:100AD0004FF48070ADF8000048208DF8030069469F
:100AE000DFF8040400F074FADFF80004FFF7FEFA00
:100AF00001215FF00070FFF704FF01210120FFF7E3
:100B0000F0FEDFF8E803FFF7F1FA01215FF4EA10E5
:100B100000F0CAFA00208DF80A0000208DF80B00C2
:100B200000208DF80C0000208DF80D0000208DF8BD
:100B30000E0001208DF80F0000208DF80600002027
:100B40008DF8070003208DF8080004208DF80900B7
:100B50000420ADF8040001A9DFF89003FFF7E0FAE4
:100B600002208DF81A0001208DF81B0001208DF85D
:100B70001C004FF41870ADF810000020ADF8120002
:100B80000020ADF814000020ADF816000020ADF8EC
:100B9000180001208DF81D0004A8FFF746FB012274
:100BA0000221DFF84803FFF7BFFB1120DFF84013F5
:100BB00008600120DFF8381348600020DFF83013A8
:100BC00048720020CA4908720820C949887200206A
:100BD000C84908600020C74948600020C54908721C
:100BE0000020C44988720020C249C8740020C1494D
:100BF000C87209B000BD80B500215FF0006000F050
:100C0000C4FA4FF4407000F08BFA1C208DF80000FD
:100C10000F208DF8010000208DF8020001208DF8D2
:100C20000300684600F081FA4FF4E06000F078FAC3
:100C300014208DF8000000208DF8010000208DF8B0
:100C4000020001208DF80300684600F06EFA01BD35
:100C500080B58AB001215FF48000FFF752FE0121C8
:100C60000820FFF73EFE4FF44060ADF8040001207D
:100C70008DF806001C208DF8070001A99A4800F0A5
:100C8000A7F99D4800F096FA0020ADF81C004BF63D
:100C9000FF70ADF81E000020ADF820004FF480601A
:100CA000ADF822004FF48040ADF824009348069040
:100CB00006A9914800F098FA01218F4800F000FB46
:100CC00038208DF8090038208DF8110018208DF893
:100CD0000A0018208DF81200C0208DF80800C020EE
:100CE0008DF81000864803908648059080208DF886
:100CF0000B0002A800F098FC04A800F0C8FC042037
:100D00008DF80200C0208DF8000000208DF8010051
:100D1000684600F0EFFC0BB000BD80B50121082053
:100D2000FFF7DFFD0220ADF8000010208DF8030072
:100D300001208DF8020069466B4800F049F901BDB9
:100D4000C26889B25140C160704710B56E4800F06A
:100D500018FD6D4880896D4908706B48B0F90C002A
:100D600000126A4948706848C089684988706648B6
:100D7000B0F90E0000126549C8706348008A6349E3
:100D800008716148B0F910000012604948715E486E
:100D9000408A5E4988715C48B0F9120000125B49D4
:100DA000C8715948808A594908725748B0F91400E7
:100DB0000012564948725448C08A544988725248B1
:100DC000B0F9160000125149C8724A48C07A022888
:100DD00035D102204649C872412045490873002098
:100DE00005E04A49095C424A02445173401C062806
:100DF000F7DB3F493D48FFF7A3FA04002100C9B2E1
:100E00003A48FFF73CFB0128F8D1472038490873DE
:100E1000002006E03D4901448979354A0244517376
:100E2000401C0628F6DB32493048FFF789FA0400F7
:100E30002100C9B22D48FFF722FB0128F8D110BDCF
:100E400080B53348007800281AD102212748FFF7DF
:100E5000E2FB284A00212548FFF763FB2D48006884
:100E6000401C2C4908602B4800686F2806D10221DD
:100E70001D48FFF765FF002026490860FFF765FF62
:100E800001BD80B501215FF0804000F09DF8204851
:100E9000007800280FD020480068401C1E490860D8
:100EA0001D480068642806D1FFF7FDFDFFF7D0FE5E
:100EB00000201749087001BD80B5FFF781FDFFF7DD
:100EC0008FFDFFF7C4FDFFF796FEFFF726FF012217
:100ED0000221054800F0DFF8FEE700003FC8E61AEF
:100EE000B8000020AC000020000C0140006400406D
:100EF000780000208C00002000580040801A060076
:100F000023DB793E00008C4218000020A000002066
:100F100014000020B0000020B40000200021DFF801
:100F20003410096811F038010843DFF82810086010
:100F30007047DFF82010096831F01001DFF8142045
:100F40001160DFF8101009680843DFF80810086026
:100F50007047000000200240028812F08F020280D9
:100F60000388CA8813434A88134303808A8882858A
:100F70000A880285054A904202D0054A904201D172
:100F8000097A01860121818270470000002C01400E
:100F900000340140C9B2002904D0018851F0010198
:100FA000018004E0028840F2FE310A40028070476E
:100FB000D2B2002A03D082891143818103E0828961
:100FC00032EA01018181704789B2C94301827047C9
:100FD00070B4002200220022002200220022CB78DE
:100FE00013F00F03CA78D20601D58A7813430A8812
:100FF000D2B2002A21D0066800241BE0CA78482A11
:1010000017D10122A240026113E00125A5400A8800
:101010002A40AA420DD1A2000F259540AE4313FAF3
:1010200002F232431600CA78282AE7D10122A240F0
:101030004261641C082CE8D306600A88B2F5807F00
:1010400027DB4568002421E0012214F1080612FA8A
:1010500006F60A883240B24217D1A2000F26964007
:10106000B54313FA02F22A431500CA78282A04D19C
:10107000012614F1080296404661CA78482A04D134
:10108000012614F1080296400661641C082CDBD38B
:10109000456070BC7047D2B2002A02D089B20161AB
:1010A00001E089B24161704730B400220022002281
:1010B00000221A4A1468C0F3034382B210F44015A8
:1010C000B5F5401F09D1230033F07063134C246839
:1010D00034F07064114D2C6013E0C50207D5032570
:1010E00015FA03F334EA030353F0706309E00300D5
:1010F0005B0DDBB21B0112FA03F334EA030353F076
:101100007063C9B2002905D0400DC0B20001824011
:101110001A4313000148036030BC704704000140CB
:101120001D4908431D4908607047002100210F2315
:10113000C17800291ED01949096811F4E061D1F580
:10114000E061090AD1F10402CB40417811FA02F2C0
:1011500081780B401A43120111490378CA540121C6
:10116000027812F01F0291400E4A0078401142F8B6
:10117000201009E00121027812F01F0291400A4A72
:101180000078401142F820107047084A1140084387
:1011900007490860704700000000FA050CED00E008
:1011A00000E400E000E100E080E100E080FFFF1FDC
:1011B00008ED00E080B53E4988420AD101215FF484
:1011C0000010FFF7AEFB00215FF40010FFF7A9FB52
:1011D00009E001215FF48000FFF7A3FB00215FF429
:1011E0008000FFF79EFB01BD78B585B004000D00BF
:1011F0000020002004202F48A6884FF6C07006402B
:101200006846FFF701FB029B2B48B3FBF0F10E434E
:10121000A68022884FF6FE700240228000222868B5
:10122000264EB0420CD228684000B3FBF0F0030019
:101230009BB2042B00DA04200243491C218422E0E3
:10124000E8884BF6FF76B04205D12E68032046436E
:10125000B3FBF6F006E02E6819204643B3FBF6F028
:1012600050F48040030501D150F00100024352F4D4
:10127000004289B24FF4967041434FF47A7091FB6B
:10128000F0F0401C2084A283208850F001002080D0
:1012900021884FF6F5300140A88801436889014351
:1012A0002180A98928890143218106B070BD0000F1
:1012B0000054004000127A0040420F00A186010055
:1012C000C9B2002904D0018851F00101018004E075
:1012D00002884FF6FE710A4002807047C9B20029A9
:1012E00004D0818851F40061818004E082884FF24B
:1012F000FF710A4082807047C9B2002904D001887A
:1013000051F48071018004E002884FF6FF610A40C9
:1013100002807047C9B2002904D0018851F40071DD
:10132000018004E002884FF6FF510A4002807047B6
:10133000C9B2002904D0018851F48061018004E021
:1013400002884FF6FF310A4002807047C9B201821D
:101350007047D2B2002A02D051F0010101E011F031
:10136000FE01C9B201827047002200220022002241
:10137000828A008B0004024322F07F428A4201D11C
:10138000012000E00020C0B2704782B0002200229D
:1013900001920022009200900800000F019021F0BD
:1013A0007F410198002803D000981430009003E09A
:1013B000090C00981830009000980068084201D08D
:1013C000012000E00020C0B202B0704730B58BB001
:1013D0000C00150001210120FFF773FADFF820044B
:1013E000009001940020029003950020049080203A
:1013F00005900020069000200790002008904FF4F0
:101400004050099000200A900021DFF8F80300F016
:101410002FFA6946DFF8EC0300F00EFA0121DFF83D
:10142000E40300F025FA0BB030BDF8B504000D0060
:1014300016001F005FF40031DFF8CC03FFF7A5FFB3
:101440000028F7D10121DFF8C003FFF755FFDFF8CF
:10145000BC13DFF8B403FFF787FF0028F7D00022A2
:101460002100C9B2DFF8A003FFF773FFDFF8A01374
:10147000DFF89403FFF778FF0028F7D03100C9B2F6
:10148000DFF88403FFF762FFDFF88813DFF87803E3
:10149000FFF76AFF0028F7D000240FE02000C0B259
:1014A000295CDFF86403FFF751FFDFF86813DFF80A
:1014B0005803FFF759FF0028F7D0641C20003900BB
:1014C000C0B2C9B28842E9D30121DFF83C03FFF77B
:1014D00021FFF1BDF8B504000D0016001F0000202B
:1014E0000090002000905FF40031DFF81C03FFF74C
:1014F0004CFF0028F7D10121DFF80C03FFF7FCFEB9
:10150000DFF80813DFF80003FFF72EFF0028F7D0FD
:1015100000222100C9B2DFF8F002FFF71AFFDFF85E
:10152000F012DFF8E402FFF71FFF0028F7D00121D7
:10153000DFF8D402FFF7C4FE3100C9B2DFF8C802F9
:10154000FFF704FFDFF8CC12DFF8BC02FFF70CFF57
:101550000028F7D0BFB23A002900DFF8AC02FFF74D
:1015600035FFDFF8B402008850F48050DFF8A8128D
:1015700008800121DFF89002FFF7B0FE4FF6FF7000
:1015800000900121DFF88002FFF7B6FEDFF87C1241
:10159000DFF87402FFF7E8FE0028F7D00098411E3C
:1015A000009100283FD04FF6FF70009001222100EB
:1015B000C9B2DFF85402FFF7CCFEDFF86012DFF8A3
:1015C0004802FFF7D1FE0028F7D00098411E009195
:1015D000002828D0DFF84802008880B200905FF42D
:1015E000003000F052F90028F9D00021DFF8140291
:1015F00000F03EF95FF4003000F057F90021DFF809
:101600000802FFF795FE0121DFF8FC01FFF782FEDB
:10161000DFF8F401008880B28005F9D40121DFF8F9
:10162000E801FFF785FEF1BD80B500218DF80210BD
:1016300000218DF8011000218DF800109DF8022086
:1016400041780A438DF802209DF8012001780A4371
:1016500081780A438DF801209DF80010C07801437D
:101660008DF8001001231F220DF10201D420FFF795
:10167000DCFE012320220DF10101D420FFF7D5FE6D
:10168000012321226946D420FFF7CFFE01BD80B59A
:1016900000218DF8021000218DF8011000218DF835
:1016A00000109DF8022001780A4381780A438DF8E2
:1016B00002209DF80120C1780A438DF801209DF891
:1016C0000010407801438DF80010012310220DF125
:1016D0000201D420FFF7A9FE012312220DF101011E
:1016E000D420FFF7A2FE01231E226946D420FFF773
:1016F0009CFE01BD80B500218DF800109DF80020F2
:1017000001780A4341780A43807802438DF800202B
:10171000012322226946D420FFF787FE01BD1FB5B1
:1017200004000C2318226946D420FFF7D3FE0020C2
:101730000BE0694601EB400149786A4612F8102037
:1017400012EB012224F81020401C0628F1DB1FBDFB
:101750001CB504000623282269463820FFF7BAFE8C
:1017600000200BE0694601EB400149786A4612F817
:10177000102012EB012224F81020401C0328F1DB7A
:1017800013BD38B504002000FFF7C9FF14F118009D
:10179000FFF7DEFF00252FE004EB4500C08804EBD7
:1017A0004501888134F8150004EB4501488204EBBB
:1017B0004500B0F90C0000F089F800F099F8194ADA
:1017C000194B00F0B9F80022184B00F09FF900F017
:1017D000C1FA04EB8501086204EB4500B0F9120080
:1017E00000F074F8124900F0E9FA124900F052FBD7
:1017F00004EB8501C8626D1C032DCDDB31BD0000FB
:1018000010580040580002400058004001000300FA
:101810008200070084000700045800400200030013
:101820001858004008AC1C5A643BAF3F00408F4042
:1018300000008C4200007A44002203686FF30E130C
:101840008A6813430A6A13430A6913434A691343B4
:101850008A691343CA6913434A6A13438A6A134362
:101860000360CA6842600A6882604968C160704764
:10187000C9B2002904D0016851F00101016003E000
:101880000168490849000160704700210021C1003A
:1018900002D50C49096801E00B490968014201D0F1
:1018A000012000E00020C0B27047C10002D5044909
:1018B000086001E001490860704700000400024030
:1018C00004040240000402400000024010F0004CFA
:1018D00068B148BF4042B0FA80F18840D1F19D0123
:1018E0004CEAC15C010671F100414CEB10207047DD
:1018F000C0F3C75181B1FF2906D0C110400721F0C4
:10190000E04101F16051704741020CBF40F4E00139
:101910006FF000410020704700F0004100020AD043
:10192000B0FA80FC00FA0CF001F16051A1EB0C510F
:1019300001EBD0214005704730B540F2FF7C1CEA36
:1019400011541DBF1CEA1355644565453FE06419F9
:1019500081EA030C6FF35F530CF0004C43F48013E7
:10196000C90241F0004141EA505EC5021100A5FBE9
:10197000020200284FF00000EEFB01204FF00001B2
:10198000E3FB052118BF42F0010240180021494144
:10199000E3FB0E01A4F580640D0302D292184041CE
:1019A000494154F1010470DD450872F1004250F1E3
:1019B000000051EB0451A1F5801102D441EA0C0161
:1019C00030BD40F2FF7E4CEA0E51002030BD0CEAE3
:1019D0001355644518BF654581EA030C0CF0004CB3
:1019E00041D050EA410E1CBF52EA430E02E061466C
:1019F000002030BD24422C441BD15FEA050EF6D0F6
:101A0000090302BF01460020AEF1140EB1FA81F5C0
:101A1000AEEB050401FA05FE0C35C5F1200100FA14
:101A200005F5C8404EEA000E6FF35F5343F4801390
:101A30009CE733F00043B3FA83F504BFB2FA82FEA9
:101A400075440B3D641BB5F1200E2FBF02FA0EF357
:101A5000AB40C5F1200E22FA0EFE38BF43EA0E035A
:101A6000AA40641C7CE750EA410E14BF52EA430EC0
:101A70006FF000014FF4001515EB430F8EBF1946B0
:101A800015EB410F9DE7B4D830BDD4F10104B4F19A
:101A900020050FDAC4F12005520828BF42F00102E8
:101AA00010FA05FE01FA05F57244E2BFE040284352
:101AB000E1400FE0352C9ADCC5F1200452EA4002E7
:101AC00020FA05F218BF42F0010231FA05F0A140F8
:101AD0000A43002172F1004250F1000051EB0C0169
:101AE00030BD0EE002684368024408305FEAC37C00
:101AF00044BF4B445B1E52F804CB43F804CB091F90
:101B0000F9D150F8041B0029ECD17047F0B540F230
:101B1000FF7581EA030C0CF0004C15EA11541DBF4F
:101B200015EA1357AC42AF42E5E0BC41C1F31301E3
:101B3000C3F31303801A994143F4801304D2641E43
:101B40000018494180185941C90241EA5051B1FB7E
:101B5000F3F603FB1611A2FB0675D7EBC020A941D3
:101B600002D2761E80185941C90241EA5051B1FB98
:101B7000F3FE03FB1E11A2FB0E75D7EBC020A9419B
:101B800003D2AEF1010E80185941890241EA905109
:101B9000760546EA8E2EB1FBF3F603FB1611A2FB87
:101BA0000675D7EB8020A94102D2761E80185941D4
:101BB000C90241EA50514EEA060EB1FBF3F603FBAF
:101BC0001611A2FB0675D7EBC020A94102D2761EE2
:101BD00080185941C90241EA5051B1FBF3F703FBA8
:101BE0001711A2FB0735D3EBC020A94167F100070D
:101BF0000CBF004247F0010766F3D5274FEA1E31BC
:101C0000B80814F5806412DDBD0775F1004250EB91
:101C10000E5051EB045111F5801F5CBF41EA0C01DD
:101C2000F0BD4CF07F6141F0E0410020F0BDBD0708
:101C30006D0840EA0E5041F48011D4F10104B4F172
:101C400020060ADAC4F120060200E04001FA06F399
:101C5000E1401843B24015430EE0342C13DCC6F1CA
:101C6000200445EA40056D0820FA06F2154321FAE2
:101C700006F0A1400D43002175F1004250F1000033
:101C800051EB0C01F0BD00205FEA0C01F0BDCFB9B3
:101C900092185B41B3FA83F704BFB2FA82F6BF1918
:101CA0000B3FB7F120062FBF02FA06F3BB40C7F186
:101CB000200622FA06F638BF3343BA401CB1E419B5
:101CC000641E33E77F4231F00041B1FA81F404BF72
:101CD000B0FA80F6A4190B3CB4F120062FBF00FA2D
:101CE00006F1A140C4F1200620FA06F638BF3143C0
:101CF000A0403C1B1AE7AC421ABF05EA1357AF429B
:101D000012E050EA41061CBF52EA4306BFE750EA20
:101D10004107304661461CBF41EA0551F0BD52EA19
:101D2000430C08BFC143F0BD00204FF4001616EB72
:101D3000410F98BF16EB430F08BF16EB410F24BFAE
:101D4000C14305E016EB430F0CBF61464CEA055159
:101D5000F0BDFEE701F000428B1AA3F16051B1F52E
:101D6000801F0ADBB1F17F6F1FD242EAC102C100BE
:101D700071F1004142EB507070470B15C3F109033C
:101D8000212B10D2890241EA905180020128494159
:101D900041F0004121FA03F0C3F12003994071F1B1
:101DA000004150417047100070476FF0000013EB86
:101DB000103F5CBF000E42EAC0507047FF2212EA9B
:101DC000D05C1DBF12EAD153944593422BE09C4452
:101DD000D30780EA010243EA002043EA01211A40C6
:101DE000A1FB0030C04238BF00187CF17F010BDB43
:101DF000FE294ADA5B0842EAC15153EA006373F1F3
:101E0000004C51EB10207047D1F1080CDCF120019F
:101E10002FDB5B0810FA01F10B4320FA0CF073F191
:101E200000415041704794451CBF02EAD153934290
:101E300080EA010202F000421DD0400019D04900A2
:101E400017D05BB9634514D00902B1FA81F3994008
:101E5000BCEB030CC00140F00040C1E70002B0FA47
:101E600080FC10FA0CF0B3EB0C0CC90141F00041FE
:101E7000B6E71000704740000AD0490008D010F1C2
:101E8000807F94BF11F1807F02E042F0FF407047F5
:101E9000D04370474FF0FF0C1CEAD0531DBF1CEA23
:101EA000D1526345624543E09B1A5FEACC7280EAF7
:101EB000010C42EA01211CEA020C42EA0020421A0B
:101EC00038BF01EB420253F17E034FEA1121B2FB0E
:101ED000F1F001FB102260F3D63C4FEA0222B2FB84
:101EE000F1F001FB102260F3CE1C4FEA0222B2FB9C
:101EF000F1F006DDFF2B29DA5CEA500040EBC3501D
:101F00007047C3F1020301FB1022192B40EA4C0178
:101F10000CF0004C41F0807121DC21FA03F0C3F198
:101F200020039940114371F1004250EB0C007047BF
:101F300063451ABF0CEAD152624512E080EA010CF7
:101F400000180CF0004C06D049181AD10CF0004CC7
:101F50004CF0FF407047C94208BF6FEA020C604670
:101F60007047634506D1B2EB0C02F5D001F0004199
:101F7000484070474A0212BF0846484000F00040FF
:101F800070474AB90902B1FA81F2914043B19B18F6
:101F9000C00140F0004092E7C90141F000415242C7
:101FA0000002B0FA80F39840D31A88E730B40025D5
:101FB00012E050F8042BD30744BF4A44521E091FB5
:101FC000042942F8045BFAD213468C0744BF1580FB
:101FD0009B1CC90748BF1D7050F8041B0029E8D19D
:101FE00030BC70477047FEE7FEE7FEE7FEE770474C
:101FF00070477047704780B5FEF743FF01BD80B55D
:10200000FEF71EFF01BD80B5FEF71AFF01BD0000FF
:1020100010B5074979441831064C7C44163404E065
:102020000A68081D114488470146A142F8D110BD35
:10203000080000002800000075FFFFFFA40000005A
:1020400018000020000000009BFAFFFF18000000AD
:1020500070000000000000200000000000F00DF8FB
:10206000002801D0FFF7D4FFAFF300800020AFF3CA
:102070000080FEF721FF00F002F80120704700F019
:1020800001B800000746384600F002F8FBE7000000
:1020900080B5AFF30080024A11001820ABBEFBE709
:1020A000260002000548014603B4684680F309880B
:1020B000AFF30080AFF30080FFF7D0FFA5EDF5FE92
:1020C00000000000010203040102030406070809DE
:0820D0000204060801000000F3
:04000005080020A52A
:00000001FF
