:020000040800F2
:10300000F815002017B200089DB100089FB1000814
:10301000A1B10008A3B10008A5B10008000000009C
:10302000000000000000000000000000A7B1000840
:10303000A9B1000800000000ABB10008ADB1000864
:10304000FB510008FB510008FB510008FB51000830
:10305000FB510008FB510008FB510008FB51000820
:10306000FB510008FB510008FB510008FB51000810
:10307000FB510008FB510008FB510008FB51000800
:10308000FB510008FB510008FB510008FB510008F0
:10309000B7B10008FB510008FB510008FB510008C4
:1030A000FB510008FB510008FB510008FB510008D0
:1030B000AFB10008FB510008FB510008FB510008AC
:1030C000FB510008FB510008FB510008FB510008B0
:1030D000FB510008FB510008FB510008FB510008A0
:1030E000FB510008FB510008FB510008C0B20C283E
:1030F00048D1DFF8DC03DFF8DC23DFF8DC33C0E99C
:103100000023DFF8CC03DFF8D423DFF8D433C0E9A1
:103110000223DFF8BC03DFF8CC23DFF8CC33C0E9AF
:103120000423DFF8AC03DFF8B423DFF8B433C0E9DD
:103130000623DFF89C03DFF89C23DFF89C33C0E90B
:103140000823DFF88C03DFF8A423DFF8A433C0E9F9
:103150000A23DFF87C03DFF89C23DFF89C33C0E907
:103160000C23DFF86C03DFF89423DFF89433C0E915
:103170000E23DFF85C03DFF88C23DFF88C33C0E923
:1031800010236FE0C0B20B283CD1DFF84403DFF816
:103190007C23DFF87C33C0E90023CD48DFF87423BB
:1031A000DFF87433C0E90223C948DFF87023DFF881
:1031B0007033C0E90423C648DFF85823DFF85833DA
:1031C000C0E90623C248DFF84423DFF84433C0E9EE
:1031D0000823BF48DFF84C23DFF84C33C0E90A234B
:1031E000BB48DFF84823DFF84833C0E90C23B84870
:1031F000D04AD14BC0E90E23B548D04AD04BC0E9E4
:1032000010232FE0C0B202282CD1B148CD4ACE4BBA
:10321000C0E90023AE48CD4ACD4BC0E90223AC48FB
:10322000CC4ACD4BC0E90423A948C84AC84BC0E9E1
:103230000623A748C34AC44BC0E90823A448C74A89
:10324000C74BC0E90A23A248C64AC74BC0E90C23B2
:103250009F48C64AC64BC0E90E239D48C54AC64B87
:10326000C0E91023704730B4DBB20C2B06D0DBB2C0
:10327000022B03D0DBB20B2B40F02881042308E0A3
:10328000BE4C14EB830454F8044CBC4D45F8234069
:103290005B1E012BF4DAB94B04681C60042308E0C0
:1032A000B74C14EB830454F8044CB54D45F8234057
:1032B0005B1E012BF4DA042308E0B24C14EB830408
:1032C00054F8044CAF4D45F823405B1E012BF4DA53
:1032D0004368AC4C2360042308E0AB4C14EB83043C
:1032E00054F8044CA84D45F823405B1E012BF4DA3A
:1032F00004230AE0DFF8D44D14EB830454F8044CA3
:10330000DFF8C85D45F823405B1E012BF2DA8068C8
:10331000DFF8B83D186004200AE0DFF8B43D13EB95
:10332000800353F8043CDFF8A84D44F82030401ED9
:103330000128F2DA04200AE0DFF8983D13EB80035D
:1033400053F8043CDFF88C4D44F82030401E01282F
:10335000F2DADFF8800D0B68036004200AE0DFF882
:10336000783D13EB800353F8043CDFF86C4D44F8D0
:103370002030401E0128F2DA04200AE0DFF85C3D2C
:1033800013EB800353F8043CDFF8504D44F8203031
:10339000401E0128F2DA4868DFF8403D186004203A
:1033A0000AE0DFF83C3D13EB800353F8043CDFF800
:1033B000304D44F82030401E0128F2DA04200AE0A3
:1033C000DFF8203D13EB800353F8043CDFF8144D85
:1033D00044F82030401E0128F2DA8868DFF8041D26
:1033E000086004200AE0DFF8001D11EB800151F8AD
:1033F000041CDFF8F43C43F82010401E0128F2DAE8
:1034000004200AE0DFF8E41C11EB800151F8041CF1
:10341000DFF8D83C43F82010401E0128F2DADFF82C
:10342000CC0C1168016004200AE0DFF8C41C11EB29
:10343000800151F8041CDFF8B83C43F82010401E0E
:103440000128F2DA04200AE0DFF8A81C11EB800161
:1034500051F8041CDFF89C3C43F82010401E012862
:10346000F2DA5068DFF88C1C086004200AE0DFF80C
:10347000881C11EB800151F8041CDFF87C3C43F8F8
:103480002010401E0128F2DA04200AE0DFF86C1C4C
:1034900011EB800151F8041CDFF8603C43F8201068
:1034A000401E0128F2DA9068DFF8501C0860042002
:1034B0000AE0DFF84C1C11EB800151F8041CDFF826
:1034C000402C42F82010401E0128F2DA30BC704730
:1034D000C0090020613255302AA9733FA54E401320
:1034E00061C3933FD5E76A2BF6979D3FDBF97E6A70
:1034F000BCF402C0508D976E128302408E75711B12
:103500000DE0F0BF789CA223B9FCC73FB5A679C7F0
:10351000293A823FD734EF384547A23F3108AC1CE7
:103520005A64AB3FDE02098A1F6300C0645DDC465B
:103530000378FD3F287E8CB96B09E9BFB30C71ACF1
:103540008BDBC03F2D431CEBE2363A3F5F07CE19C1
:1035500051DA5B3F7B14AE47E17A643FC442AD6908
:10356000DE7109C088855AD3BCE30E40BDE3141D4B
:10357000C9E500C0228E75711B0DDC3F080B0020D1
:10358000440B00201C0B0020580B00202DE9F041BB
:1035900006000F009046DBB20C2B06D0DBB2022BEC
:1035A00003D0DBB20B2B40F08E85DFF8580B0068A0
:1035B00001F01AFDDFF8504BD4E9002301F04CFD77
:1035C00004000D00DFF83C0B406801F00DFDDFF852
:1035D00038CBDCE9022301F03FFD22002B0001F093
:1035E0000DFE04000D00DFF81C0B806801F0FCFCF0
:1035F000DFF814CBDCE9042301F02EFD22002B00C0
:1036000001F0FCFD04000D00DFF8F80AC06801F0CD
:10361000EBFCDFF8F4CADCE9062301F01DFD220013
:103620002B0001F0EBFD04000D00DFF8D80A006963
:1036300001F0DAFCDFF8D0CADCE9082301F00CFD68
:1036400022002B0001F0DAFD04000D00DFF8BC0AB7
:10365000406801F0C9FCDFF8B0CADCE90A2301F0D8
:10366000FBFC02000B002000290001F03BFE0400DF
:103670000D00DFF8980A806801F0B6FCDFF888CA10
:10368000DCE90C2301F0E8FC02000B00200029001B
:1036900001F028FE04000D00DFF8700AC06801F098
:1036A000A3FCDFF864CADCE90E2301F0D5FC0200BC
:1036B0000B002000290001F015FE04000D00DFF8CA
:1036C0004C0A006901F090FCDFF83CCADCE91023E9
:1036D00001F0C2FC02000B002000290001F002FEF4
:1036E00001F0C0FEDFF8241A0860DFF8240A006841
:1036F00001F07AFCDFF8104AD4E9002301F0ACFCB9
:1037000004000D00DFF8080A406801F06DFCDFF8E6
:10371000F8C9DCE9022301F09FFC22002B0001F034
:103720006DFD04000D00DFF8E809806801F05CFC25
:10373000DFF8D4C9DCE9042301F08EFC22002B0061
:1037400001F05CFD04000D00DFF8C409C06801F061
:103750004BFCDFF8B4C9DCE9062301F07DFC220054
:103760002B0001F04BFD04000D00DFF8A4090069F7
:1037700001F03AFCDFF890C9DCE9082301F06CFCA9
:1037800022002B0001F03AFD04000D00DFF884094F
:10379000406801F029FCDFF870C9DCE90A2301F078
:1037A0005BFC02000B002000290001F09BFD0400DF
:1037B0000D00DFF86009806801F016FCDFF848C9E9
:1037C000DCE90C2301F048FC02000B00200029007A
:1037D00001F088FD04000D00DFF83809C06801F031
:1037E00003FCDFF824C9DCE90E2301F035FC0200FC
:1037F0000B002000290001F075FD04000D00DFF82A
:103800001409006901F0F0FBDFF8FCC8DCE91023C3
:1038100001F022FC02000B002000290001F062FDF3
:1038200001F020FEDFF8EC180860DFF8A00800685F
:1038300001F0DAFBDFF8D048D4E9002301F00CFCFA
:1038400004000D00DFF88408406801F0CDFBDFF8CC
:10385000B8C8DCE9022301F0FFFB22002B0001F0D5
:10386000CDFC04000D00DFF86408806801F0BCFBAB
:10387000DFF894C8DCE9042301F0EEFB22002B0002
:1038800001F0BCFC04000D00DFF84008C06801F046
:10389000ABFBDFF874C8DCE9062301F0DDFB220096
:1038A0002B0001F0ABFC04000D00DFF820080069DC
:1038B00001F09AFBDFF850C8DCE9082301F0CCFBEB
:1038C00022002B0001F09AFC04000D00DFF8000834
:1038D000406801F089FBDFF830C8DCE90A2301F019
:1038E000BBFB02000B002000290001F0FBFC0400E0
:1038F0000D00DFF8DC07806801F076FBDFF808C810
:10390000DCE90C2301F0A8FB02000B0020002900D9
:1039100001F0E8FC04000D00DFF8B407C06801F016
:1039200063FBDFF8E4C7DCE90E2301F095FB02003E
:103930000B002000290001F0D5FC04000D00DFF889
:103940009007006901F050FBDFF8BCC7DCE91023E9
:1039500001F082FB02000B002000290001F0C2FCF4
:1039600001F080FDDFF868170860DFF8A007006845
:103970003060DFF8A00700687060DFF85407006867
:10398000B060DFF85007006801F02EFBDFF87847E1
:10399000D4E9002301F060FB04000D00DFF83407D8
:1039A000406801F021FBDFF86067D6E9022301F0EF
:1039B00053FB22002B0001F021FC04000D00DFF876
:1039C0001407806801F010FBDFF83C67D6E9042398
:1039D00001F042FB22002B0001F010FC04000D005E
:1039E000DFF8F006C06801F0FFFADFF81C67D6E9DF
:1039F000062301F031FB22002B0001F0FFFB040045
:103A00000D00DFF8D006006901F0EEFADFF8F86685
:103A1000D6E9082301F020FB22002B0001F0EEFB89
:103A200004000D00DFF8B006406801F0DDFADFF8B1
:103A3000D866D6E90A2301F00FFB02000B00200034
:103A4000290001F04FFC04000D00DFF88C068068AF
:103A500001F0CAFADFF8B066D6E90C2301F0FCFAEF
:103A600002000B002000290001F03CFC04000D00C6
:103A7000DFF86406C06801F0B7FADFF88C66D6E9B3
:103A80000E2301F0E9FA02000B002000290001F0EA
:103A900029FC04000D00DFF84006006901F0A4FADB
:103AA000DFF86466D6E9102301F0D6FA02000B00B5
:103AB0002000290001F016FC01F0D4FCDFF81816F4
:103AC0000860DFF81806006801F08EFADFF8384663
:103AD000D4E9002301F0C0FA04000D00DFF8FC0572
:103AE000406801F081FADFF82066D6E9022301F090
:103AF000B3FA22002B0001F081FB04000D00DFF877
:103B0000DC05806801F070FADFF8FC65D6E9042373
:103B100001F0A2FA22002B0001F070FB04000D005E
:103B2000DFF8B805C06801F05FFADFF8DC65D6E9B8
:103B3000062301F091FA22002B0001F05FFB040044
:103B40000D00DFF89805006901F04EFADFF8B8655E
:103B5000D6E9082301F080FA22002B0001F04EFB89
:103B600004000D00DFF87805406801F03DFADFF849
:103B70009865D6E90A2301F06FFA02000B002000D5
:103B8000290001F0AFFB04000D00DFF85405806848
:103B900001F02AFADFF87065D6E90C2301F05CFA2F
:103BA00002000B002000290001F09CFB04000D0026
:103BB000DFF82C05C06801F017FADFF84C65D6E98C
:103BC0000E2301F049FA02000B002000290001F049
:103BD00089FB04000D00DFF80805006901F004FA14
:103BE000DFF82465D6E9102301F036FA02000B0055
:103BF0002000290001F076FB01F034FCDFF8E0142E
:103C00000860DFF8E004006801F0EEF9DFF8F8443E
:103C1000D4E9002301F020FA04000D00DFF8C40409
:103C2000406801F0E1F9DFF8E064D6E9022301F031
:103C300013FA22002B0001F0E1FA04000D00DFF876
:103C4000A404806801F0D0F9DFF8BC64D6E904234D
:103C500001F002FA22002B0001F0D0FA04000D005E
:103C6000DFF88004C06801F0BFF9DFF89C64D6E992
:103C7000062301F0F1F922002B0001F0BFFA040045
:103C80000D00DFF86004006901F0AEF9DFF8786438
:103C9000D6E9082301F0E0F922002B0001F0AEFA8A
:103CA00004000D00DFF84004406801F09DF9DFF8E2
:103CB0005864D6E90A2301F0CFF902000B00200076
:103CC000290001F00FFB04000D00DFF81C048068E0
:103CD00001F08AF9DFF83064D6E90C2301F0BCF971
:103CE00002000B002000290001F0FCFA04000D0086
:103CF000DFF8F403C06801F077F9DFF80C64D6E967
:103D00000E2301F0A9F902000B002000290001F0A8
:103D1000E9FA04000D00DFF8D003006901F064F94E
:103D2000DFF8E463D6E9102301F096F902000B00F6
:103D30002000290001F0D6FA01F094FBDFF8A81367
:103D40000860DFF8940300683860DFF894030068C7
:103D50007860DFF894030068B860DFF890030068CB
:103D600001F042F9DFF8A043D4E9002301F074F92F
:103D700004000D00DD48406801F036F9DFF8886383
:103D8000D6E9022301F068F922002B0001F036FA8F
:103D900004000D00D548806801F026F9DA4ED6E916
:103DA000042301F059F922002B0001F027FA040046
:103DB0000D00CE48C06801F017F9D34ED6E90623AE
:103DC00001F04AF922002B0001F018FA04000D005E
:103DD000C648006901F008F9CB4ED6E9082301F086
:103DE0003BF922002B0001F009FA04000D00C04845
:103DF000406801F0F9F8C44ED6E90A2301F02CF925
:103E000002000B002000290001F06CFA04000D00F4
:103E1000B748806801F0E8F8BB4ED6E90C2301F002
:103E20001BF902000B002000290001F05BFA0400DE
:103E30000D00AF48C06801F0D7F8B34ED6E90E23A5
:103E400001F00AF902000B002000290001F04AFAF3
:103E500004000D00A648006901F0C6F8AA4ED6E994
:103E6000102301F0F9F802000B002000290001F0F6
:103E700039FA01F0F7FA9E4908609E48006801F09F
:103E8000B3F8A14CD4E9002301F0E6F804000D00DA
:103E90009848406801F0A8F89B4ED6E9022301F04B
:103EA000DBF822002B0001F0A9F904000D00914875
:103EB000806801F099F8944ED6E9042301F0CCF81B
:103EC00022002B0001F09AF904000D008948C06817
:103ED00001F08AF88C4ED6E9062301F0BDF82200E5
:103EE0002B0001F08BF904000D008248006901F0FD
:103EF0007BF8854ED6E9082301F0AEF822002B00AE
:103F000001F07CF904000D007B48406801F06CF87A
:103F10007D4ED6E90A2301F09FF802000B00200035
:103F2000290001F0DFF904000D007348806801F0FA
:103F30005BF8754ED6E90C2301F08EF802000B00F9
:103F40002000290001F0CEF904000D006A48C06885
:103F500001F04AF86C4ED6E90E2301F07DF802001C
:103F60000B002000290001F0BDF904000D0062489B
:103F7000006901F039F8644ED6E9102301F06CF8BD
:103F800002000B002000290001F0ACF901F06AFAF0
:103F9000594908605948006801F026F85A4CD4E99C
:103FA000002301F059F804000D005448406801F066
:103FB0001BF8554ED6E9022301F04EF822002B00E3
:103FC00001F01CF904000D004C48806801F00CF869
:103FD0004D4ED6E9042301F03FF822002B0001F0FA
:103FE0000DF904000D004548C06800F0FDFF464E85
:103FF000D6E9062301F030F822002B0001F0FEF88C
:1040000004000D003D48006900F0EEFF3E4ED6E989
:10401000082301F021F822002B0001F0EFF8040042
:104020000D003748406800F0DFFF374ED6E90A231D
:1040300001F012F802000B002000290001F052F9F3
:1040400004000D002E48806800F0CEFF2E4ED6E909
:104050000C2301F001F802000B002000290001F000
:1040600041F904000D002648C06800F0BDFF264E4F
:10407000D6E90E2300F0F0FF02000B00200029001B
:1040800001F030F904000D001D48006900F0ACFF9C
:104090001D4ED6E9102300F0DFFF02000B002000C8
:1040A000290001F01FF901F0DDF9154908601048F9
:1040B0000068C8F8000010480068C8F804001048FC
:1040C0000068C8F80800BDE8F0810000300B00204F
:1040D0006C0B0020800B0020BC0B0020940B0020F8
:1040E000D00B0020A80B0020E40B0020F80B0020D0
:1040F000340C00200C0C0020480C0020200C002068
:104100005C0C0020080B0020C0090020440B00209C
:104110001C0B0020580B00202DE9F04F8BB006003F
:104120000C00E4B22000012819D0022800F0DE8340
:10413000032800F07F86042800F07D86052800F023
:10414000AB86062800F0EB860A2800F0E8820B28F0
:1041500000F0E9810C2800F0EA8000F01DBF30007B
:1041600001F0ACFB16F1180001F0C2FBB6F900003B
:1041700001F0D8FBDFF8281E01F0ECFBDFF8241E6D
:1041800001F054FCDFF8201E0860B6F9020001F0CF
:10419000C9FBDFF80C1E01F0DDFBDFF8081E01F0A3
:1041A00045FCDFF8041E4860B6F9040001F0BAFBD4
:1041B000DFF8EC1D01F0CEFBDFF8E81D01F036FC66
:1041C000DFF8E41D8860B6F9060001F0ABFB00F0F3
:1041D0000BFFDFF8D82DDFF8D83D00F03DFF0022BF
:1041E000DFF8D03D01F0A0FC01F03CF9DFF8C81D7C
:1041F0000860B6F9080001F095FB00F0F5FEDFF865
:10420000AC2DDFF8AC3D00F027FF0022DFF8A43D25
:1042100001F08AFC01F026F9DFF89C1D4860B6F930
:104220000A0001F07FFB00F0DFFEDFF8802DDFF8F1
:10423000803D00F011FF0022DFF8783D01F074FCB2
:1042400001F010F9DFF8701D8860B6F9180001F070
:1042500069FB00F0C9FEDFF8642DDFF8643D00F073
:10426000FBFE0022DFF84C3D01F05EFC01F0FAF8A5
:10427000DFF8501D0860B6F91A0001F053FB00F09A
:10428000B3FEDFF8382DDFF8383D00F0E5FE002200
:10429000DFF8203D01F048FC01F0E4F8DFF8241DD0
:1042A0004860B6F91C0001F03DFB00F09DFEDFF810
:1042B0000C2DDFF80C3D00F0CFFE0022DFF8F43CBF
:1042C00001F032FC01F0CEF8DFF8F81C8860230022
:1042D000DBB2DFF8F02CDFF8D01CDFF8DC0C02F0EA
:1042E000DAF9DFF8D40C00683062DFF8CC0C4068F3
:1042F0007062DFF8C40C8068B062DFF8AC0C006854
:10430000F062DFF8A40C40683063DFF89C0C806832
:104310007063DFF8B00C0068B063DFF8A80C406889
:10432000F063DFF8A00C8068306400F035BE300028
:1043300001F0C4FA16F1180001F0DAFAB6F900003B
:1043400001F0F0FADFF8581C01F004FBDFF8541C10
:1043500001F06CFBDFF8501C0860B6F9020001F0B8
:10436000E1FADFF83C1C01F0F5FADFF8381C01F047
:104370005DFBDFF8341C4860B6F9040001F0D2FAA6
:10438000DFF81C1C01F0E6FADFF8181C01F04EFB08
:10439000DFF8141C8860B6F9060001F0C3FA00F0DB
:1043A00023FEDFF8082CDFF8083C00F055FE002261
:1043B000DFF8003C01F0B8FB01F054F8DFF8F81B1F
:1043C0000860B6F9080001F0ADFA00F00DFEDFF864
:1043D000DC2BDFF8DC3B00F03FFE0022DFF8D43BB3
:1043E00001F0A2FB01F03EF8DFF8CC1B4860B6F903
:1043F0000A0001F097FA00F0F7FDDFF8B02BDFF8C4
:10440000B03B00F029FE0022DFF8A83B01F08CFB56
:1044100001F028F8DFF8A01B8860B6F9180001F059
:1044200081FA00F0E1FDDFF8942BDFF8943B00F017
:1044300013FE0022DFF87C3B01F076FB01F012F85E
:10444000DFF8801B0860B6F91A0001F06BFA00F083
:10445000CBFDDFF8682BDFF8683B00F0FDFD0022A4
:10446000DFF8503B01F060FB00F0FCFFDFF8541B6D
:104470004860B6F91C0001F055FA00F0B5FDDFF810
:104480003C2BDFF83C3B00F0E7FD0022DFF8243B4B
:1044900001F04AFB00F0E6FFDFF8281B88602300EC
:1044A000DBB2DFF8202BDFF8001BDFF80C0B02F08B
:1044B000F2F82300DBB2DFF80C2BDFF8EC1ADFF8A0
:1044C000F80AFEF7D0FE2300DBB2DFF8FC2ADFF8A3
:1044D000FC1ADFF8FC0AFFF759F8DFF8F40A006865
:1044E0003062DFF8EC0A40687062DFF8E40A806846
:1044F000B062DFF8D80A0068F062DFF8D00A4068DE
:104500003063DFF8C80A80687063DFF8BC0A0068AF
:10451000B063DFF8B40A4068F063DFF8AC0A806883
:10452000306400F039BD300001F0C8F916F1180010
:1045300001F0DEF9B6F9000001F0F4F9DFF8601AD5
:1045400001F008FADFF85C1A01F070FADFF8581A87
:104550000860B6F9020001F0E5F9DFF8441A01F04D
:10456000F9F9DFF8401A01F061FADFF83C1A486007
:10457000B6F9040001F0D6F9DFF8241A01F0EAF9DF
:10458000DFF8201A01F052FADFF81C1A8860B6F939
:10459000060001F0C7F900F027FDDFF8102ADFF868
:1045A000103A00F059FD0022DFF8083A01F0BCFA99
:1045B00000F058FFDFF8001A0860B6F9080001F0B3
:1045C000B1F900F011FDDFF8E429DFF8E43900F07B
:1045D00043FD0022DFF8DC3901F0A6FA00F042FFCB
:1045E000DFF8D4194860B6F90A0001F09BF900F031
:1045F000FBFCDFF8B829DFF8B83900F02DFD002208
:10460000DFF8B03901F090FA00F02CFFDFF8A819BC
:104610008860B6F9180001F085F900F0E5FCDFF8D4
:104620009C29DFF89C3900F017FD0022DFF884395F
:1046300001F07AFA00F016FFDFF888190860B6F981
:104640001A0001F06FF900F0CFFCDFF87029DFF8F5
:10465000703900F001FD0022DFF8583901F064FAEA
:1046600000F000FFDFF85C194860B6F91C0001F0AB
:1046700059F900F0B9FCDFF84429DFF8443900F0BB
:10468000EBFC0022DFF82C3901F04EFA00F0EAFED4
:10469000DFF8301988602300DBB2DFF82829DFF863
:1046A0000819DFF8140901F0F6FF2300DBB2DFF888
:1046B0001429DFF8F418DFF80009FEF7D4FD230011
:1046C000DBB2DFF80429DFF80419DFF80409FEF78C
:1046D0005DFFDFF8FC0800683062DFF8F40840682E
:1046E0007062DFF8EC088068B062DFF8E00800680C
:1046F000F062DFF8D80840683063DFF8D0088068DF
:104700007063DFF8C4080068B063DFF8BC08406875
:10471000F063DFF8B4088068306400F03DBC30001E
:1047200001F0CCF816F1180001F0E2F8B6F900003B
:1047300001F0F8F8DFF8681801F00CF9DFF86418F8
:1047400001F074F9DFF860180860B6F9020001F0B2
:10475000E9F8DFF84C1801F0FDF8DFF8481801F02F
:1047600065F9DFF844184860B6F9040001F0DAF89A
:10477000DFF82C1801F0EEF8DFF8281801F056F9F0
:10478000DFF824188860B6F9060001F0CBF800F0D5
:104790002BFCDFF81828DFF8183800F05DFC002249
:1047A000DFF8103801F0C0F900F05CFEDFF80818FF
:1047B0000860B6F9080001F0B5F800F015FCDFF864
:1047C000EC27DFF8EC3700F047FC0022DFF8E43795
:1047D00001F0AAF900F046FEDFF8DC174860B6F9F0
:1047E0000A0001F09FF800F0FFFBDFF8C027DFF8B8
:1047F000C03700F031FC0022DFF8B83701F094F93F
:1048000000F030FEDFF8B0178860B6F9180001F04C
:1048100089F800F0E9FBDFF8A427DFF8A43700F0FF
:104820001BFC0022DFF88C3701F07EF900F01AFE45
:10483000DFF890170860B6F91A0001F073F800F07D
:10484000D3FBDFF87827DFF8783700F005FC00228B
:10485000DFF8603701F068F900F004FEDFF8641754
:104860004860B6F91C0001F05DF800F0BDFBDFF810
:104870004C27DFF84C3700F0EFFB0022DFF834372D
:1048800001F052F900F0EEFDDFF8381788602300E0
:10489000DBB2DFF83027DFF81017DFF81C0701F074
:1048A000FAFEDFF8140700683062DFF80C07406892
:1048B0007062DFF804078068B062DFF8EC06006819
:1048C000F062DFF8E40640683063DFF8DC068068F9
:1048D0007063DFF8F0060068B063DFF8E806406850
:1048E000F063DFF8E0068068306455E3300000F0E4
:1048F000E5FF16F1180000F0FBFFB6F9000001F02B
:1049000011F8DFF89C1601F025F8DFF8981601F091
:104910008DF8DFF894160860B6F9020001F002F88D
:10492000DFF87C1601F016F8DFF8781601F07EF853
:10493000DFF874164860B6F9040000F0F3FFDFF802
:10494000601601F007F8DFF85C1601F06FF8DFF889
:1049500058168860B6F9060000F0E4FF00F044FB4A
:10496000DFF84826DFF8483600F076FB0022DFF853
:10497000443601F0D9F800F075FDDFF83C16086008
:10498000B6F9080000F0CEFF00F02EFBDFF81C2681
:10499000DFF81C3600F060FB0022DFF8183601F06B
:1049A000C3F800F05FFDDFF810164860B6F90A00A2
:1049B00000F0B8FF00F018FBDFF8F025DFF8F03565
:1049C00000F04AFB0022DFF8EC3501F0ADF800F012
:1049D00049FDDFF8E4158860B6F9180000F0A2FF81
:1049E00000F002FBDFF8D425DFF8D43500F034FB0B
:1049F0000022DFF8C03501F097F800F033FDDFF852
:104A0000C4150860B6F91A0000F08CFF00F0ECFA4B
:104A1000DFF8A825DFF8A83500F01EFB0022DFF83C
:104A2000943501F081F800F01DFDDFF8981548601D
:104A3000B6F91C0000F076FF00F0D6FADFF87C250E
:104A4000DFF87C3500F008FB0022DFF8683501F064
:104A50006BF800F007FDDFF86C1588602300DBB20F
:104A6000DFF86025DFF84015DFF84C0501F013FE94
:104A70002300DBB2DFF84C25DFF82C15DFF8380512
:104A8000FEF7F1FB2300DBB2DFF83C25DFF83C1535
:104A9000DFF83C05FEF77AFDDFF834050068306288
:104AA000DFF82C0540687062DFF824058068B0628A
:104AB000DFF818050068F062DFF810054068306321
:104AC000DFF8080580687063DFF8FC040068B063F5
:104AD000DFF8F4044068F063DFF8EC0480683064C9
:104AE000DFF8E8040168DFF8EC0400F033FFDFF8DA
:104AF000DC140860DFF8D4044168DFF8D80400F063
:104B000029FFDFF8C8144860DFF8C0048168DFF8C7
:104B1000C40400F01FFFDFF8B4148860DFF8B82485
:104B2000DFF8A814DFF8A80402F038FDDFF89804D5
:104B30000168DFF89404006800F00CFF0400DFF85F
:104B400088044168DFF88004406800F003FF21001A
:104B500002F070FF0400DFF870048168DFF8680479
:104B6000806800F0F7FE210002F064FF00F03CFADC
:104B700002F0A2FF00F076FCDFF860140860DFF8B6
:104B800048040068DFF85414096800F04FFFDFF8AC
:104B900038140860DFF830044068DFF84014096812
:104BA00000F044FFDFF820144860DFF81C04806840
:104BB000DFF82814096800F039FFDFF80C1488606A
:104BC000DFF81404D0E90023DFF80C44D4E9000135
:104BD00000F042FA04000D00DFF8FC03D0E90223E4
:104BE000DFF8F473D7E9020100F036FA02000B0097
:104BF0002000290000F076FB04000D00DFF8D80348
:104C0000D0E90423DFF8D073D7E9040100F024FAD7
:104C100002000B002000290000F064FB04000D00DE
:104C2000DFF8B403D0E90623DFF8AC73D7E9060157
:104C300000F012FA22002B0000F0E0FA02000B0054
:104C400014001D00DFF89003D0E90423DFF8887317
:104C5000D7E9060100F000FA80468946DFF878239C
:104C6000D2E90001DC4FD7E9022300F0F5F9424612
:104C70004B4600F0C3FA00225FF0804300F0ECF9ED
:104C800022002B0002F090FFC6E91201D248D0E9C1
:104C90000023D14CD4E9040100F0DEF904000D003A
:104CA000CD48D0E90223CC4FD7E9060100F0D4F972
:104CB00002000B002000290000F014FB00225FF02E
:104CC000804300F0C9F904000D00C348D0E9002377
:104CD000C14FD7E9000100F0BFF980468946BE4ABE
:104CE000D2E90201BC4FD7E9022300F0B5F94246F0
:104CF0004B4600F083FA80468946B74AD2E9040160
:104D0000B54FD7E9042300F0A7F942464B4600F01F
:104D100075FA80468946B04AD2E90601AE4FD7E916
:104D2000062300F099F942464B4600F067FA02006C
:104D30000B002000290000F0F7FE02F09BFFC6E9FF
:104D40001401D6E9140103F010F8CDE90801D6E901
:104D5000140103F00DF8CDE90601D6E9120103F0C4
:104D600007F8CDE90401D6E9140103F001F8CDE913
:104D70000201D6E9120102F0F8FF82468B46D6E91D
:104D8000120102F0F2FF80468946D6E9120102F0D4
:104D9000EFFF04000D008C48006800F025F9DDE904
:104DA000082300F059F9CDE900018748406800F078
:104DB0001BF9DDE9062300F04FF9DDE9042300F0DB
:104DC0004BF9DDE9002300F019FACDE900017E4836
:104DD000806800F009F9DDE9022300F03DF9524650
:104DE0005B4600F039F9DDE9002300F007FA020024
:104DF0000B0092469B467448406890F0004000F0DB
:104E0000F3F842464B4600F027F9804689466E4843
:104E1000806800F0E9F822002B0000F01DF94246FE
:104E20004B4600F0EBF952465B4602F0BDFEC6E988
:104E30001601B1E0B0E0300000F040FDB6F900002E
:104E400000F070FD564900F085FD564900F0EEFD7A
:104E500055490860B6F9020000F064FD504900F0C1
:104E600079FD504900F0E2FD4F494860B6F9040071
:104E700000F058FD4A4900F06DFD4A4900F0D6FDAA
:104E80004949886048480068F06247484068306394
:104E90004548806870637FE0300000F00FFDB6F990
:104EA000060000F03FFD00F09FF8404A404B00F044
:104EB000D3F800223F4B00F037FE00F0D3FA3E4912
:104EC0000860B6F9080000F02DFD00F08DF8374AB3
:104ED000374B00F0C1F80022364B00F025FE00F001
:104EE000C1FA35494860B6F90A0000F01BFD00F030
:104EF0007BF82E4A2E4B00F0AFF800222D4B00F02D
:104F000013FE00F0AFFA2C4988602B48006830622D
:104F100029484068706228488068B0623CE016F119
:104F2000180000F0E5FCB6F9180000F0FBFC90F06A
:104F3000004000F059F82A4A2A4B00F08DF800F0A2
:104F400091FA20490860B6F91A0000F0EBFC90F0E5
:104F5000004000F049F8224A224B00F07DF800F0B2
:104F600081FA18494860B6F91C0000F0DBFC90F0AB
:104F7000004000F039F81A4A1A4B00F06DF800F0C2
:104F800071FA104988600F480068B0630D484068A6
:104F9000F0630C48806830640BB0BDE8F08F00000F
:104FA00000008CC200007A44E80C002008AC1C5AB7
:104FB000643BCFBF00408F40DC0C00208FC2F5283F
:104FC0005C8FD2BFF40C0020180D00200C0D0020C7
:104FD000000D002033FA8E3CC8010020980D0020FF
:104FE0001A170E846401333F5FF0FF0C1CEAD051A6
:104FF00014BF614506E0C110400721F0E04101F116
:105000006051704779B900F0004100020AD0B0FA4F
:1050100080FC00FA0CF001F16051A1EB0C5101EBA6
:10502000D0214005704741020CBF40F4E0016FF011
:1050300000010020704750F8041B61B150F8042BA8
:10504000D30744BFA9F101039A18002342F8043B97
:10505000091FFAD1EFE77047B0B581EA030C0CF0F5
:10506000004C40F2FF7515EA11541DBF15EA1357A5
:10507000AC42AF4239E0E41923EA455343F48013CC
:10508000C90241F0004141EA505EC7021100A7FB8E
:10509000020200284FF00000EEFB01204FF000015B
:1050A000E3FB072118BF42F00102401800214941EB
:1050B000E3FB0E01A4F580640F0302D252004041CD
:1050C000494154F101046CDD470872F1004250F18E
:1050D000000051EB0451A1F580115CBF41EA0C01C5
:1050E000B0BD4CEA05510020B0BD05EA1357AC42F3
:1050F00014BFAF4241E050EA410E1CBF52EA430EDA
:1051000002E061460020B0BD24423C441BD15FEA6E
:10511000070EF6D0090302BF01460020AEF1140EBF
:10512000B1FA81F7AEEB070401FA07FE0C37C7F1BD
:10513000200100FA07F7C8404EEA000E23EA455363
:1051400043F48013A2E733F00043B3FA83F704BFBC
:10515000B2FA82FE77440B3FE41BB7F1200E2FBF5B
:1051600002FA0EF3BB40C7F1200E22FA0EFE38BF42
:1051700043EA0E03BA40641C82E750EA410E14BFB2
:1051800052EA430E6FF000014FF4001717EB430F84
:105190008ABF194617EB410FB5E74CEA05510020CD
:1051A000B0BDD4F10104B4F120070FDAC4F1200737
:1051B000520828BF42F0010210FA07F501FA07F77A
:1051C000E1BF2A43E0403843E1400FE0352C98DC52
:1051D000C7F1200452EA400220FA07F218BF42F059
:1051E000010231FA07F0A1400A43002172F10042A6
:1051F00050F1000051EB0C01B0BDFEE770B44FF070
:10520000004591EA030C44BF6B4000F075B800BF45
:10521000841A71EB030603D2001BB14112197341CA
:105220004FF4001C1CEB410F34BF7CEB430443E004
:105230000C0DA4EB1356352E50DC45EAC323DB0AD4
:1052400045EAC121C912B6F120050DDD63FA05F664
:10525000EB4086EA0305124218BF45F00105C0186D
:1052600051F100010CD213E062FA06F5F24055400C
:10527000F3415A40B340F3405A408018594107D394
:1052800049085FEA30005FEA350528BF45F00105AF
:1052900001F58011420875F1004250F1000041EB28
:1052A000045170BC4FF4001C1CEB410F38BF704719
:1052B0000020090D090570471CEB410F10D252EA7E
:1052C00043060BD0BCEB410F05D80C0DAB43661E5B
:1052D000342EB5DD02E0AB438018594170BC7047F5
:1052E00070BC704770B44FF0004591EA030F44BFA3
:1052F0006B40FFF78DBF00BF841A71EB030604D229
:105300006E40001BB141121973414FF4001C1CEB9D
:10531000410F34BF7CEB430684E00C0DA4EB135625
:10532000362E7DDC012E43DC45EAC32343EA52538B
:1053300012BFD20292025B08240545EAC12141EA6C
:105340005051D2EBC020994125D407D1B0FA80F654
:1053500010FA06F164D00020203608E0B1FA81F698
:10536000B140C6F1200220FA02F21143B0404FEAE8
:10537000F474B4EB465434F001064FEA74040AD8CE
:10538000D6F50016760D04F00044F04061FA06F2FE
:105390005040F1404840C00A40EA415021F00041ED
:1053A00028BF5FEA500550F1000044EBD12137E0FF
:1053B00045EAC323DB0A45EAC121C90AB6F1200543
:1053C0000EDD42EA0242120CC5F1200603FA06F68F
:1053D000EB4042EA06056D42984161F100010DE0A3
:1053E00062FA06F5F240554063FA06FC82EA0C02C6
:1053F000F3405A406D42904161EB030111F4801F6C
:1054000005D1641E620502D06D004041494121F47E
:105410008011430875F1004350F1000041EB045145
:1054200070BC70471CEB410F15D223F0004352EAC9
:1054300043060BD04FEA4C0CBCEB410F04D80C0DCB
:10544000661E342EB7DDEBE7801A994150EA41061B
:1054500008BF0021E4E708BF1CEB430F28BF6FF033
:105460000001DDE74FEAF17CBCF1E04C2CBFBCF55C
:10547000001F11E05FEA4C0C34BFBCF17F5F2EE0EF
:105480005FEA9C0C4FEA0C1C4FEA3C0CC10071F126
:1054900000414CEB50707047C90241EA5051C002C4
:1054A00018BF41F0010141F000414FEA6C50C0F1DA
:1054B0000900212810D240EACC7CCCF1200C11FA52
:1054C0000CF070F10040CCF1200C21FA0CF00CF043
:1054D000004C40EB0C0070474FEACC70704749001D
:1054E00011F5001F04D84FEACC10FF30C0057047FB
:1054F000C817704730B58BB00C0015000121012092
:1055000002F04EFD7B48009001940020029003952C
:105510000020049080200590002006900020079035
:10552000002008904FF44050099000200A9000217C
:10553000714802F0E8FD00A96F4802F0C5FD0121A5
:105540006D4802F0E0FD0BB030BDF8B504000D0071
:1055500016001F005FF40031684802F007FF0028C2
:10556000F8D10121654802F0B1FE6549634802F0B7
:10557000E5FE0028F9D000222100C9B25F4802F000
:10558000D2FE60495D4802F0D9FE0028F9D0310012
:10559000C9B25A4802F0C4FE5B49584802F0CEFE38
:1055A0000028F9D000240BE0E4B2615D534802F01A
:1055B000B7FE5549514802F0C1FE0028F9D0641CDD
:1055C000E4B2FFB2BC42EFD301214C4802F08CFEA2
:1055D000F1BDF0B583B004000D0016001F000020DF
:1055E0000190002000905FF40031444802F0BEFEBC
:1055F0000028F8D10121414802F068FE40493F48A7
:1056000002F09CFE0028F9D000222100C9B23B48DC
:1056100002F089FE3B49394802F090FE0028F9D09B
:105620000121364802F036FE3100C9B2334802F09B
:1056300077FE3549314802F081FE0028F9D0BFB22B
:105640003A0029002D48FFF755FF3048008850F4F4
:1056500080502E4908800121284802F029FE4FF68B
:10566000FF7000900121254802F030FE24492348B4
:1056700002F064FE0028F9D00098411E0091002835
:1056800036D04FF6FF70009001222100C9B21B48AE
:1056900002F049FE1E49194802F050FE0028F9D0D8
:1056A0000098411E0091002822D01A48008880B23C
:1056B00001905FF4003002F033FD0028F9D00021A2
:1056C0000D4802F020FD5FF4003002F03AFD0021A9
:1056D0000A4802F017FE0121084802F005FE0748BB
:1056E000008880B28005FAD40121044802F00AFE45
:1056F000F7BD00001058004058000240005800401C
:1057000001000300820007008400070004580040E5
:10571000020003001858004080B500218DF80210E7
:1057200000218DF8011000218DF800109DF8021065
:10573000427811438DF802109DF8011002788378A9
:105740001A4311438DF801109DF80010C0780843EA
:105750008DF8000001231F220DF10201D420FFF774
:10576000F4FE012320220DF10101D420FFF7EDFE0C
:105770000123212200A9D420FFF7E7FE01BD80B557
:1057800000218DF8021000218DF8011000218DF804
:1057900000109DF80210027883781A4311438DF8A7
:1057A00002109DF80110C27811438DF801109DF888
:1057B0000010407808438DF80000012310220DF1FD
:1057C0000201D420FFF7C1FE012312220DF10101D5
:1057D000D420FFF7BAFE01231E2200A9D420FFF730
:1057E000B4FE01BD80B500218DF800109DF80010B9
:1057F000027843781A438078104308438DF80000FC
:105800000123222200A9D420FFF79FFE01BD00B58D
:1058100083B000218DF8041000218DF803100021C1
:105820008DF8021000218DF8011000218DF8001074
:105830009DF80410827803791A4311438DF80410FF
:105840009DF80310C27811438DF803109DF80010E5
:10585000027843781A4311438DF800109DF8021026
:105860004279C3791A4311438DF802109DF8011053
:10587000807908438DF801000123202201A93820F6
:10588000FFF763FE012321220DF103013820FFF70A
:105890005CFE0123222200A93820FFF756FE0123D7
:1058A00023220DF102013820FFF74FFE01232422AD
:1058B0000DF101013820FFF748FE07BD10B584B097
:1058C00004000C23182200A9D420FFF782FE002038
:1058D0000BE000A911EB4001497800AA12F8102052
:1058E00012EB012124F81010401C0628F1DB1FBD2B
:1058F0001CB504000623282200A93820FFF769FE02
:1059000000200BE000A911EB4001497800AA12F831
:10591000102012EB012124F81010401C0328F1DBA9
:1059200013BD0000002840F10780F446404200F01B
:1059300003F850F0004060470AD0B0FA80F1884088
:10594000D1F19D01C905020672F1004241EB102020
:1059500070470000FF2212EAD05C1DBF12EAD1534B
:10596000944593422BE09C44D30780EA01021A40FD
:1059700043EA002043EA0121A1FB0030410038BF87
:1059800040007CF17F010BDBFE294ADA5B0842EA2A
:10599000C15153EA006373F1004C51EB1020704782
:1059A000D1F1080CDCF120012FDB5B0810FA01F1CA
:1059B0000B4373F1004120FA0CF0504170479445BD
:1059C0001CBF02EAD153934280EA010202F0004276
:1059D0001DD0400019D0490017D05BB9634514D0E1
:1059E0000902B1FA81F39940BCEB030CC00140F00D
:1059F0000040C1E70002B0FA80FC10FA0CF0B3EBF3
:105A00000C0CC90141F00041B6E71000704740009E
:105A10000AD0490008D010F1807F94BF11F1807F37
:105A200002E042F0FF407047D043704710B5FF23BB
:105A300013EAD0541DBF13EAD1529C429A4239E076
:105A4000A41ADA0780EA0103134042EA012142EA7C
:105A50000020421A3CBF641E01EB4202090AB2FB5D
:105A6000F1FE01FB1E221202B2FBF1F001FB10223B
:105A70006EF30F201202B2FBF1FE4EEA00207F34DB
:105A800006DDFE2C24DA53EA500050EBC45010BD62
:105A9000D4F1020401FB1E2240F08071192C1DDCA0
:105AA00021FA04F0C4F12004A140114371F1004235
:105AB000584110BD9C421ABF03EAD1529A420FE0EE
:105AC00080EA010E0EF00043400004D0490016D1D8
:105AD00043F0FF4010BD490008BFD343180010BD7C
:105AE0009C4205D1D21AF7D001F00041484010BDC8
:105AF0004A0212BF0846484000F0004010BD4AB9B3
:105B00000902B1FA81F2914044B1A418C00140F0F9
:105B100000409EE7C90141F0004152420002B0FA44
:105B200080F4A040141B94E7F0B540F2FF7581EAC1
:105B3000030C0CF0004C15EA11541DBF15EA135765
:105B4000AC42AF42E5E0BC41C1F31301C3F3130320
:105B5000801A994143F4801304D2641E40004941E5
:105B600080185941C90241EA5051B1FBF3F603FBD9
:105B70001611A2FB0675D7EBC020A94102D2761EF2
:105B800080185941C90241EA5051B1FBF3FE03FBB1
:105B90001E11A2FB0E75D7EBC020A94103D2AEF1B6
:105BA000010E80185941890241EA9051760546EA72
:105BB0008E2EB1FBF3F603FB1611A2FB0675D7EB95
:105BC0008020A94102D2761E80185941C90241EABB
:105BD00050514EEA060EB1FBF3F603FB1611A2FB81
:105BE0000675D7EBC020A94102D2761E8018594114
:105BF000C90241EA5051B1FBF3F703FB1711A2FBB5
:105C00000735D3EBC020A94167F100070CBF004264
:105C100047F0010766F3D5274FEA1E31B80814F59F
:105C2000806412DDBD0775F1004250EB0E5051EB60
:105C3000045111F5801F5CBF41EA0C01F0BD4CF02E
:105C40007F6141F0E0410020F0BDBD076D0840EAF2
:105C50000E5041F48011D4F10104B4F120060ADAA7
:105C6000C4F120060200E04001FA06F3E1401843C7
:105C7000B24015430EE0342C13DCC6F1200445EA93
:105C800040056D0820FA06F2154321FA06F0A140FE
:105C90000D43002175F1004250F1000051EB0C0161
:105CA000F0BD00205FEA0C01F0BDCFB992185B4156
:105CB000B3FA83F704BFB2FA82F6BF190B3FB7F10C
:105CC00020062FBF02FA06F3BB40C7F1200622FAD6
:105CD00006F638BF3343BA401CB1E419641E33E7FB
:105CE0007F4231F00041B1FA81F404BFB0FA80F68E
:105CF000A4190B3CB4F120062FBF00FA06F1A14015
:105D0000C4F1200620FA06F638BF3143A0403C1B00
:105D10001AE7AC421ABF05EA1357AF4212E050EA45
:105D200041061CBF52EA4306BFE750EA410730462E
:105D300061461CBF41EA0551F0BD52EA430C08BF61
:105D4000C143F0BD00204FF4001616EB410F98BF81
:105D500016EB430F08BF16EB410F24BFC14305E00C
:105D600016EB430F0CBF61464CEA0551F0BD000035
:105D7000BFF34F8FDFF8740B006810F4E060DFF8BA
:105D8000701B0843DFF8641B0860BFF34F8FFEE70A
:105D900080B50222DFF85C1BDFF85C0B02F007FB2A
:105DA00002F028FBDFF8500B0088002809D0DFF84C
:105DB000480B0088022804D0DFF83C0B0088082834
:105DC0000EDBDFF8300B02F029FB042843D1002161
:105DD000DFF8200B02F054FBDFF8201B08703AE0DC
:105DE000DFF8140B008803280ED1DFF8080B02F04F
:105DF00015FB04282FD10121DFF8F80A02F040FB3F
:105E0000DFF8F81A087026E0DFF8EC0A00880628A8
:105E10000ED1DFF8E00A02F001FB04281BD10421B7
:105E2000DFF8D00A02F02CFBDFF8D01A087012E07D
:105E3000DFF8C40A008807280DD1DFF8B80A02F09D
:105E4000EDFA042807D10521DFF8A80A02F018FBB3
:105E5000DFF8A81A087002F0D8FAFFF789FF01BD31
:105E600080B50222DFF88C1ADFF88C0A02F09FFA64
:105E700002F0C0FADFF8800A0088002809D0DFF8B5
:105E8000780A0088012804D0DFF86C0A0088082806
:105E90000EDBDFF8600A02F0C1FA042843D10021CA
:105EA000DFF8500A02F0ECFADFF8501A08703AE016
:105EB000DFF8440A008803280ED1DFF8380A02F020
:105EC000ADFA04282FD10221DFF8280A02F0D8FA0F
:105ED000DFF8281A087026E0DFF81C0A0088052879
:105EE0000ED1DFF8100A02F099FA04281BD1042120
:105EF000DFF8000A02F0C4FADFF8001A087012E0B6
:105F0000DFF8F409008807280DD1DFF8E80902F06E
:105F100085FA042807D10621DFF8D80902F0B0FA83
:105F2000DFF8D819087002F070FAFFF721FF01BD01
:105F300080B50222DFF8BC19DFF8BC0902F037FA9D
:105F400002F058FADFF8B0090088002809D0DFF81D
:105F5000A8090088042804D0DFF89C0900880828D4
:105F60000EDBDFF8900902F059FA042843D1002132
:105F7000DFF8800902F084FADFF8801908703AE04F
:105F8000DFF87409008805280ED1DFF8680902F0EF
:105F900045FA04282FD10121DFF8580902F070FAE0
:105FA000DFF85819087026E0DFF84C090088062849
:105FB0000ED1DFF8400902F031FA04281BD102218A
:105FC000DFF8300902F05CFADFF83019087012E0EF
:105FD000DFF82409008807280DD1DFF8180902F03E
:105FE0001DFA042807D10321DFF8080902F048FA56
:105FF000DFF80819087002F008FAFFF7B9FE01BDD2
:1060000038B5002400251BE0022205F1006111F5DE
:10601000FD21DFF8EC0810EB440002F0C8F9DFF8CE
:10602000E00830F9140000B2FFF77CFCDFF8D41868
:10603000FFF7FCFCDFF8D01841F82400641CAD1C0D
:10604000052DE1DB31BD38B500210BE010EB41023D
:10605000527810F8113013EB0222DFF8B03823F831
:106060001120491C0329F1DB0222DFF88818DFF830
:10607000880802F09CF902F0BDF90024DFF87808E6
:106080000088002809D0DFF870080088012804D0B3
:10609000DFF86408008808280EDBDFF8580802F0F3
:1060A000BDF9042852D10121DFF8480802F0E8F9CF
:1060B000DFF84818087049E0DFF83C08008802283B
:1060C00004D0DFF83408008803280ED1DFF8240854
:1060D00002F0A4F9042839D10321DFF8180802F0EE
:1060E000CFF9DFF81818087030E0DFF80C080088E6
:1060F000042804D0DFF80008008805280ED1DFF856
:10610000F40702F08BF9042820D10521DFF8E40719
:1061100002F0B6F9DFF8E417087017E0DFF8D807E7
:106120000088062804D0DFF8D007008807280DD1A2
:10613000DFF8C00702F072F9042807D10721DFF861
:10614000B40702F09DF9DFF8B4170870DFF8C00754
:1061500002F064F9042818D1002500E0AD1C052DDB
:1061600013DADFF8A80730F8141005F1006010F515
:10617000FD2002F085F9DFF884170870641CDFF851
:106180007C0700780028E9D1FEE7002402F03DF901
:10619000FFF7EEFD31BD38B5002400251BE00222DB
:1061A00005F1006111F5FC21DFF8680710EB4400F0
:1061B00002F0FDF8DFF85C0730F9140000B2FFF7D9
:1061C000B1FBDFF85417FFF731FCDFF8501741F847
:1061D0002400641CAD1C172DE1DB31BD38B5002156
:1061E0000BE010EB4102527810F8113013EB022251
:1061F000DFF82C3723F81120491C0C29F1DB02228F
:10620000DFF8F016DFF8F00602F0D1F802F0F2F84D
:106210000024DFF8E4060088002809D0DFF8D8065B
:106220000088022804D0DFF8D006008808280EDB9A
:10623000DFF8C00602F0F2F8042852D10221DFF89C
:10624000B40602F01DF9DFF8B416087049E0DFF873
:10625000A8060088012804D0DFF89C0600880328DF
:106260000ED1DFF8900602F0D9F8042839D10321C5
:10627000DFF8800602F004F9DFF88016087030E0DD
:10628000DFF874060088042804D0DFF86C06008864
:1062900006280ED1DFF85C0602F0C0F8042820D1F1
:1062A0000621DFF8500602F0EBF8DFF85016087010
:1062B00017E0DFF844060088052804D0DFF8380628
:1062C000008807280DD1DFF82C0602F0A7F8042873
:1062D00007D10721DFF81C0602F0D2F8DFF81C1600
:1062E0000870DFF8400602F099F8042818D100255C
:1062F00000E0AD1C172D13DADFF8240630F8141077
:1063000005F1006010F5FC2002F0BAF8DFF8EC159A
:106310000870641CDFF8E40500780028E9D1FEE786
:10632000002402F072F8FFF723FD31BD38B50024D8
:1063300000251BE0022205F1006111F5FB21DFF8C9
:10634000E80510EB440002F032F8DFF8DC0530F924
:10635000140000B2FFF7E6FADFF8BC15FFF766FBA2
:10636000DFF8C81541F82400641CAD1C0C2DE1DBDE
:1063700031BD38B500210BE010EB4102527810F826
:10638000113013EB0222DFF8A83523F81120491C45
:106390000629F1DB0222DFF85C15DFF85C0502F06C
:1063A00006F802F027F80024DFF84C0500880028E2
:1063B00009D0DFF844050088042804D0DFF8380548
:1063C000008808280EDBDFF82C0502F027F80428E7
:1063D00052D10421DFF81C0502F052F8DFF81C1539
:1063E000087049E0DFF810050088012804D0DFF8C4
:1063F0000805008805280ED1DFF8F80402F00EF831
:10640000042839D10521DFF8EC0402F039F8DFF86F
:10641000EC14087030E0DFF8E0040088022804D0B3
:10642000DFF8D404008806280ED1DFF8C80401F094
:10643000F5FF042820D10621DFF8B80402F020F887
:10644000DFF8B814087017E0DFF8AC040088032800
:1064500004D0DFF8A404008807280DD1DFF89404E5
:1064600001F0DCFF042807D10721DFF8880402F0DF
:1064700007F8DFF888140870DFF8B80401F0CEFFE1
:10648000042818D1002500E0AD1C0C2D13DADFF82C
:10649000A00430F8141005F1006010F5FB2001F0A5
:1064A000EFFFDFF858140870641CDFF85004007820
:1064B0000028E9D1FEE7002401F0A7FFFFF758FC10
:1064C00031BD0FB400B583B0002005E004A9411828
:1064D000C97A00AA8154401C0628F7DBDFF858046B
:1064E0000121017000A8FFF7AEFD07BC5DF814FBA9
:1064F0000FB410B500200021079C210007E002AA7C
:106500008218D27ADFF83434CA54401C491C14F182
:1065100008029142F3DB0C00182C07D1DFF82004AD
:1065200001210170DFF81404FFF758FE200010BCB1
:106530005DF814FB0FB410B500200021079C21006A
:1065400007E002AA8218D27ADFF8F833CA54401C56
:10655000491CA21D9142F4DB0C000C2C07D1DFF882
:10656000E80301210170DFF8DC03FFF702FF2000E0
:1065700010BC5DF814FB80B50222DFF87813DFF859
:10658000780301F014FFDFF870030088082803DBAC
:10659000DFF8640300210180DFF85C030088002835
:1065A0000BD0022825D015D304283CD02DD30628A3
:1065B00053D044D307285ED06CE0DFF87C03002181
:1065C0000170DFF87C0300210170DFF87C030021FB
:1065D00001705FE0DFF8600301210170DFF8600304
:1065E00000210170DFF8600300210170FFF708FD52
:1065F00050E0D14800210170D14801210170D248FA
:1066000000210170FFF7C7FD44E0CB480121017074
:10661000CB4801210170CC4800210170FFF7F0FC4C
:10662000FFF7B9FD36E0C44800210170C4480021DD
:106630000170C54801210170FFF778FE2AE0BE48CD
:1066400001210170BE4800210170BF480121017085
:10665000FFF7D6FCFFF76AFE1CE0B7480021017087
:10666000B74801210170B84801210170FFF793FD7F
:10667000FFF75CFE0EE0B04801210170B048012137
:106680000170B14801210170FFF7BAFCFFF783FDEB
:10669000FFF74CFE01BD2DE9F04107000C0015008D
:1066A0001E00A7480078002854D1A848016838681F
:1066B000FFF750F98046A64801687868FFF74AF965
:1066C000414601F0B7F98046A2480168B868FFF773
:1066D00041F9414601F0AEF99F49096801F0AAF974
:1066E00038609E4801683868FFF734F980469C4856
:1066F00001687868FFF72EF9414601F09BF9804662
:1067000098480168B868FFF725F9414601F092F909
:106710009549096801F08EF97860944801683868F5
:10672000FFF718F98046924801687868FFF712F978
:10673000414601F07FF980468E480168B868FFF74E
:1067400009F9414601F076F98B49096801F072F9BF
:10675000B86057E07A480078012853D16F48016843
:106760003868FFF7F7F880466C4841687868FFF7AB
:10677000F1F8414601F05EF9804668488168B868E2
:10678000FFF7E8F8414601F055F96449496A01F01C
:1067900051F938606148C1683868FFF7DBF8804616
:1067A0005E4801697868FFF7D5F8414601F042F983
:1067B00080465A484169B868FFF7CCF8414601F075
:1067C00039F95649896A01F035F978605348816989
:1067D0003868FFF7BFF880465048C1697868FFF70E
:1067E000B9F8414601F026F980464C48016AB8687C
:1067F000FFF7B0F8414601F01DF94849C96A01F0B8
:1068000019F9B8604C480078002812D120685B491B
:10681000096801F0A7FE206060685949096801F025
:10682000A1FE6060A0685749096801F09BFEA06066
:1068300011E04148007801280DD1002709E054F803
:106840002700314951F8271001F08CFE44F8270049
:106850007F1C032FF3DBF6B2022E44D03A480078B7
:1068600000281ED128684849096801F07BFE474985
:106870000968FFF7DBF8286068684549096801F096
:1068800071FE44490968FFF7D1F86860A868424979
:10689000096801F067FE41490968FFF7C7F8A86079
:1068A00021E02948007801281DD128681F4909687E
:1068B00001F058FE1D49C968FFF74CF82860686868
:1068C0001A49496801F04EFE18490969FFF742F874
:1068D0006860A8681549896801F044FE1349496950
:1068E000FFF738F8A860BDE8F08100000CED00E08B
:1068F0000400FA0500F00708E80D0020ED0D002067
:10690000500D002000007A44D00C0020580D0020CB
:1069100000E80708A80A00200000C842080A002072
:10692000C00A002000E00708AC0C0020F00A00209C
:10693000B80C002000D80708EA0D0020D80A002073
:10694000EB0D0020C40C0020EC0D0020F80100200D
:10695000680D00206C0D0020240D0020700D00201B
:10696000FC010020740D0020600D0020780D002037
:106970007C0D002000020020640D0020800D00200E
:10698000840D0020880D00208C0D002004020020C2
:10699000900D002008020020940D00200C02002021
:1069A0002DE9F04192B080460E0000240025012E12
:1069B00001D1D8E90045022E1AD1D8E90823D8E937
:1069C0000001FEF749FB04000D00D8E90223D8E9D5
:1069D0000601FEF741FB02000B0020002900FEF734
:1069E00081FC04000D002000290012B0BDE8F081F8
:1069F000002713E0711E00A8FFF7D2FF182202FB48
:106A0000078CDCE90023FEF727FB02000B002000C7
:106A10002900FEF767FC04000D007F1CB742E2DA94
:106A2000002200E0521C701E82421DDA002314E096
:106A3000511C581C5FF0180C0DF1000E0CFB02EC01
:106A40001CEBC30C5FF0180E0EFB018111EBC00EA6
:106A5000DEE90001CCE900015B1C701E8342E1DA33
:106A6000BA42E5DA1100E4E7022097FBF0F101FBFE
:106A700010710029BED1711E00A8FFF791FF1822E6
:106A800002FB078CDCE90023FEF7E6FA22002B006C
:106A9000FEF7B4FB04000D00BFE72DE9F04393B00F
:106AA00004000D0000270026A9460020060000E093
:106AB000761CAE4254DA002712E01820DFF8B01A34
:106AC00000FB071010EBC608691E00A8FFF768FF5F
:106AD0000022DFF8A03AFEF7BFFAC8E900017F1CE8
:106AE000AF42E5DA002200E0521C681E824221DA41
:106AF000002313E0581C5FF0180C0DF1000E0CFB86
:106B000002EC1CEBC30C5FF0180E0EFB014111EB05
:106B1000C00EDEE90001CCE900015B1C681E834267
:106B2000E2DABA4201DA110000E0511CB342E1DAC4
:106B30001800E0E7F019022190FBF1F202FB1102CC
:106B4000002ABAD11820DFF8281A00FB071010EB32
:106B5000C608691E00A8FFF723FFC8E90001BEE7C9
:106B6000002015E01822DFF8103A02FB013212EB88
:106B7000C0021823DFF8F84903FB004313EBC103FD
:106B8000D3E90045C2E90045491C4945EADB401C00
:106B9000484501DA0021F8E713B0BDE8F08370B58D
:106BA0000400002554E0DFF8D40910EB4510D0E9CB
:106BB0000023D4E90001FEF74FFADFF8C429C2E947
:106BC0000001DFF8B80910EB4510D0E90223D4E941
:106BD0000201FEF741FADFF8AC29C2E90001DFF853
:106BE0009C0910EB4510D0E90423D4E90401FEF719
:106BF00033FADFF89429C2E90001DFF8800910EBCD
:106C00004510D0E90623D4E90601FEF725FADFF89E
:106C10007C29C2E90001DFF86809D0E90023DFF828
:106C20006469D6E90001FEF7E9FADFF85C69D6E9A4
:106C30000023FEF7E3FADFF85469D6E90023FEF7F4
:106C4000DDFADFF88C2D12EBC502C2E900016D1CE4
:106C5000042DA8DB70BDF0B5002469E0DFF81C0945
:106C600010EB4512D2E90001DFF8242912EBC4062B
:106C7000D6E90023FEF7F0F9DFF80429C2E90001A4
:106C8000DFF8F80810EB4512D2E90201DFF800291D
:106C900012EBC406D6E90823FEF7DEF9DFF8E42894
:106CA000C2E90001DFF8D40810EB4512D2E9040173
:106CB000DFF8DC2812EBC406D6E91023FEF7CCF986
:106CC000DFF8C428C2E90001DFF8B00810EB451274
:106CD000D2E90601DFF8B82812EBC406D6E918237A
:106CE000FEF7BAF9DFF8A428C2E90001DFF8A4082A
:106CF00010EB451010EBC407DFF88428D2E900013F
:106D0000DFF88068D6E90023FEF778FADFF87868C4
:106D1000D6E90023FEF772FADFF87068D6E900239F
:106D2000FEF76CFAC7E900016D1C042D96DB641CAC
:106D3000042C01DA0025F8E7002013E0DFF85828DA
:106D400012EB411212EBC002DFF8303813EB4013A4
:106D500013EBC103D3E90045C2E90045491C0429EE
:106D6000ECDB401C042801DA0021F8E7002469E08C
:106D7000DFF8200810EB4512D2E90001DFF81828EF
:106D800012EBC406D6E90023FEF766F9DFF8F02718
:106D9000C2E90001DFF8FC0710EB4512D2E902015D
:106DA000DFF8F42712EBC406D6E90823FEF754F9FE
:106DB000DFF8D027C2E90001DFF8D80710EB451251
:106DC000D2E90401DFF8D02712EBC406D6E910237C
:106DD000FEF742F9DFF8B027C2E90001DFF8B40797
:106DE00010EB4512D2E90601DFF8AC2712EBC4061E
:106DF000D6E91823FEF730F9DFF89027C2E9000141
:106E0000DFF8D00B10EB451010EBC407DFF870274C
:106E1000D2E90001DFF86C67D6E90023FEF7EEF94E
:106E2000DFF86467D6E90023FEF7E8F9DFF85C676E
:106E3000D6E90023FEF7E2F9C7E900016D1C042D35
:106E400096DB641C042C01DA0025F8E700241DE021
:106E5000DFF8840B10EB451010EBC406DFF8740B61
:106E600010EB451010EBC402D2E90001DFF86C2BE7
:106E700012EB451212EBC407D7E90023FEF7BEF967
:106E8000C6E900016D1C042DE2DB641C042C01DA50
:106E90000025F8E7F0BD2DE9F04104008846002206
:106EA00012E01820DFF8381B00FB031010EBC205BE
:106EB00014EB421010EBC306D6E90001C5E900014E
:106EC0005B1C042BEDDB521C032A01DA0023F8E7DC
:106ED00000256AE0DFF8000B10EB4612D2E9000152
:106EE000DFF8FC2A12EBC507D7E90023FEF7B4F858
:106EF000DFF88C26C2E90001DFF8DC0A10EB46124D
:106F0000D2E90201DFF8D82A12EBC507D7E9062338
:106F1000FEF7A2F8DFF86C26C2E90001DFF8B80A34
:106F200010EB4612D2E90401DFF8B42A12EBC507D0
:106F3000D7E90C23FEF790F8DFF84C26C2E90001F0
:106F4000DFF8940A10EB4612D2E90601DFF8902A26
:106F500012EBC507D7E91223FEF77EF8DFF82C26DF
:106F6000C2E900011820DFF87C1A00FB061010EBC4
:106F7000C507DFF80C06D0E90023DFF808C6DCE916
:106F80000001FEF73BF9DFF800C6DCE90023FEF75D
:106F900035F9DFF8F8C5DCE90023FEF72FF9C7E97A
:106FA0000001761C042E95DB6D1C032D01DA0026F2
:106FB000F8E7002561E014EB4612D2E90001DFF8A2
:106FC000182A12EBC507D7E90023FEF745F8DFF8CA
:106FD000B025C2E9000114EB4612D2E90201DFF844
:106FE000F82912EBC507D7E90823FEF735F8DFF8D3
:106FF0009425C2E9000114EB4612D2E90401DFF83E
:10700000D82912EBC507D7E91023FEF725F8DFF8DA
:107010007825C2E9000114EB4612D2E90601DFF837
:10702000B82912EBC507D7E91823FEF715F8DFF8E2
:107030005C25C2E90001DFF8B00910EB461010EB47
:10704000C507DFF83C05D0E90023DFF838C5DCE9E7
:107050000001FEF7D3F8DFF830C5DCE90023FEF7C6
:10706000CDF8DFF828C5DCE90023FEF7C7F8C7E94B
:107070000001761C032E9EDB6D1C042D01DA002618
:10708000F8E700246AE0DFF8600910EB4512D2E966
:107090000001DFF84C2912EBC406D6E90023FDF706
:1070A000DBFFDFF8DC24C2E90001DFF83C0910EB6C
:1070B0004512D2E90201DFF8282912EBC406D6E90D
:1070C0000623FDF7C9FFDFF8BC24C2E90001DFF8A1
:1070D000180910EB4512D2E90401DFF8042912EB7C
:1070E000C406D6E90C23FDF7B7FFDFF89C24C2E9FC
:1070F0000001DFF8F40810EB4512D2E90601DFF8D1
:10710000E02812EBC406D6E91223FDF7A5FFDFF84D
:107110007C24C2E900011820DFF8D01800FB05101C
:1071200010EBC406DFF85824D2E90001DFF85474EC
:10713000D7E90023FEF762F8DFF84C74D7E90023A3
:10714000FEF75CF8DFF84474D7E90023FEF756F841
:10715000C6E900016D1C032D95DB641C032C01DACC
:107160000025F8E700241EE01820DFF8841800FB53
:10717000051010EBC4061820DFF8701800FB05108E
:1071800010EBC402D2E90001182202FB058212EBC7
:10719000C407D7E90023FEF731F8C6E900016D1CEA
:1071A000032DE1DB641C032C01DA0025F8E7032141
:1071B000DFF83C08FFF7F4FBDFF83828C2E90001EC
:1071C0000321DFF82C08FFF768FC00241BE01820DF
:1071D000DFF8241800FB051010EBC4061820DFF8B8
:1071E000981300FB051010EBC402D2E90001DFF890
:1071F0000478D7E90023FEF797FCC6E900016D1C6F
:10720000032DE4DB641C032C01DA0025F8E70024DD
:107210004FE01820DFF8CC1700FB0512D2E900017F
:10722000DFF8D42712EBC406D6E90023FDF714FFDC
:10723000D34AC2E900011820DFF8A81700FB0512A5
:10724000D2E90201DFF8B02712EBC406D6E9062323
:10725000FDF702FFCB4AC2E900011820DFF88417CE
:1072600000FB0512D2E90401DFF88C2712EBC406FB
:10727000D6E90C23FDF7F0FEC34AC2E9000118204D
:10728000DFF8781700FB051010EBC406BC4AD2E902
:107290000001BC4FD7E90023FDF7B0FFBA4FD7E993
:1072A0000023FDF7ABFFC6E900016D1C042DB0DB28
:1072B000641C032C01DA0025F8E7BDE8F081F0B585
:1072C00005000C001600002710E055F82700FDF718
:1072D0008BFE14EBC70CDCE90023FEF703F8DFF8A4
:1072E000202712EBC702C2E900017F1C032FECDB51
:1072F000002443E01820DFF8041700FB0410D0E955
:107300000023DFF8FC56D5E90001FDF7A5FE9C4AF5
:10731000C2E900011820DFF8E41600FB0410D0E9F0
:107320000223DFF8DC56D5E90201FDF795FE954A08
:10733000C2E900011820DFF8C41600FB0410D0E9F0
:107340000423DFF8BC56D5E90401FDF785FE8E4A1B
:10735000C2E900018A48D0E900238A4DD5E900013D
:10736000FDF74CFF884DD5E90023FDF747FFDFF817
:10737000942612EBC402C2E90001641C042CB9DBA0
:10738000002412E0DFF8480610EBC402D2E9000145
:10739000DFF8702612EBC405D5E90023FDF72EFFB8
:1073A00016EBC402C2E90001641C042CEADBF0BD48
:1073B000F0B5040000254AE01820DFF8401600FB75
:1073C0000612D2E9000114EBC507D7E90023FDF747
:1073D00043FE6B4AC2E900011820DFF8201600FBCB
:1073E0000612D2E9020114EBC507D7E90823FDF71D
:1073F00033FE644AC2E900011820DFF8001600FBE2
:107400000612D2E9040114EBC507D7E91023FDF7F2
:1074100023FE5D4AC2E90001DFF8EC0510EB4610DF
:1074200010EBC507564AD2E90001DFF858C1DCE984
:107430000023FDF7E3FEDFF850C1DCE90023FDF790
:10744000DDFEC7E90001761C042EB5DB6D1C042DA2
:1074500001DA0026F8E700241DE0DFF8B00510EBA4
:10746000451010EBC406DFF8A80510EB451010EB33
:10747000C402D2E90001DFF8902512EB451212EBAD
:10748000C407D7E90023FDF72DFFC6E900016D1CF5
:10749000042DE2DB641C042C01DA0025F8E700244B
:1074A00060E0DFF8680510EB4512D2E90001DFF873
:1074B000282512EBC406D6E90023FDF7CDFD304A9E
:1074C000C2E90001DFF8440510EB4512D2E90201E0
:1074D000DFF8042512EBC406D6E90823FDF7BCFD4E
:1074E000284AC2E90001DFF8240510EB4512D2E971
:1074F0000401DFF8E42412EBC406D6E91023FDF7FB
:10750000ABFD214AC2E90001DFF8000510EB45128E
:10751000D2E90601DFF8C02412EBC406D6E918232D
:10752000FDF79AFD194AC2E90001194810EB451010
:1075300010EBC407124AD2E90001124ED6E900232B
:10754000FDF75CFE104ED6E90023FDF757FE0F4E07
:10755000D6E90023FDF752FEC7E900016D1C042D9A
:107560009FDB641C042C01DA0025F8E7F0BD000065
:10757000E80800200000F0BF300900209802002039
:10758000280D0020300D0020380D0020400D002077
:107590000000002018030020180400202DE9F0410D
:1075A00080460D001400DFF86C0400220023C0E9BF
:1075B0000023286890F00040FDF716FD0022DFF858
:1075C0005834FDF749FDDFF85424DFF85434FDF753
:1075D00043FDDFF84024C2E90201686890F00040F2
:1075E000FDF702FD0022DFF83034FDF735FDDFF84E
:1075F0002C24DFF82C34FDF72FFDDFF81824C2E926
:107600000401A86890F00040FDF7EEFC0022DFF8CE
:107610000834FDF721FDDFF80424DFF80434FDF71A
:107620001BFDDFF8F023C2E906012868FDF7DCFC4A
:107630000022DFF8E433FDF70FFDDFF8E023DFF889
:10764000E033FDF709FDDFF8CC23C2E90801DFF8DC
:10765000C40300220023C0E90A23A868FDF7C4FC84
:107660000022DFF8B433FDF7F7FCDFF8B023DFF8D2
:10767000B033FDF7F1FCDFF89C23C2E90C01686828
:1076800090F00040FDF7B0FC0022DFF88C33FDF7EE
:10769000E3FCDFF88823DFF88833FDF7DDFCDFF853
:1076A0007423C2E90E016868FDF79EFC0022DFF832
:1076B0006833FDF7D1FCDFF86423DFF86433FDF7AE
:1076C000CBFCD44AC2E91001A86890F00040FDF755
:1076D0008BFC0022D04BFDF7BFFCD04AD04BFDF70E
:1076E000BBFCCC4AC2E91201CA4800220023C0E90F
:1076F00014232868FDF778FC0022C74BFDF7ACFC8B
:10770000C64AC74BFDF7A8FCC24AC2E91601A868E1
:10771000FDF76AFC0022C04BFDF79EFCBF4AC04B40
:10772000FDF79AFCBB4AC2E918016868FDF75CFCEA
:107730000022B94BFDF790FCB84AB94BFDF78CFC21
:10774000B44AC2E91A01286890F00040FDF74CFCE9
:107750000022B14BFDF780FCB04AB14BFDF77CFC39
:10776000AC4AC2E91C01AB4800220023C0E91E2339
:1077700000251AE0AB4810EB451010EBC607A448F3
:1077800010EB451010EBC600D0E90023A14810EB28
:10779000451010EBC60CDCE90001FDF72FFDC7E931
:1077A0000001761C042EE5DB6D1C042D01DA002699
:1077B000F8E72000FFF7F3F9FFF74DFA8448D0E926
:1077C000042300205FF04041FDF746FC964AC2E9E1
:1077D00000017F48D0E9062300205FF08041FDF7DB
:1077E0003BFC914AC2E902017948D0E9002300201C
:1077F0005FF04041FDF730FC8B4AC2E90401744858
:10780000D0E9022300205FF08041FDF725FC864A85
:10781000C2E906016E48D0E9022300205FF08041F2
:10782000FDF71AFC804AC2E908016948D0E9002343
:1078300000205FF08041FDF70FFC7B4AC2E90A019E
:107840006348D0E9062300205FF08041FDF704FC87
:10785000754AC2E90C015E48D0E9042300205FF0BC
:107860008041FDF7F9FB704AC2E90E015848D0E9A2
:10787000002300205FF08041FDF7EEFB6A4AC2E979
:1078800010015348D0E9022300205FF04041FDF78A
:10789000E3FB654AC2E912014D48D0E90423002008
:1078A0005FF04041FDF7D8FB5F4AC2E91401484848
:1078B000D0E9062300205FF08041FDF7CDFB5A4A56
:1078C000C2E9160159495848FFF7E5FA4048D0E99E
:1078D00002233F4DD5E90601FDF7BEFB06000F0070
:1078E0003B4AD2E900013A4DD5E90423FDF7B4FB48
:1078F00002000B0030003900FDF7F4FC00225FF0BD
:107900008043FDF7A9FB4A4AC2E900013048D0E9AB
:1079100000232F4DD5E90201FDF79EFB06000F0065
:107920002B4AD2E904012A4DD5E90623FDF794FB41
:1079300032003B00FDF762FC00225FF08043FDF760
:107940008BFB3B4AC2E902012148D0E90023204DCC
:10795000D5E90001FDF780FB06000F001C4AD2E9C3
:1079600002011B4DD5E90223FDF776FB02000B0057
:1079700030003900FDF7B6FC06000F00144AD2E9CA
:107980000401134DD5E90423FDF766FB02000B004B
:1079900030003900FDF7A6FC06000F000C4AD2E9C2
:1079A00006010B4DD5E90623FDF756FB32003B00DF
:1079B000FDF724FC1E4AC2E9040122001C4940468E
:1079C000FFF77DFC1848FFF7F3FCBDE8F0810000ED
:1079D000380A0020980300201802002080000020B0
:1079E00078060020D806002038070020580800201C
:1079F000A0080020480D00207809002098070020EA
:107A0000900A0020580A0020980400201805002041
:107A100000010020980500200000E03F7B14AE47E5
:107A2000E17A943F9802002018060020800100208F
:107A3000780A002090EA010F44BF81F0004100F075
:107A400099BD00BF421A3CBF801A89184FF0004C04
:107A5000C0F3C752FF2A24D0C1F3C75313B3D21ABD
:107A6000D2F1190327DD4CEA01214CFA03F321EA94
:107A70000303D140C20D4CEA0020401834BF20EA75
:107A80000C004CEA5000D20553EA006373EB0C0C77
:107A900052EB1020420012F1807F38BF7047C00DBA
:107AA000C0057047490212BF9A4200EB5120F8E727
:107AB000D2F11703D9D5704740F2FF7C0B0D4DD0A2
:107AC000634566D230B421EA035141F4801103F2D8
:107AD000FD3C5FEA5C0C01D300184941890041EA92
:107AE000907180004FF440140023E202D50AB1F5F2
:107AF000100107D46D081DD2091B641900184941F3
:107B0000491BF7D56D080AD20919641B00184941B1
:107B1000491BEFD56D08F7D301E0520817D0C01804
:107B200061419B1AAC4100184941801AA941F4D423
:107B300052080AD0C01AA1419B186C410018494153
:107B4000801AA941E9D45208F4D15B1C6C41610848
:107B50004FEA330001EB0C5130BC704750EA01038F
:107B6000FBD030B4B1FA81F311B9B0FA80F41B192B
:107B70000B3BB3F120042FBF00FA04F19940C3F18D
:107B8000200420FA04F438BF21439840D3F10103C4
:107B90009DE76345E1D011F5801FDED850EA410131
:107BA000DBD0D94300F052BD38B50FB4DDE9020196
:107BB00000F052FD0546DDE9000100F04DFD0246F2
:107BC000012DB8BF012A2CDA0198002807D5DDE97C
:107BD000000181F00041CDE90001082400E000240B
:107BE0000398002807D5DDE9020181F00041CDE9C5
:107BF000020184F00604DDE90201DDE9002300F062
:107C000045FD02D2FDF790FF27E0002D06D5DDE906
:107C10000001DDE90223FDF787FF20E000200021BD
:107C20001DE0022A08BFDDE900011ED0022D08BFB9
:107C3000DDE9020119D0954207BF00200C49002060
:107C40000021019B002B4CBF08240024039B002B28
:107C500048BF84F00604012A01D184F002042246C0
:107C600005B0BDE8304000F02BBD05B030BD00BF11
:107C70000000F03F2DE970480D46C5F30A5240F26E
:107C8000FF7383B004469A4210D0002A04BF280331
:107C900054EA10300ED020460022002300F0F6FCFB
:107CA0003ABF85F000450826002605E0280354EA7F
:107CB0001030F0D0204655E02946234A234B00F0EF
:107CC000E5FC1AD2DFF888B00020594622462B4640
:107CD000FDF708FBCDE9000100225B46204629465E
:107CE000FDF78CFADDE90023FDF7B6F9FFF7E4FEB6
:107CF00002460B46204629461DE00122144B00F0A7
:107D0000C5FC27D29B460020594622462B46FDF74C
:107D1000E9FACDE9000100225B4620462946FDF73D
:107D20006DFADDE90023FDF797F9FFF7C5FE86F050
:107D3000020622462B46FDF7F7FE324603B0BDE8A9
:107D4000704800F0BDBC00BFCE3B7F669EA0E63F02
:107D50000000F03F00F0A4FD212101604FF0FF3052
:107D60006FF0004103B0BDE87088012200F09EBDB5
:107D7000002200F09BBD0000DFF80803006850F00F
:107D80000100DFF800130860DFF8FC020068DFF88C
:107D9000FC120840DFF8F0120860DFF8E802006823
:107DA000DFF8EC120840DFF8DC120860DFF8D402DC
:107DB000006830F48020DFF8CC120860DFF8C802D9
:107DC000006830F4FE00DFF8C0120860DFF8C4027B
:107DD0005FF41F0101607047DFF8A812096831F4F1
:107DE0008031DFF8A0221160DFF89812096831F4C1
:107DF0008021DFF890221160B0F5803F03D0B0F50C
:107E0000802F09D011E0DFF87C02006850F4803048
:107E1000DFF87012086008E0DFF86802006850F4CC
:107E2000A020DFF860120860FFE7704780B50020EF
:107E3000009000200021312000F002F9010000989C
:107E4000401C00900098B0F5A06F02D0C9B2002984
:107E5000F1D0312000F0F4F8002801D0012000E03A
:107E60000020C0B202BD0022874B1B681A0032F40A
:107E70007C12084302438448026070478649C0B2BE
:107E8000086070470021804A126811008908890043
:107E900001437D48016070477B48006810F00C008A
:107EA00070470021784A1268110031F0F001014357
:107EB0007548016070470021734A1268110031F45F
:107EC000E061014370480160704700216E4A12680A
:107ED000110031F4605151EAC0016B4801607047F4
:107EE00030B40022002100230024674D2D6815F0D6
:107EF0000C052A00002A04D0042A05D0082A06D03E
:107F000021E06749016020E0654901601DE05E49AC
:107F1000096811F470115C4A126812F48033890CFC
:107F2000891C002B03D15F4A514301600AE0564A85
:107F30001268920303D55B4A5143016002E0584A3C
:107F40005143016001E0564901604F49096811F051
:107F5000F00212095449545C0168E14041604A4909
:107F6000096811F4E062120A4F49545C4168E1402B
:107F700081604549096811F46052D20A4A49545C4B
:107F80004168E140C1604049096811F44042920BE8
:107F90004649545CC168B1FBF4F1016130BC7047E3
:107FA000C9B2002905D04249096808434049086020
:107FB00005E03F49096831EA00003D490860704723
:107FC000C9B2002905D03B4909680843394908600E
:107FD00005E03849096831EA000036490860704711
:107FE000C9B2002905D034490968084332490860FC
:107FF00005E03149096831EA00002F4908607047FF
:10800000C9B2002905D02D49096808432B490860E9
:1080100005E02A49096831EA0000284908607047EC
:10802000C9B2002905D026490968084324490860D7
:1080300005E02349096831EA0000214908607047DA
:1080400010B4002200230021C0B24409E4B222008F
:10805000012A02D10B490B6806E0022A02D10F491E
:108060000B6801E017490B68C0B210F01F0233FA29
:1080700002F0C00701D5012100E000210800C0B2D4
:1080800010BC704700100240041002400000FFF8CE
:10809000FFFFF6FE0810024060004242201002403E
:1080A00000127A0000093D00E801002010020020C3
:1080B00014100240181002401C1002400C10024024
:1080C000101002402410024010B4002203681A006D
:1080D0006FF30E128B680C6A23430C6923434C69BF
:1080E00023438C692343CC6923434C6A23438C6A22
:1080F00023431A430260CA6842600A688260496882
:10810000C16010BC7047C9B2002904D0016851F0A9
:108110000101016003E001684908490001607047FE
:1081200000210022C30002D50C490A6801E00C4975
:108130000A68024201D0012100E000210800C0B21B
:108140007047C10002D50449086001E00149086098
:108150007047000004000240040402400004024092
:108160000000024080B5474988420AD101215FF4EE
:108170000010FFF755FF00215FF40010FFF750FFDC
:1081800009E001215FF48000FFF74AFF00215FF45E
:108190008000FFF745FF01BD2DE9F04385B00400E5
:1081A0000D005FF0000900260427DFF8DC80A088BE
:1081B00081464FF6C07010EA090900A8FFF790FE4B
:1081C000029880463148B8FBF0F0060056EA0909EB
:1081D000A4F8049020884FF6FE71084020805FF0DC
:1081E000000928682A4988420CD228684000B8FB58
:1081F000F0F7BFB2042F00DA042757EA0909701C10
:10820000208424E0E8884BF6FF71884205D1286875
:1082100003214843B8FBF0F706E0286819214843DA
:10822000B8FBF0F757F48047380501D157F0010744
:1082300057F4004050EA0909B6B24FF4967000FBBB
:1082400006F04FF47A7190FBF1F0401C2084A4F802
:108250001C90208850F001002080B4F800904FF668
:10826000F53010EA0909A8886989084350EA090924
:10827000A4F80090A88929890843208105B0BDE8A9
:10828000F08300000054004000127A0040420F00CA
:10829000A1860100C9B2002904D0018851F0010172
:1082A000018004E001884FF6FE72114001807047A2
:1082B000C9B2002904D0818851F40061818004E0B2
:1082C00081884FF2FF72114081807047C9B2002946
:1082D00004D0018851F48071018004E001884FF6D8
:1082E000FF62114001807047C9B2002904D00188A3
:1082F00051F40071018004E001884FF6FF521140F3
:1083000001807047C9B2002904D0018851F480610E
:10831000018004E001884FF6FF3211400180704770
:10832000C9B201827047D2B2002A02D051F00101D5
:1083300001E011F0FE01C9B20182704770B4002360
:10834000002400250022868A3400008B05002D04BD
:1083500055EA04000002000A03008B4201D1012209
:1083600000E000221000C0B270BC704782B0020072
:108370000020002301930023009300920A0F019232
:108380000902090A019A002A03D0009814300090CB
:1083900003E0090C0098183000900098006808422B
:1083A00001D0012000E00020C0B202B0704710B53B
:1083B0000400200000F090FC200010BD0021DFF838
:1083C0003C211268110011F038010143DFF82C0143
:1083D00001607047DFF82411096831F01001DFF8FF
:1083E0001C211160DFF8141109680843DFF80C1133
:1083F00008607047DFF80801DFF808110160DFF856
:108400000001DFF8041101607047DFF80001006827
:1084100050F08000DFF8F4100860704738B50400B1
:10842000042540F6FF7000F077F80500EDB2042D4A
:1084300023D1DFF8D800006850F00200DFF8CC103C
:108440000860DFF8CC000460DFF8C000006850F07E
:108450004000DFF8B810086040F6FF7000F05CF8EC
:108460000500EDB2052D08D0DFF8A000006841F648
:10847000FD710840DFF8941008602800C0B232BDDA
:1084800070B504000D0004260F2000F045F806002A
:10849000F6B2042E18D1DFF87400006850F0010025
:1084A000DFF86810086025800F2000F035F806001E
:1084B000F6B2052E08D0DFF85400006841F6FE71D0
:1084C0000840DFF8481008603000C0B270BD0420DA
:1084D00010490968C90701D501200CE00D48006862
:1084E000400701D5022006E00A480068C00601D511
:1084F000032000E00420C0B27047000000200240CA
:108500000420024023016745AB89EFCD10200240D3
:10851000142002400C20024038B504000425FFF767
:10852000D6FF050005E000F00FF8FFF7D0FF0500CB
:10853000641EEDB2012D01D1002CF4D1002C00D12C
:1085400005252800C0B232BD81B000200090FF2078
:10855000009002E00098401E009000980028F9D199
:1085600001B0704790EA010F44BF81F00041FFF76E
:1085700069BA00BF431A4FF000423EBF5340C01AD1
:10858000C91800BFD3095FEAD05C13EB400F34BFBA
:10859000B3EB410F40E07CEBD1530CD342EA012115
:1085A00022D8D1EB402009D3400A28BF5FEA50010E
:1085B00040EBCC507047401A15D04002B0FA80F220
:1085C000521C9040400A4FEA3C23B3EB026384BF45
:1085D00000EB730007E040F400001A16DB07C2F15D
:1085E0000102D04018437047182BFCDC31FA03F22B
:1085F00002FA03F3591A38BF42F00102D2EB4020CD
:108600003CBF4000ACF1010C5FEACC5CC20572F1EA
:1086100000414CEB5020704713EB400F0FD24B0042
:1086200009D0ACEBD153022B03DB4902172BDDDD64
:1086300070479143401A4300D5D10020704713EB97
:10864000410FD0D36FF00000704700001FB500F05D
:1086500027F9212101601FBDC1F30A5240F2FF73C7
:108660009A420AD012B14FF0FF307047090350EA26
:10867000113009D06FF001007047090350EA113042
:1086800001D0022070470120704700004FF4001C09
:108690001CEB410F94BF1CEB430F09E041EA030CB4
:1086A00050EA4C0C52EA0C0C03D2994208BF90429B
:1086B000704714BF8B4282427047000000000000E8
:1086C0002DE9F04D1746504A504B00F041FB04464F
:1086D0000D461CD84E4EDFF83C8132464346FCF72F
:1086E000BBFC00224C4BFCF789FD82468B46324690
:1086F000434620462946FCF781FD02460B4650467C
:108700005946FDF711FA04460D4647F00107204689
:1087100029460022414BFFF7B9FF05D301224FF054
:10872000795300F015FB53D822462B46FCF794FCF6
:10873000064688463246434620462946FCF78CFCCE
:1087400082468B463648374932464346FCF784FC1E
:10875000354A364BFCF752FD32464346FCF77CFC6B
:10876000334A344BFCF74AFD52465B46FCF774FC37
:1087700022462B46FCF742FD04460D462E482F4963
:1087800032464346FCF768FC2D4A2E4BFCF736FD7B
:1087900032464346FCF760FC2B4A2C4BFCF72EFD7F
:1087A00032464346FCF758FC294A2A4BFCF726FD83
:1087B00032464346FCF750FC0022274BFCF71EFDD7
:1087C00002460B4620462946FDF7AEF904460D4603
:1087D000B80748BF85F0004517F007000BD00FF22F
:1087E000800101EBC0022B46D2E900012246FCF7D2
:1087F00005FD04460D46380747BF85F00041204679
:1088000020462946BDE8F08D57CD9E5E1426D13F07
:10881000AA4C58E87AB6FB3F0000F0BF000040BE0B
:10882000845D57134B57B03FB2934C19ED5EE43F54
:10883000BEDE02B90240F83FDE39028FC7C0743F86
:108840008AAB1283000CC83F24D7E508B6D8F03FA6
:108850000F34580E5895FD3F0000F03F0000000017
:10886000000000000000000066732D3852C1E03F98
:10887000182D4454FB21F93F66732D3852C1F03F47
:10888000182D4454FB21F93F66732D3852C1004026
:10889000182D4454FB2109403FD038C6A6F10440AE
:1088A000014800F06CBA0000140200202DE9F04CE1
:1088B00004460D46164683B0DFF87C03DFF87C13D0
:1088C00022462B46FCF7C8FB8B4621F00041DFF81F
:1088D0007023DFF87033FFF7D9FE074680F0F3808E
:1088E00059460022002300F033FA104694BFDFF807
:1088F0005813DFF858133A465B46FCF77FFC00F04C
:108900003FFA070051D000F061FA0022D04BFCF78B
:10891000A3FB82468B464FF0A040CE4952465B46B1
:10892000FCF79AFB02460B4620462946FCF7DAFC88
:1089300004460D464FF0C040C74952465B46FCF71F
:108940008BFB02460B4620462946FCF7CBFC04462F
:108950000D464FF00050C14952465B46FCF77CFB88
:1089600002460B4620462946FCF7BCFC04460D4651
:108970000020BB4952465B46FCF76EFB02460B46A5
:1089800020462946FCF7AEFC04460D464FF0005049
:10899000B44952465B46FCF75FFB02460B46204655
:1089A0002946FCF79FFC04460D4607F00300861994
:1089B000204629466FF00102AB4B00F0C9F90BD8F5
:1089C00000224FF07953FFF761FE05D2F00740F126
:1089D0002D810024A54D29E122462B46FCF73CFBC6
:1089E00007468B46F00731D5A148A2493A465B4677
:1089F000FCF732FBA04AA14BFCF700FC3A465B4671
:108A0000FCF72AFB9E4A9F4BFCF7F8FB3A465B4675
:108A1000FCF722FB9C4A9D4BFCF7F0FB3A465B4679
:108A2000FCF71AFB9A4A9B4BFCF7E8FB3A465B467D
:108A3000FCF712FB6FF05102974BFCF7DFFB3A4655
:108A40005B46FCF709FB0022884B37E03A465B4661
:108A500020462946FCF700FBCDE900013A468F4845
:108A60008F495B46FCF7F8FA8E4A8F4BFCF7C6FB42
:108A70003A465B46FCF7F0FA8C4A8D4BFCF7BEFB9E
:108A80003A465B46FCF7E8FA8A4A8B4BFCF7B6FBA2
:108A90003A465B46FCF7E0FA884A894BFCF7AEFBA6
:108AA0003A465B46FCF7D8FA864A874BFCF7A6FBAA
:108AB000DDE90023FCF7D0FA22462B46FCF79EFBAB
:108AC00004460D46B2E0C5F30A5240F2FF739A42E3
:108AD0000DD0002A04BF280354EA103015D1F00746
