:020000040800F2
:10300000F0080020ED550008495500084B55000810
:103010004D5500084F5500085155000800000000AC
:1030200000000000000000000000000053550008F0
:103030005555000800000000575500085955000874
:1030400057430008574300085743000857430008F8
:1030500057430008574300085743000857430008E8
:1030600057430008574300085743000857430008D8
:1030700057430008574300085743000857430008C8
:1030800057430008574300085743000857430008B8
:10309000635500085743000857430008574300088A
:1030A0005743000857430008574300085743000898
:1030B0005B55000857430008574300085743000872
:1030C0005743000857430008574300085743000878
:1030D0005743000857430008574300085743000868
:1030E000574300085743000857430008BFF34F8F6A
:1030F000DFF828170A6812F4E062DFF824070243B9
:103100000A60BFF34F8F00BFFDE718B585B00121FE
:103110005FF4800000F0E9FC0121082000F0D7FCFA
:103120004FF44060ADF8000001208DF802001C2033
:103130008DF803006946DFF8EC0600F041FDDFF88A
:10314000E846200000F0DEFD0020ADF808004BF658
:10315000FF70ADF80A000020ADF80C004FF480605D
:10316000ADF80E004FF48040ADF81000DFF8BC065B
:10317000019001A9200000F0DFFD0121200000F0F6
:1031800047FE06B010BDE0B580208DF80000382065
:103190008DF8010018208DF8020080208DF80300C2
:1031A000684600F0D5FF80208DF8080018208DF8C3
:1031B0000A0038208DF8090002A800F0FCFF042066
:1031C0008DF80600C0208DF8040000208DF8050061
:1031D00001A801F023F807BDE0B51C218DF802100D
:1031E00020218DF8031000218DF8041000218DF8A6
:1031F000051000218DF8061000218DF80710002120
:103200008DF80010C0B2002802D0012804D006E0DA
:1032100002208DF8010002E000208DF801006846D0
:1032200001F011F807BD80B54FF440515FF0006028
:1032300001F0C7F84FF4407001F08EF81C208DF8B3
:1032400000000F208DF8010000208DF80200012001
:103250008DF80300684601F084F814208DF8000012
:1032600000208DF8010000208DF8020001208DF86B
:103270000300684601F075F801BD10B500F038FB99
:103280005FF4803000F054FBDFF8A44500F06CFBE5
:1032900020702078012824D1022001F0A7F8102006
:1032A00001F0ADF85FF400115FF4403000F078FBFE
:1032B000012000F07EFB392000F041FC0028FAD00C
:1032C000022000F07AFB00F080FB0828FBD10020F0
:1032D00000F080FB4FF4A06000F08CFB002000F0B9
:1032E00081FB10BD1CB50121082000F0F0FB4FF45C
:1032F0000070ADF8000018208DF8030001208DF853
:103300000200DFF820456946200000F059FC4FF428
:103310008070ADF8000048208DF803006946200059
:1033200000F04EFC13BD30B587B0040001215FF002
:10333000007000F0DAFB0121012000F0C8FBDFF88B
:10334000F454280001F002F901215FF4EA1000F0C2
:10335000A0FC00208DF8060000208DF8070000205A
:103360008DF8080000208DF8090000208DF80A0073
:1033700001208DF80B0000208DF8020000208DF850
:10338000030003208DF8040004208DF805000420BC
:10339000ADF800006946280001F0F2F802208DF82F
:1033A000160001208DF8170001208DF81800E4B2F6
:1033B000012C04D011D3032C0BD005D30DE04FF416
:1033C0001070ADF80C0008E04FF41870ADF80C0068
:1033D00003E04FF42070ADF80C000020ADF80E00B3
:1033E0000020ADF810000020ADF812000020ADF86C
:1033F000140001208DF8190001220221280001F09B
:10340000B5F903A801F041F9DFF82C04112101609E
:103410000021416000214172002101720821817266
:10342000DFF818040021016000210172002181727F
:10343000002141600021C17207B030BDE0B501211B
:10344000012000F052FB0021012000F06AFB002067
:10345000ADF8020040F28F10ADF8000040F2E73006
:10346000ADF804000020ADF8060000208DF808003B
:1034700069465FF0804001F058FB01215FF0804019
:1034800001F096FB012201215FF0804001F084FBF6
:1034900001215FF0804001F071FB07BD80B5002184
:1034A000DFF89C0300F021FB00214FF63D4000F0C7
:1034B0000EFB0021572000F0FCFA01BD80B5FFF79C
:1034C000EDFFFFF7DAFEFFF7AEFE01F075FBFFF749
:1034D00009FF01210320FFF726FFFFF7AFFF01BD22
:1034E00080B5012001F07BFB01BD80B50120FFF715
:1034F00073FE4FF4C870D34908604FF4D270D249BC
:10350000086001BD10B50020D049086000F081FFBF
:10351000CF4C200000F08DFF042805D101212000B0
:1035200000F0AEFFCB49087000F07CFFFFF7DEFD36
:1035300010BD38B5C84CC94D286801F073FB207028
:10354000286801F06FFB00B200126070C44D28685B
:1035500001F068FBA070286801F064FB00B2001263
:10356000E070C04D286801F05DFB2071286801F013
:1035700059FB00B200126071BB4D286801F052FB8C
:10358000A071286801F04EFB00B20012E071B74D47
:10359000286801F047FB2072286801F043FB00B265
:1035A00000126072B24D286801F03CFBA0722868DE
:1035B00001F038FB00B20012E072AE4D286801F055
:1035C00031FB2073286801F02DFB00B200126073FC
:1035D000A94D286801F026FBA073286801F022FBA2
:1035E00000B20012E073A54D286801F01BFB2074A7
:1035F000286801F017FB00B20012607431BD2DE99C
:10360000F047DFF830A20221504601F0DDF98B4F80
:103610003A000021504601F05DF9F87A4E280ED1AB
:10362000974C2078012803D0FFF75FFF012020701E
:10363000002086490860002001F0D1FAC1E0F87A44
:10364000532806D1002081490860002001F0C7FA04
:10365000B7E0F87A442802D1FFF754FFB1E0894E71
:10366000300001F0F5FA5FF00008DFF81C92874C9B
:10367000874D306A01F090FB22002B0001F0B0FB77
:1036800042464B4601F0ACFB01F07CFC73490860FC
:10369000706A01F081FB22002B0001F0A1FB424681
:1036A0004B4601F09DFB01F06DFC6D490860B06A6E
:1036B00001F072FB22002B0001F092FB42464B46C8
:1036C00001F08EFB01F05EFC66490860714CF16A06
:1036D000200001F08BFC64490860316B200001F090
:1036E00085FC62490860716B200001F07FFC604935
:1036F0000860694CB16B200001F078FC5D490860FE
:10370000F16B200001F072FC5B490860316C200015
:1037100001F06CFC59490860FFF70BFF4B4C206827
:10372000401C2060F87A03284BD100200020424D35
:103730000320E872012607E04748304410F8010CE6
:1037400005EB0601C872761C072EF5DB612005EB40
:103750000601C8722900504601F014F8761E0020B8
:103760000320E872012006E03B49895D05EB000279
:10377000D172761C401C0728F6DB67212844C172F1
:103780002900504600F0FEFF00200320E8720120CF
:1037900006E03149895D05EB0002D172761C401CC0
:1037A0000728F6DB6D212844C1722900504600F03D
:1037B000E9FF2548026823480168206801F022FAE1
:1037C0002060BDE8F08780B501215FF0804001F006
:1037D000EFF932480168491C0160016864291AD177
:1037E00000210160002201215FF0804001F0D4F946
:1037F00000215FF0804001F0C1F95FF0804001F0EE
:103800002FF90021012000F070F9FFF77EFCFFF78F
:10381000BAFCFFF765FE01BD000000000CED00E002
:103820000400FA05000C014000580040801A060010
:10383000EC00002000640040780000208C00002094
:103840003FC8E61ADC000020E0000020D80000207D
:1038500000D00708EE000020A0000020B4000020E7
:10386000B8000020BC000020C0000020C4000020E0
:10387000C8000020CC000020D0000020D400002090
:10388000ED00002018000020000059401F85EB517A
:10389000B89E2340000020410000C842E400002000
:1038A00080B572B601F00EFCFFF708FE01F016FCC1
:1038B00062B630BFFDE730B4002513E050F8042BAA
:1038C000D30744BFA9F101039A18091F042942F83C
:1038D000045BFAD213468C0744BF15809B1CC907B2
:1038E00048BF1D7050F8041B0029E7D130BC704759
:1038F000DFF88812086850F001000860DFF88022C5
:103900001368DFF88002034013600B68DFF8780269
:1039100003400B60086830F480200860106830F4C1
:10392000FE0010605FF41F00DFF86012086070474F
:10393000DFF848120A6832F480320A600A6832F40A
:1039400080220A60B0F5803F03D0B0F5802F05D00B
:1039500009E0086850F48030086004E0086850F41A
:10396000A0200860FFE7704780B50020009000208D
:103970000020312000F0E3F80099491C00910099E3
:10398000B1F5A06F02D0C0B20028F2D0312000F013
:10399000D6F8002801D0012000E00020C0B202BD0E
:1039A0000022774B1A6832F47C12084310431860E7
:1039B0007047C0B27649086070470021704A1168AC
:1039C000890889000843106070476D48006810F04E
:1039D0000C00704700216A4A116831F0F001084379
:1039E000106070470021664A116831F4E0610843B5
:1039F000106070470021624A116831F4605151EA49
:103A0000C0011160704710B4002100210021002185
:103A10005B4A116811F00C01002904D0042905D07B
:103A2000082906D01EE05C4901601DE05A4901608A
:103A30001AE0136813F47013116811F480319B0CB1
:103A40009B1C002903D155494B43036009E01168D1
:103A5000890303D551494B43036002E04E494B4370
:103A6000036001E04C490160116811F0F00109099F
:103A70004B4B595C0468CC404460116811F4E06120
:103A8000090A595C4468CC408460116811F46051A3
:103A9000C90A595C4368CB40C360116811F44041C6
:103AA000890B404A515CC268B2FBF1F1016110BC64
:103AB0007047C9B2002904D03B490A681043086026
:103AC00004E039490A6832EA000008607047C9B268
:103AD000002904D035490A681043086004E03349DE
:103AE0000A6832EA000008607047C9B2002904D0B1
:103AF0002F490A681043086004E02D490A6832EA39
:103B0000000008607047C9B2002904D029490A683A
:103B10001043086004E027490A6832EA00000860A0
:103B20007047C9B2002904D023490A6810430860CD
:103B300004E021490A6832EA000008607047002169
:103B4000002100210100C9B24909C9B2012902D1ED
:103B50000A49096806E0022902D10E49096801E014
:103B600016490968C0B210F01F00C140C80701D54E
:103B7000012000E00020C0B27047000000100240A9
:103B8000041002400000FFF8FFFFF6FE081002409C
:103B9000600042422010024000127A0000093D00FD
:103BA00000000020100000201410024018100240F5
:103BB0001C1002400C100240101002402410024061
:103BC000F0B4002200220022002200220022CB7842
:103BD00013F00F03CA78D20601D58A7813430A7806
:103BE000120620D0066800241AE0CA78482A16D1A6
:103BF000A740076113E0012717FA04F50A882A4055
:103C0000AA420CD1A2000F259540AE4313FA02F24E
:103C100032431600CA78282AE7D1A7404761641CBE
:103C2000082CE8D306600A88B2F5807F26DB466858
:103C3000002420E0012714F1080517FA05F50A8889
:103C40002A40AA4216D1A2000F259540AE4313FA8E
:103C500002F232431600CA78282A04D114F108026D
:103C600017FA02F24261CA78482A03D114F1080215
:103C700097400761641C082CDCD34660F0BC704799
:103C8000D2B2002A02D089B2016101E089B2416159
:103C9000704770B40022002200220022184D2C68C8
:103CA000C0F3034382B210F44016B6F5401F07D1AB
:103CB000230033F070632C6834F070642C6013E0E0
:103CC000C60207D5032616FA03F334EA030353F0BA
:103CD000706309E003005B0DDBB21B0112FA03F312
:103CE00034EA030353F07063C9B2002905D0400DD4
:103CF000C0B2000182401A4313002B6070BC7047B1
:103D00000400014080B53E4988420AD101215FF498
:103D10000010FFF706FF00215FF40010FFF701FF1E
:103D200009E001215FF48000FFF7FBFE00215FF452
:103D30008000FFF7F6FE01BD78B585B004000D00E8
:103D40000020002004202F48A6884FF6C0700640AF
:103D50006846FFF758FE029B2B48B3FBF0F10E4379
:103D6000A68022884FF6FE7002402280002228683A
:103D7000264EB0420CD228684000B3FBF0F003009E
:103D80009BB2042B00DA04200243491C218422E068
:103D9000E8884BF6FF76B04205D12E6803204643F3
:103DA000B3FBF6F006E02E6819204643B3FBF6F0AD
:103DB00050F48040030501D150F0010050F4004060
:103DC000024389B24FF4967041434FF47A7091FBED
:103DD000F0F0401C2084A283208850F00100208055
:103DE00021884FF6F5300140AA88688902431143C3
:103DF0002180A98928890143218106B070BD000076
:103E00000054004000127A0040420F00A1860100D9
:103E1000C9B2002904D0018851F00101018004E0F9
:103E200002884FF6FE710A4002807047C9B200292D
:103E300004D0818851F40061818004E082884FF2CF
:103E4000FF710A4082807047C9B2002904D00188FE
:103E500051F48071018004E002884FF6FF610A404E
:103E600002807047C9B2002904D0018851F4007162
:103E7000018004E002884FF6FF510A40028070473B
:103E8000C9B2002904D0018851F48061018004E0A6
:103E900002884FF6FF310A4002807047C9B20182A2
:103EA0007047D2B2002A02D051F0010101E011F0B6
:103EB000FE01C9B2018270470022002200220022C6
:103EC000828A008B0004024322F07F428A4201D1A1
:103ED000012000E00020C0B2704782B00022002222
:103EE00001920022009200900800000F019021F042
:103EF0007F410198002803D000981430009003E01F
:103F0000090C00981830009000980068084201D011
:103F1000012000E00020C0B202B0704730B58BB085
:103F20000C00150001210120FFF7C3FD7F48009020
:103F300001940020029003950020049080200590B9
:103F40000020069000200790002008904FF4405079
:103F5000099000200A90764C0021200001F0E8F83A
:103F60006946200001F0C6F80121200001F0E0F8C8
:103F70000BB030BD2DE9F04107000D0090461E004A
:103F80006C4C5FF400312000FFF7A7FF0028F7D149
:103F900001212000FFF758FF67492000FFF78CFF41
:103FA0000028F9D000223900C9B22000FFF779FFBC
:103FB00062492000FFF780FF0028F9D04146C9B2CE
:103FC0002000FFF76BFF5E4F39002000FFF774FF02
:103FD0000028F8D05FF000080DE04046C0B2295C30
:103FE0002000FFF75BFF39002000FFF765FF002886
:103FF000F9D018F1010840463100C0B2C9B2884278
:10400000EBD301212000FFF72DFFBDE8F0812DE962
:10401000F84305000F0090469946002000900020CC
:104020000090444C5FF400312000FFF756FF002859
:10403000F7D101212000FFF707FF3F4E310020009C
:10404000FFF73AFF0028F8D000222900C9B220006B
:10405000FFF727FF39492000FFF72EFF0028F9D08E
:1040600001212000FFF7D4FE4146C9B22000FFF72E
:1040700015FF33492000FFF71FFF0028F9D01FFA72
:1040800089F94A4639002000FFF748FF2D4801888A
:1040900051F48051018001212000FFF7C7FE4FF647
:1040A000FF77009701212000FFF7CEFE31002000AE
:1040B000FFF702FF0028F9D00098411E0091002868
:1040C00032D0009701222900C9B22000FFF7E9FE93
:1040D0001D492000FFF7F0FE0028F9D00098411E8E
:1040E0000091002820D01948008880B200905FF429
:1040F000003001F02AF80028F9D000210C4801F026
:1041000017F85FF4003001F030F800212000FFF7CD
:10411000B7FE01212000FFF7A5FE20888005FCD412
:1041200001212000FFF7ACFEBDE8F18310580040EC
:1041300058000240005800400100030082000700C0
:104140008400070004580040020003001858004093
:1041500080B500218DF8021000218DF8011000219A
:104160008DF800109DF8022041780A438DF8022056
:104170009DF80120037881780B431A438DF80120C4
:104180009DF80010C07801438DF8001001231F2214
:104190000DF10201D420FFF7EDFE012320220DF1E5
:1041A0000101D420FFF7E6FE012321226946D42035
:1041B000FFF7E0FE01BD80B500218DF8021000215F
:1041C0008DF8011000218DF800109DF80220037871
:1041D00081780B431A438DF802209DF80120C178A5
:1041E0000A438DF801209DF80010407801438DF8B6
:1041F0000010012310220DF10201D420FFF7BAFEB6
:10420000012312220DF10101D420FFF7B3FE012397
:104210001E226946D420FFF7ADFE01BD80B5002106
:104220008DF800109DF80020037841780B438078CA
:1042300003431A438DF80020012322226946D4202B
:10424000FFF798FE01BDE0B500218DF804100021B4
:104250008DF8031000218DF8021000218DF8011057
:1042600000218DF800109DF80420837801790B431C
:104270001A438DF804209DF80320C1780A438DF875
:1042800003209DF80020037841780B431A438DF8F2
:1042900000209DF802204379C1790B431A438DF821
:1042A00002209DF80110807901438DF8011001234F
:1042B000202201A93820FFF75DFE012321220DF104
:1042C00003013820FFF756FE0123222269463820D9
:1042D000FFF750FE012323220DF102013820FFF7E2
:1042E00049FE012324220DF101013820FFF742FE8F
:1042F00007BD1FB504000C2318226946D420FFF720
:1043000086FE00200BE0694601EB400149786A46D1
:1043100012F8102012EB012224F81020401C06286D
:10432000F1DB1FBD1CB50400062328226946382096
:10433000FFF76DFE00200BE0694601EB4001497874
:104340006A4612F8102012EB012224F81020401CBB
:104350000328F1DB13BDFEE71D4908431D49086032
:104360007047002100210F23C17800291ED0194970
:10437000096811F4E061D1F5E061090AD1F10402A4
:10438000CB40417811FA02F281780B401A431201B6
:1043900011490378CA540121027812F01F0291409A
:1043A0000E4A0078401142F8201009E001210278FD
:1043B00012F01F0291400A4A0078401142F8201082
:1043C0007047084A114008430749086070470000D9
:1043D0000000FA050CED00E000E400E000E100E080
:1043E00080E100E080FFFF1F08ED00E00021DFF822
:1043F000F820116811F03801084310607047DFF8A9
:10440000E8100A6832F010020A600A681043086077
:104410007047DFF8D800DFF8D8100160DFF8D4105B
:1044200001607047DFF8D000016851F08001016041
:10443000704770B50500042040F6FF76300000F0AC
:1044400061F80100C9B2042918D1DFF8AC40206836
:1044500050F002002060DFF8A4000560206850F0F2
:1044600040002060300000F04DF80100C9B205297D
:1044700004D0226841F6FD710A402260C0B270BDCE
:1044800070B504000D0004200F2000F03BF801007F
:10449000C9B2042911D1184E306850F001003060C3
:1044A00025800F2000F02EF80100C9B2052904D0A4
:1044B000326841F6FE710A403260C0B270BD04201D
:1044C0000F480168C90701D501200AE001684907C2
:1044D00001D5022005E00068C00601D5032000E0F8
:1044E0000420C0B2704700000020024004200240B7
:1044F00023016745AB89EFCD102002401420024014
:104500000C20024010B504000420FFF7D8FF04E09F
:1045100000F00EF8FFF7D3FF641E0100C9B20129B5
:1045200001D1002CF4D1002C00D10520C0B210BD67
:1045300081B000200090FF20009002E00098401E13
:10454000009000980028F9D101B0704780B58049EB
:1045500088420AD101215FF00070FFF7E2FA0021E2
:104560005FF00070FFF7DDFA09E001215FF0806085
:10457000FFF7D7FA00215FF08060FFF7D2FA01BDA4
:1045800000220022036833F002030360036853F043
:104590000103036000E0521C4368DB0703D44FF6BD
:1045A000FF739A42F7D14268D20701D400206AE033
:1045B0008A79012A04D1026852F08002026003E085
:1045C000026832F080020260CA79012A04D10268CE
:1045D00052F04002026003E0026832F040020260E2
:1045E0000A7A012A04D1026852F02002026003E034
:1045F000026832F0200202604A7A012A04D102687D
:1046000052F01002026003E0026832F01002026011
:104610008A7A012A04D1026852F00802026003E09B
:10462000026832F008020260CA7A012A04D10268E4
:1046300052F00402026003E0026832F004020260F9
:104640008A78CB781B0653EA82730A7953EA0243CD
:104650004A7953EA02530988491E0B43C361016832
:10466000490849000160002100E0491C4268D20766
:1046700003D54FF6FF729142F7D14068C00701D5CC
:10468000002000E00120C0B2704770B40021012179
:10469000827A11FA02F22F4B196851F00101196068
:1046A0002D4C216891432160017B002913D12B49B6
:1046B0000D6895430D602A49C588468856EA054627
:1046C000857A41F83560857A01EBC50185880688D1
:1046D00056EA05464E60017B012913D11F490D683A
:1046E00015430D601E490588468856EA0546857AB9
:1046F00041F83560857A01EBC5018588C68856EAA0
:1047000005464E60C17A002904D116490D689543CB
:104710000D6003E013490D6815430D600189002900
:1047200003D111490D6895430D600189012903D119
:104730000D490D6815430D60407B012802D12068AA
:1047400002432260186840084000186070BC70473F
:1047500000640040006600401C6600400C6600409B
:10476000406600400466004014660040D2B2002A51
:1047700003D042691143416103E0426932EA010119
:104780004161704730B400228268520101D5002295
:104790000AE08268120101D5012205E08268D20098
:1047A00001D5022200E004221300DBB2042B00F04A
:1047B00084801300DBB21B010344D3F8803113F073
:1047C00001031400E4B224010444C4F880310B7ADC
:1047D000002B11D11300DBB21B010344D3F880314D
:1047E0000C684D7A55EA44552B431400E4B2240179
:1047F0000444C4F8803112E01300DBB21B0103440F
:10480000D3F880414B680D7A55EAC3054B7A1D43B6
:104810002C431300DBB21B010344C3F880418B7AA5
:1048200013F00F038B721300DBB21B010344D3F8A8
:1048300084311B091B011400E4B224010444C4F8B0
:1048400084311300DBB21B010344D3F884418B7A1B
:104850001C431300DBB21B010344C3F884418B7B70
:104860004C7B240454EA03640B7B54EA0324CB7A84
:104870001C431300DBB21B010344C3F888418B7C4B
:104880004C7C240454EA03640B7C54EA0324C97B63
:104890000C431100C9B209010144C1F88C41110057
:1048A000C9B209010144D1F8801151F0010113008E
:1048B000DBB21B011844C0F880111000C0B230BC3C
:1048C0007047C9B2002902D12021C16001E0202136
:1048D0000161704780B50B00DBB21B010344D3F8C4
:1048E000B03113F004031372137A002B08D10B00BC
:1048F000DBB21B010344D3F8B0315B0D136007E05A
:104900000B00DBB21B010344D3F8B031DB0853606A
:104910000B00DBB21B010344D3F8B03113F00203E8
:1049200053720B00DBB21B010344D3F8B43113F014
:104930000F0393720B00DBB21B010344D3F8B431B5
:104940001B0AD3740B00DBB21B010344D3F8B8314C
:10495000D3720B00DBB21B010344D3F8B8311B0A3E
:1049600013730B00DBB21B010344D3F8B8311B0CEB
:1049700053730B00DBB21B010344D3F8B8311B0E99
:1049800093730B00DBB21B010344D3F8BC31D37328
:104990000B00DBB21B010344D3F8BC311B0A1374B8
:1049A0000B00DBB21B010344D3F8BC311B0C537466
:1049B0000B00DBB21B010344D3F8BC311B0E937414
:1049C000C9B2FFF77EFF01BD042926D0052919D001
:1049D00006291AD007291CD0082921D0202922D045
:1049E000402923D0B1F5807F23D0B1F5007F25D0B9
:1049F000B1F5806F27D0B1F5803F29D0B1F5003FE8
:104A000029D02BE00121816028E04FF48071816082
:104A100024E05FF48031816020E00821C1601DE066
:104A20001021C1601AE00821016117E01021016125
:104A300014E081694908490081610FE0816931F022
:104A4000020181610AE0816931F00401816105E0C0
:104A50000821416002E010214160FFE7704700003B
:104A600080B53F4988420AD101214FF40060FFF729
:104A70004AF800214FF40060FFF745F854E0B0F128
:104A8000804F08D101210120FFF74BF800210120C0
:104A9000FFF747F848E03349884208D10121022056
:104AA000FFF73FF800210220FFF73BF83CE02E49DA
:104AB000884208D101210420FFF733F800210420A7
:104AC000FFF72FF830E02949884208D1012108205A
:104AD000FFF727F800210820FFF723F824E02449F6
:104AE000884208D101211020FFF71BF80021102077
:104AF000FFF717F818E01F49884208D1012120204C
:104B0000FFF70FF800212020FFF70BF80CE01A49FF
:104B1000884209D101214FF40050FEF7F4FF002133
:104B20004FF40050FEF7EFFF01BD10B4028812F001
:104B30008F0202800388CC884A8814432343038071
:104B40008A8882850A880285054A904202D00A4AEC
:104B5000904201D1097A01860121818210BC7047FF
:104B6000002C01400004004000080040000C004000
:104B7000001000400014004000340140C9B2002978
:104B800004D0018851F00101018004E0028840F264
:104B9000FE310A4002807047D2B2002A03D08289D7
:104BA0001143818103E0828932EA010181817047EA
:104BB00089B2C9430182704780B501210820FEF700
:104BC00086FF0220ADF8000010208DF803000120C0
:104BD0008DF8020069460A48FEF7F2FF01BD80B574
:104BE000C0B2002805D0012202210548FFF748F88D
:104BF00004E0002202210248FFF742F801BD000054
:104C0000000C014038B5040015008C4208DB01207F
:104C1000FFF7E5FFAC4203D10020FFF7E0FF0024DF
:104C2000200032BDC0F3C7517E390EDDC217D1F16D
:104C3000200106DD000240F00040C8401044504012
:104C40007047D04380F0004070470020704700005C
:104C500070B506003000FFF74CFB16F11800FFF7A7
:104C600061FB464CB6F9000000F090FA210000F01C
:104C7000BDF9434900F09CFAF062B6F9020000F079
:104C800085FA210000F0B2F93D4900F091FA306355
:104C9000B6F9040000F07AFA210000F0A7F93849CB
:104CA00000F086FA7063374C374DB6F9060000F015
:104CB0006DFA00F071F822002B0000F091F800224C
:104CC000324B00F0F3FA00F05DF93062B6F90800FB
:104CD00000F05CFA00F060F822002B0000F080F891
:104CE00000222A4B00F0E2FA00F04CF97062B6F9AB
:104CF0000A0000F04BFA00F04FF822002B0000F001
:104D00006FF80022214B00F0D1FA00F03BF9B062BD
:104D10001F4C204DB6F9180000F038FA00F03CF8AE
:104D200022002B0000F05CF80022184B00F0BEFAC5
:104D300000F028F9B063B6F91A0000F027FA00F085
:104D40002BF822002B0000F04BF800220F4B00F054
:104D5000ADFA00F017F9F063B6F91C0000F016FA8E
:104D600000F01AF822002B0000F03AF80022074B5E
:104D700000F09CFA00F006F9306470BD00008CC2AF
:104D800000007A4408AC1C5A643BCFBF00408F40FF
:104D90008FC2F5285C8FD2BFC0F3C75181B1FF2904
:104DA00006D0C110400721F0E04101F16051704789
:104DB00041020CBF40F4E0016FF000410020704759
:104DC00000F0004100020AD0B0FA80FC00FA0CF0BA
:104DD00001F16051A1EB0C5101EBD021400570476E
:104DE000B0B581EA030C0CF0004C40F2FF7515EAF7
:104DF00011541DBF15EA1357AC42AF4239E0E41914
:104E000023EA455343F48013C90241F0004141EACB
:104E1000505EC7021100A7FB020200284FF00000FD
:104E2000EEFB01204FF00001E3FB072118BF42F029
:104E30000102401800214941E3FB0E01A4F5806402
:104E40000F0302D252004041494154F101046CDD8C
:104E5000470872F1004250F1000051EB0451A1F5F6
:104E600080115CBF41EA0C01B0BD4CEA0551002045
:104E7000B0BD05EA1357AC4214BFAF4241E050EA5F
:104E8000410E1CBF52EA430E02E061460020B0BD55
:104E900024423C441BD15FEA070EF6D0090302BF4F
:104EA00001460020AEF1140EB1FA81F7AEEB070413
:104EB00001FA07FE0C37C7F1200100FA07F7C840D6
:104EC0004EEA000E23EA455343F48013A2E733F081
:104ED0000043B3FA83F704BFB2FA82FE77440B3F74
:104EE000E41BB7F1200E2FBF02FA0EF3BB40C7F14F
:104EF000200E22FA0EFE38BF43EA0E03BA40641CAD
:104F000082E750EA410E14BF52EA430E6FF00001EF
:104F10004FF4001717EB430F8ABF194617EB410FE9
:104F2000B5E74CEA05510020B0BDD4F10104B4F15D
:104F300020070FDAC4F12007520828BF42F001020F
:104F400010FA07F501FA07F7E1BF2A43E0403843BA
:104F5000E1400FE0352C98DCC7F1200452EA400212
:104F600020FA07F218BF42F0010231FA07F0A1401F
:104F70000A43002172F1004250F1000051EB0C0194
:104F8000B0BD000001F000428B1AA3F16051B1F5F1
:104F9000801F0ADBB1F17F6F1FD242EAC102C1005C
:104FA00071F1004142EB507070470B15C3F10903DA
:104FB000212B10D2890241EA9051800201284941F7
:104FC00041F0004121FA03F0C3F12003994071F14F
:104FD000004150417047100070476FF0000013EB24
:104FE000103F5CBF000E42EAC0507047FF2212EA39
:104FF000D05C1DBF12EAD153944593422BE09C44F0
:10500000D30780EA01021A4043EA002043EA012163
:10501000A1FB0030C04238BF40007CF17F010BDBB8
:10502000FE294ADA5B0842EAC15153EA006373F190
:10503000004C51EB10207047D1F1080CDCF120013D
:105040002FDB5B0810FA01F10B4320FA0CF073F12F
:1050500000415041704794451CBF02EAD15393422E
:1050600080EA010202F000421DD0400019D0490040
:1050700017D05BB9634514D00902B1FA81F39940A6
:10508000BCEB030CC00140F00040C1E70002B0FAE5
:1050900080FC10FA0CF0B3EB0C0CC90141F000419C
:1050A000B6E71000704740000AD0490008D010F160
:1050B000807F94BF11F1807F02E042F0FF40704793
:1050C000D043704704490868002800D172B60868C8
:1050D000401C0860704700BFE800002004480168D9
:1050E000491E01600068002800D162B6704700BF09
:1050F000E800002010B4002203686FF30E138C68E0
:105100000A6A14430A6914434A6914438A691443B6
:10511000CA6914434A6A14438A6A144323430360E6
:10512000CA6842600A6882604968C16010BC704702
:10513000C9B2002904D0016851F00101016003E007
:105140000168490849000160704700210021C10041
:1051500002D50C49096801E00B490968014201D0F8
:10516000012000E00020C0B27047C10002D5044910
:10517000086001E001490860704700000400024037
:10518000040402400004024000000240C2175040E4
:10519000801AB0FA80F10AD08840D1F19D01D2077F
:1051A00042EAC151020672F1004241EB1020704701
:1051B00010B5FF2313EAD0541DBF13EAD1529C420D
:1051C0009A4239E0A41ADA0780EA0103134042EA5E
:1051D000012142EA0020421A3CBF641E01EB420258
:1051E000090AB2FBF1FE01FB1E221202B2FBF1F032
:1051F00001FB10226EF30F201202B2FBF1FE4EEA09
:1052000000207F3406DDFE2C24DA53EA500050EBF8
:10521000C45010BDD4F1020401FB1E2240F0807185
:10522000192C1DDC21FA04F0C4F12004A140114323
:1052300071F10042584110BD9C421ABF03EAD1529D
:105240009A420FE080EA010E0EF00043400004D0C5
:10525000490016D143F0FF4010BD490008BFD343B9
:10526000180010BD9C4205D1D21AF7D001F00041C0
:10527000484010BD4A0212BF0846484000F00040B6
:1052800010BD4AB90902B1FA81F2914044B1A418A3
:10529000C00140F000409EE7C90141F00041524288
:1052A0000002B0FA80F4A040141B94E7F0B540F27D
:1052B000FF7581EA030C0CF0004C15EA11541DBF78
:1052C00015EA1357AC42AF42E5E0BC41C1F313010C
:1052D000C3F31303801A994143F4801304D2641E6C
:1052E0004000494180185941C90241EA5051B1FB7F
:1052F000F3F603FB1611A2FB0675D7EBC020A941FC
:1053000002D2761E80185941C90241EA5051B1FBC0
:10531000F3FE03FB1E11A2FB0E75D7EBC020A941C3
:1053200003D2AEF1010E80185941890241EA905131
:10533000760546EA8E2EB1FBF3F603FB1611A2FBAF
:105340000675D7EB8020A94102D2761E80185941FC
:10535000C90241EA50514EEA060EB1FBF3F603FBD7
:105360001611A2FB0675D7EBC020A94102D2761E0A
:1053700080185941C90241EA5051B1FBF3F703FBD0
:105380001711A2FB0735D3EBC020A94167F1000735
:105390000CBF004247F0010766F3D5274FEA1E31E4
:1053A000B80814F5806412DDBD0775F1004250EBBA
:1053B0000E5051EB045111F5801F5CBF41EA0C0106
:1053C000F0BD4CF07F6141F0E0410020F0BDBD0731
:1053D0006D0840EA0E5041F48011D4F10104B4F19B
:1053E00020060ADAC4F120060200E04001FA06F3C2
:1053F000E1401843B24015430EE0342C13DCC6F1F3
:10540000200445EA40056D0820FA06F2154321FA0A
:1054100006F0A1400D43002175F1004250F100005B
:1054200051EB0C01F0BD00205FEA0C01F0BDCFB9DB
:1054300092185B41B3FA83F704BFB2FA82F6BF1940
:105440000B3FB7F120062FBF02FA06F3BB40C7F1AE
:10545000200622FA06F638BF3343BA401CB1E419DD
:10546000641E33E77F4231F00041B1FA81F404BF9A
:10547000B0FA80F6A4190B3CB4F120062FBF00FA55
:1054800006F1A140C4F1200620FA06F638BF3143E8
:10549000A0403C1B1AE7AC421ABF05EA1357AF42C3
:1054A00012E050EA41061CBF52EA4306BFE750EA49
:1054B0004107304661461CBF41EA0551F0BD52EA42
:1054C000430C08BFC143F0BD00204FF4001616EB9B
:1054D000410F98BF16EB430F08BF16EB410F24BFD7
:1054E000C14305E016EB430F0CBF61464CEA055182
:1054F000F0BD30B450F8041B79B10268436802442F
:105500000830DC0744BFA9F10104E31852F8045B3A
:1055100043F8045B091FF9D1ECE730BC7047000089
:1055200010B5074979441831064C7C44163404E020
:105530000A68081D114488470146A142F8D110BDF0
:105540002C0000004C0000007047FEE7FEE7FEE77D
:10555000FEE7704770477047704780B5FEF733F934
:1055600001BD80B5FEF74BF801BD00004BE3FFFF26
:10557000D8000000180000200000000077FFFFFFA7
:105580001400000054000000000000200000000093
:1055900000F00DF8002801D0FFF7C2FFAFF3008044
:1055A0000020AFF30080FEF77BF900F002F8012045
:1055B000704700F001B800000746384600F002F8D6
:1055C000FBE7000080B5AFF30080024A110018200D
:1055D000ABBEFBE72600020000000000010203044E
:1055E000010203040607080902040608AFF300805D
:0855F000AFF30080FFF7CCFFD0
:04000005080055EDAD
:00000001FF
