:020000040002F8
:10600000786500209DC902004F9E020027A3020070
:10601000D3A502002FA8020043AC0200000000003C
:106020000000000000000000000000008FAD020032
:10603000C3AD020000000000C7AD0200EBAD0200DE
:10604000D7A80200EFAF020035670200C9B2020014
:10605000A1C50200A7C6020077730200B3C6020002
:10606000F9CA0200FBCA0200FDCA0200FFCA020010
:1060700001CB020003CB020005CB020007CB0200DC
:1060800009CB0200B1AB02000BCB02000DCB02002A
:106090000FCB020011CB0200F79B020013CB0200D2
:1060A00015CB020017CB020019CB02001BCB02005C
:1060B0001DCB02001FCB020000000000000000000A
:1060C00021CB020023CB020025CB020027CB02000C
:1060D00029CB02002BCB02002DCB020000000000D8
:1060E00000000000000000000000000000000000B0
:1060F00000000000000000000000000000000000A0
:10610000000000000000000000000000000000008F
:10611000000000000000000000000000000000007F
:10612000000000000000000000000000000000006F
:10613000000000000000000000000000000000005F
:10614000000000000000000000000000000000004F
:10615000000000000000000000000000000000003F
:10616000000000000000000000000000000000002F
:10617000000000000000000000000000000000001F
:10618000000000000000000000000000000000000F
:1061900000000000000000000000000000000000FF
:1061A00000000000000000000000000000000000EF
:1061B00000000000000000000000000000000000DF
:1061C00000000000000000000000000000000000CF
:1061D00000000000000000000000000000000000BF
:1061E00000000000000000000000000000000000AF
:1061F000000000000000000000000000000000009F
:1062000081B00022425040580090009901B0704780
:10621000405837E1D0F80403084018BF0120C0B24D
:106220007047C0F81425C0F80C157047C0F8081561
:10623000C0F810257047D0F81805C0B27047012289
:106240004250704730B5039D049C41EA420141EA47
:1062500083014FF0A04241EA052102EB800041EAB0
:106260000441C0F8001730BDE0B500F00BF8012183
:1062700005E0E0B50B460021002201910092FFF7F6
:10628000E1FF07BD00210191009100230122704729
:106290000121DFF8702401FA00F01060704700005F
:1062A000F8B504460D46217917462C23DFF858240B
:1062B00013FB01F3D61896F82A0008B10820F2BDA6
:1062C0000FF26C4050F82110206800F036FA08B147
:1062D0001120F2BD286810F1010F04D0FFF7D8FF9C
:1062E0002868FFF7C1FF686810F1010F1CBF00218B
:1062F000FFF7BFFF2068A969C0F824156A7D297DD2
:106300000A43C0F86C2529686A68FFF78AFF287D70
:10631000012814D1A86810F1010F1CBF0021FFF75C
:10632000A8FFE86810F1010F04D0FFF7B1FFE8689B
:10633000FFF79AFFAA68E9682068FFF777FF7760A0
:1063400029697068316060B32D7F20684FF48E71C9
:10635000FFF756FF20684FF4A271FFF751FF206846
:10636000DFF8A813C0F80413000300166901002821
:1063700003D4DFF89C23115406E0DFF8983300F0D3
:106380000F00184400F8041C21680903091608D4FA
:10639000012201F01F00DFF880338240490943F8F1
:1063A000212004202168C1F8000500220020B261EC
:1063B000F06186F829007061012186F82A10F2BD8B
:1063C00038B50D4604464FF48E71FFF719FFA868E3
:1063D000296A405C2A6A521C2A62C4F81C0531BD35
:1063E0002DE9F041054617462A790E462C20DFF8A4
:1063F000181342438C18284600F03EF808B11120CB
:1064000038E06761A6602062002184F828104FF40C
:106410008E712868FFF7F4FE28680121816000264C
:106420002146FFF7CDFF606818BB2F68D4F81480B1
:1064300003E021463846FFF7C3FF206A40450CD2EF
:106440004FF48E713846FFF7E3FE0028F1D194F83F
:1064500028000028F4D00F2609E028684FF48E7138
:10646000FFF7D6FE0028F8D029680120C860002078
:1064700060613046BDE8F0810279A3492C20424397
:106480008818406900B10120C0B2704710B500F013
:106490008EF820684FF48471FFF7B2FE2068BDE8E3
:1064A00010400021CBE670B50D460446A8690028CF
:1064B0004FF48471204605D1FFF7A2FE2046BDE8C7
:1064C0007040B8E6FFF79CFE6E6A2046FFF7B3FE09
:1064D000E9688855686A401C686270BD2DE9F04122
:1064E00006462C23347988485C4307194FF401741D
:1064F000786810B13368C3F80843B86958B1F869CF
:1065000030B1786810B13168C1F8044311204CE013
:106510003961FA610AE0BA61F9607862002197F89E
:106520002900F96110B93046FFF7B0FF786832688A
:10653000002837D14FF4A2711046FFF761FE306892
:106540004FF49271FFF764FE044630684FF4847193
:10655000FFF75EFE804630684FF4A271FFF758FEE9
:10656000054645EA08002043E9D055EA040007D172
:1065700030683946FFF797FF786AB9698842DED3F9
:106580000020B8610CB103200FE00DB10F200CE02A
:1065900097F829003168002807BF012048600122D0
:1065A0000A6001E0C2F804430020BDE8F08104461F
:1065B0004FF49271206823E61FB50346012402912F
:1065C0008DF800400192684619685A6890471FBDCF
:1065D000F8B5024600238DF80030029190680190D2
:1065E0005361684611685268904705B000BD7FB599
:1065F0004A4D4FF400712846FFF70CFE424C4FF411
:10660000017608B34FF4927100F090F8E0B14FF4C6
:1066100092712846FFF7F4FDC5F8086300F080F892
:1066200002208DF800000021D5F88004C5F8800410
:106630000390E161A06962680290A161E06821684D
:1066400001906846904727E004212846FFF7E2FDC5
:1066500010B34FF4847100F069F8E8B12146284680
:10666000FFF721FFA069616A884215D1E06940B156
:10667000E268616AA06100232069E060E36163620F
:1066800007E000F04DF8C5F808630020E268A0615B
:10669000616A2046FFF790FF4FF48E7100F046F8D4
:1066A000B0B16069216A814207D294F8280020B90C
:1066B00021462846FFF784FE0AE04FF48E712846F3
:1066C000FFF79EFD606918B161692046FFF780FF02
:1066D0004FF4A27100F02AF890B14FF4A27128464D
:1066E000FFF78EFD94F8290008B101212960A06907
:1066F00030B10021A1612046E268616AFFF75CFFCA
:106700007FBD000008050050744400208000020096
:1067100000E400E018ED00E000E100E000200040AF
:1067200094F8290008B901216960704728466FE58F
:10673000EF6502000F480168084738B50D460E495D
:10674000884214D100248DF80040684600F01AF801
:1067500008490879002811BF01240D600120087143
:106760009DF8000000F029F80CB1112032BD002086
:1067700032BD00006045002000200040EFF3108093
:1067800072B6704738B50446FFF7F8FF134A9168B0
:1067900071B9012393601249124B1D680D401560B9
:1067A0001960596851604FF0FF325A60002100E0D3
:1067B0000121217000B962B631BD10B5074CA16846
:1067C00059B150B9FFF7DAFF074922680A606368D8
:1067D0004B600021A16000B962B610BD1C450020CD
:1067E000FC06FFBD80E100E000E100E0DFF8E80426
:1067F000DFF8E814401AC008704738B5044689B17C
:10680000FFF7F4FF2568DFF8D824002100E0491CD9
:10681000814205D232F82130AB42F8D1216001E04B
:10682000052032BD002032BD01B56846FFF7E5FF07
:1068300028B9DFF8B004009950F8310002BD0020FB
:1068400002BD0000491EDFF89C24032902EBC000B2
:106850000BD8DFE801F0020406080220704704208C
:1068600070470079704740797047002070470246B2
:1068700000201368C3F3800292B103F003000128E3
:1068800007D0022801BF086800EB9350801C086005
:1068900005E00A68C3F383108218921C0A60012085
:1068A000704780B50021DFF8400400F02BFA80F338
:1068B000100002BD2DE9F84185B00D4600218DF88C
:1068C00000109046DFF8087404466846FFF75AFF48
:1068D00078682860A61C3AE0054602980199800D68
:1068E000C01C01EB900125E0019907F10C0001F0BB
:1068F000FF0100EB810001A9FFF7B9FF0028F3D1E8
:10690000019A07F10C0100F0C5F90199491C012811
:106910000191F5D90299BDF80E0001F0030101299A
:1069200002D00229D8D006E0054602980199C0F3AA
:1069300083104118019107F2144000F02DFA08B1BC
:106940000198B860294607F21C4000F00BFA7968FC
:10695000B868C1F580714118B14216D2012107F221
:106960001C4000F0FFF907F5836000F013FA07F20E
:10697000144000F00FFAB868019007F10C0100F024
:10698000FF00002501EB8000B5E7B8F1000F05D04E
:10699000A40104F4707444F0050402E0A40544F07A
:1069A000060407F10C00397940F821407868361860
:1069B0009DF800007E60FFF700FF012006B0BDE8F3
:1069C000F0812DE9FC470446884615469A46012287
:1069D00069465046FFF76EFFDFF8F46248B300984F
:1069E000801C002106F10C0207E055F8217000F030
:1069F000FF0342F82370401C491C5145F5D3009D0C
:106A0000FFF74FFF06F10C0900F030F8E40049F8F9
:106A1000270024F4707444EA8A14C4F3090406F1CC
:106A20000C0044EA882405F0FF0544F0010440F816
:106A30002540307818B100F029F80028FBD1C04675
:106A4000C046BDE8F38700230022BAE780B5009274
:106A5000012300F009F801BDE0B5009201936A46F8
:106A60000223FFF7AEFF07BD6A46AAE76F1C0004CA
:106A700007F0FF0740EA1440704795488168406876
:106A8000814201D101207047002070472DE9F04379
:106A900085B0FFF7F2FFF8B98D4EC6F81804BFF3C2
:106AA0004F8F06F10C01B068009000F0FF0001EB81
:106AB000800005E006F10C0001F0FF0100EB810011
:106AC0006946FFF7D4FE48B1D6F8180430B97068AB
:106AD00000998142EED3B0600020D2E00020009AFD
:106AE00006F10C0100F0D6F80099491C012800912C
:106AF000F5D90299774801F00301022943D1029D9B
:106B00000299AD0D2F46502DA8BF502565F39F511A
:106B1000029105F1080100F041F95FEA00084FD049
:106B200000F084F900F0B0F8009901F0FF01C1F520
:106B30008070800006F10C02A84202EB810117D29E
:106B400028B9A94606F10C010024002503E081467E
:106B500006F10C042D1A5FFA89F908234A464046CB
:106B600000F0BAF94CB109F10803EAB2214601E09C
:106B700008232A46404600F0AFF90098FF1C00EBBE
:106B80009700009039E0029901F0030101295DD1DD
:106B90000299029AC1F383110529DABF029901F41F
:106BA00070714FF4C07122F4707211430291029916
:106BB000C1F38311891C890000F0F0F85FEA000836
:106BC00044D000F033F900F05FF8082700240FE00C
:106BD0000098411C009106F10C0500F0FF0005EB48
:106BE00080013B460422404600F076F93F1D641CBC
:106BF0000298C0F383108442EAD3D6F81044D6F842
:106C0000180470B1404600F015F935E0E0684179AC
:106C1000012904D122681368414620469847E0685C
:106C20000468002CF2D1404600F004F900208DF8F1
:106C3000040001A8FFF7A6FDD6F8180408B90098CB
:106C4000B0609DF80400FFF7B8FD15E0D6F81044D9
:106C500005E021688A6820469047E0680468002CB7
:106C6000F7D12248DFF8742021A1801AC00800045F
:106C700040F00200FFF7E7FEFFF7FFFE401E8041F5
:106C8000C00F05B0BDE8F0830023082202A94046EA
:106C900000F022B902F0FF0251F8221002AA42F8D5
:106CA0002010401C704710B50948D0F8104401214D
:106CB000017008E0E16801224A71204622685168AB
:106CC0008847E0680468002CF4D110BD0000000083
:106CD000003E002008C90200A0C2020018C2020043
:106CE0000000000018C202001C42002040C2020046
:106CF0004261636B656E647320666C75736865646E
:106D00000000000010B5024652E8000F0C4642E8B1
:106D1000004393F0000FF7D110BD000010B50246FC
:106D200052E8004F44EA010042E8000393F0000FEC
:106D3000F6D110BD10B5024652E8000F00EA01047A
:106D400042E8004393F0000FF6D110BD10B50246A3
:106D500052E8004F04EA010042E8000393F0000FFC
:106D6000F6D110BD10B5024652E8004F04EB010009
:106D700042E8000393F0000FF6D110BD10B50246B3
:106D800052E8004FA4EB010042E8000393F0000F2B
:106D9000F6D110BD0121C1E70021CBE72DE9F0417B
:106DA00005460F462E8A00F0A3F8361F040002D1D4
:106DB0000020BDE8F081F71900200121FF1C20719F
:106DC0006171A046B7FBF6F7E680FFB27F1EC8F8F8
:106DD0000050002607E06179491C6171C8F8000085
:106DE00005608046761CBE4208D2284600F080F836
:106DF0000028F0D1204600F003F8D9E72046D8E774
:106E0000F8B501460D464C79601E002200E0521C88
:106E10002D688242FBD3002605E00F68284600F06B
:106E20008AF83946761CA642F7D3F1BD0121001D30
:106E3000FFF798BF1CB504460121201DFFF79EFFF8
:106E400000909DF8000018B92046BDE81640D7E72D
:106E500013BD2DE9F0471446B0F806804279256845
:106E600046465643361F5F1903F1040CBE42BCFB75
:106E7000F8F234BFF31A2B4608FB12CC2360002A29
:106E800001E00068521EFCD1A8EB0C029A46934226
:106E9000089F4FF0000988BF92460E4605461C46E3
:106EA00016E005EB0C00001D06EB09033900524605
:106EB0000EBF19460146184600F090F8A4EB0A04EC
:106EC000D1442D68A24644454FF0000C88BFC2460D
:106ED000002CE6D1BDE8F0871CB50192002402E049
:106EE0001CB501920124009401AAFFF7B2FF13BD63
:106EF00038B5044600258DF800506846FFF742FC7F
:106F000021686268086882420FD2421E0A601578C2
:106F1000208AE36845431D44A36820689A1A0379D0
:106F2000D2B29A4238BF1A460A719DF80000FFF7A4
:106F300044FC284632BD38B50C46002105468DF884
:106F400000106846FFF71EFC286801684A1C0260B2
:106F5000E8682A8A241AB4FBF2F20A709DF800004D
:106F6000FFF72BFC31BDF0B402461068956813188A
:106F7000506803EB5004C0071BD54D4419E013F8CB
:106F8000017B05F8017B491EF9D190B113F8011B73
:106F9000C6F38106032E08BF13F8016B01EB06212F
:106FA00049422944801C11F8016B05F8016B401E11
:106FB000F9D1A3420ED013F8016B16F0030104BF00
:106FC00013F8011BC91C30090F28DCD113F8010B81
:106FD0000F30D8E7F0BC02F10C0070474AB1000056
:106FE00011F8013B521E00F8013B1CBF11F8013B98
:106FF000F8E7704700F1804000F5C04000680128C4
:1070000018BF002070471CB5044600F009F80021A5
:107010000160204600F004F800680090009913BD5C
:1070200008E14FF0A040704730B5039D049C41EA51
:10703000420141EA83014FF0A04241EA052102EBFF
:10704000800041EA0441C0F8001730BD11B581B09D
:107050000C4601A8FFF7E5FF00F010F8019B00F5D2
:10706000E06221F4403142F8231000F007F800F507
:10707000E06041EA044140F8221013BD00F5E061F0
:10708000019A51F82210704701B56846FFF7C9FF11
:10709000D0F810050099C84000F0010002BD78B595
:1070A0000FF20C4425680095034608E05DF8235074
:1070B000D5F8206542F8046BC5F820655B1C0D18F7
:1070C000AB42F3D371BD02460020510908BF4FF017
:1070D000FF3002F01F02D04000F00100704702466E
:1070E000012002F00703D2089840895C08407047ED
:1070F000DFF89C13084490F93020082A8041C00F23
:107100007047DFF88C13084490F93020082A01DB1F
:107110000120704700207047DFF87413084490F98D
:107120003020D043C00F704710B500F005F8184369
:10713000FFE781F8540010BDDFF8542302EBD001C3
:10714000012491F8543000F0070004FA00F0704771
:10715000F0B5034614004FF0FF3007BF08240C259C
:1071600000240825DFF8286300E0641CAC420ED23E
:1071700056F8247017F1010FF7D1F01880F830405D
:1071800046F8241012B9301980F84830204640B231
:10719000F0BDDFF8FC124FF0FF3241F82020082844
:1071A000A4BF081880F848207047000038B5DFF801
:1071B000E04294F8580008B1082032BD0025E8B23A
:1071C000FFF781FF28B1E9B221444FF0FF3081F889
:1071D00030006D1CEAB2202AF1DB0025E8B2FFF78F
:1071E000D8FF6D1CE8B20C28F8DB04F15400002134
:1071F0000160C021DFF89C0280F806134022026083
:107200004FF4BE70FFF7FFFEDFF88C124FF0004026
:107210000860012284F85820002032BDDFF8700297
:1072200090F8580000B101207047DFF8640205199A
:1072300020465DE700F1804000F5C0407047FEB594
:1072400005460F461646FFF767FF002408B10824DD
:1072500049E0BA78520802F0010231462846FFF7A9
:1072600077FF064616F1010F3CD0B878410717D4D6
:10727000C0070AD54FF0A04101EB8500D0F80017F8
:1072800021F00201C0F8001707E0002101940091ED
:1072900000227B782846FFF7C7FE2846FFF744FF09
:1072A000B8783978820713D57C4A7D4852F8263061
:1072B000034042F826302D0252F8263005F4F855E6
:1072C00009041D4301F440310D4342F826500AE001
:1072D0006F488219304492F8483043EA811380F8AD
:1072E000483000E004242046FEBDF8B50E460446B2
:1072F000674DFFF706FF2F19B0B197F9300028440A
:1073000090F948000006800F032804D12046FFF7BB
:10731000BBFE10B103E0012801D1022100E00321EE
:107320002046BDE8F44091E6FFF782FFD8B197F917
:1073300030405A4850F8241041F0010140F8241020
:10734000A00000F5807000B2FFF75DFE002E1EBFAA
:1073500097F9301055F82100002804D001214E483B
:1073600001FA04F40460F1BD80B5FFF78DFE00B1B1
:107370000120C0B202BD2DE9FC41002500954FF46B
:10738000807601274FF0080830B2FFF733FE00285F
:107390001EBF41480068384203D030B2FFF733FEC9
:1073A0003D437F00361DB8F10108EDD14FF4BE70AA
:1073B000FFF720FE38B14FF4BE70FFF724FE00F057
:1073C00073F845F000452806314F17D001260024F8
:1073D000DFF8C8802E420DD058F8240058F8241049
:1073E00057F82420130005D0090C01F00301C0F365
:1073F000042090477600641C082CEBD3002D43D565
:107400000024381990F9505015F1010F34D0E8B22A
:1074100020F0C00869464046FFF761FE60B34FF0B8
:10742000A04000EB88012D06D1F80067360CAD0FA7
:1074300006F00306022E0CBF032102214046FFF78F
:1074400005FE0120174900FA08F0086007EB080163
:1074500091F9302057F8222010000DD0032D08D0CC
:10746000022E02D1012D07D103E0032E08BF022D09
:1074700002D1294640469047641C042CC1D300F039
:1074800013F800980028BBD1BDE8F381000000008C
:107490005C43002000E100E0046300401065004010
:1074A000FFE0FCFF200500506A4601210020F6E5C0
:1074B0000000005081B000224250405800900099D6
:1074C00001B07047405821E1C0F80C15C0F81425F0
:1074D0007047C0F80815C0F81025704730B5039DF7
:1074E000049C41EA420141EA83014FF0A04241EA93
:1074F000052102EB800041EA0441C0F8001730BDCD
:10750000E0B500F00BF8012105E0E0B50B460021E5
:10751000002201910092FFF7E1FF07BD00210191D8
:1075200000910023012270470121DFF8002401FAB5
:1075300000F0106070470000F8B504460D46217950
:1075400017462423DFF8E82313FB01F3D61896F837
:10755000200008B10820F2BD0FF2FC3050F82110D5
:107560002068FFF7EAF808B11120F2BD286810F191
:10757000010F04D0FFF7D8FF2868FFF7C1FF686844
:1075800010F1010F1CBF0021FFF7BFFF2068A969A0
:10759000C0F824156A7D297D0A43C0F86C25296846
:1075A0006A68FFF791FF287D012814D1A86810F1BF
:1075B000010F1CBF0021FFF7A8FFE86810F1010FC1
:1075C00004D0FFF7B1FFE868FFF79AFFAA68E968FF
:1075D0002068FFF77EFF77607068296931600028B6
:1075E00038D02D7F20684FF48871FFF763FF206843
:1075F0004FF49071FFF75EFF20684FF49271FFF730
:1076000059FF20684FF4A271FFF754FF00F074F89F
:107610002068DFF82013C0F8041300030016690186
:10762000002803D4DFF81023115406E0DFF80C33F0
:1076300000F00F00184400F8041C21680903091623
:1076400008D4012201F01F00DFF8F432824049091A
:1076500043F8212008202168C1F800050022B2610A
:10766000F2617261012086F820000020F2BDF8B5B9
:107670000446174622790E462420AD4942438D1810
:1076800006F06041B1F1005F01D01020F2BD20464C
:1076900000F036F808B11120F2BD4FF490716F611F
:1076A000AE6000262068FFF705FF00F025F8686946
:1076B0002168AB6801F244521360506001228A6075
:1076C0006868B8B920684FF49071FFF7FBFE074671
:1076D00000F0B1F8002F08BF0028F3D008B10F2642
:1076E00006E021680120C86000F0A5F80028FBD062
:1076F000002068613046F2BD20684FF4AC71D9E6D5
:1077000002798B49242042438818406900B1012046
:10771000C0B270472DE9F84F064624253079DFF8CE
:1077200010828946684309F0604408EB0003B4F115
:10773000005F18BF102061D1586800244FF4047A0C
:1077400010B13768C7F808A393469A695AB1DA6945
:107750002AB110B13068C0F804A311204EE0012412
:107760001961584603E0C3F818B0D9600020D86109
:107770004FF488713068FFF79DFE30684FF4A271B6
:10778000FFF798FE316801F234500027C0F80090EE
:10779000C0F804B014B90120086005E0D1F8002257
:1077A00042F02002C1F8002208F1040233796B4351
:1077B000D05800BB30684FF48871FFF783FE8146D4
:1077C00030684FF4A271FFF77DFE044630684FF435
:1077D0009271FFF777FE54EA090108BF0028E9D04B
:1077E000327908F1180115FB02F54F5100B103275A
:1077F0001CB10F2701E0C1F804A33846BDE8F28FA1
:107800001FB50346012402918DF80040019268469D
:1078100019685A6890471FBDF8B5024600238DF8D5
:107820000030029190680190536168461168526877
:10783000904705B000BD20684FF4AC7142E638B502
:10784000404D84B04FF4927100F082F8384CC0B1D2
:107850004FF4927100F07EF802208DF800000021B4
:10786000D5F88004C5F880040390D5F83C0562681B
:107870000290A161E161E06821680190684690474B
:1078800021E04FF4887100F063F8E0B14FF48871A3
:1078900000F060F8D5F83C15A069814213D1E26888
:1078A000E06960B1D5F8000220F02000C5F80002C0
:1078B000E0692369A061E3600020E06100E0A0616D
:1078C0002046FFF79DFF4FF4A27100F041F870B120
:1078D0004FF4A27100F03EF8A06940B10021A1610F
:1078E000E1612046D5F83C15E268FFF789FF4FF4C7
:1078F000907100F02DF848B14FF4907100F02AF823
:107900000121E960606908B100F01EF84FF4AC7124
:1079100000F01EF838B14FF4AC7100F01BF860694C
:1079200008B100F011F805B030BD000008050050A6
:10793000A04400201003420000E400E018ED00E045
:1079400000E100E000200040D5F84C15204663E738
:107950002846B7E52846ADE53F7802000870000AE2
:107960004870022070472DE9FC470A9CDDF82C90F6
:1079700025880026B24607468E46904606E02088B7
:107980009DF80010411821800AF1010A38888245CB
:1079900029DA796851F82A0001900022694601A885
:1079A00064DF50BB9DF800004045EDD19DF800C05C
:1079B0003000208808BF02228444624491451EDBC7
:1079C000310008D1401C2080012680B203F800E07D
:1079D0002088401C2080694620881A1801A864DF8E
:1079E0000028CCD009E03EB12088401B401E80B268
:1079F000B0F5807F03DA58550020BDE8F6870C20EB
:107A0000FBE72DE9FC41089F099C019416460546B9
:107A1000984600970222FFF7A6FF38B90194009715
:107A20004346102231462846FFF79DFFBDE8F68108
:107A30002DE9FE4314460546B4F800904FF00008C7
:107A4000A4F800800F4695F82D0010B3B9F1090F86
:107A50004DD368466DDF28BB2188082078541B234E
:107A600000F068F9062280B20DF101013B5400F0EC
:107A700065F93844FFF7B2FA2188891D218089B25F
:107A80009DF80000400818BF012078542188491C47
:107A90002180A878C0B12188091D894527D368466F
:107AA00079DF08B180462FE121880320785419221C
:107AB00000F044F93A5400F041F93918BDF80000DB
:107AC000FFF74CFF00F028F9E87848B12188CA1C7C
:107AD000914540B20BD302227A54012300F020F9E1
:107AE000686858B1218810F90800CA1C9145C0F097
:107AF000098102227A540A2300F012F9288950B130
:107B000000F005F90622022105F10800FFF779FFD0
:107B10005FEA0008C7D1288A50B100F0F8F80722C0
:107B2000032105F11000FFF76CFF5FEA000827D181
:107B3000288B50B100F0EBF81522142105F1180044
:107B4000FFF75FFF5FEA00081AD12E6A002E30D0DF
:107B50002088811D8945CAD3318806290EDB40F66D
:107B6000814841454FF6FF7301DB994206D1728887
:107B7000062A03DB424504DB9A4208D04FF007088F
:107B8000C2E0994218BF9A4201D08A42F6D3052139
:107B90003954122200F0CEF84FF0000800F0D9F866
:107BA00000F0BAF880B239187088FFF7D7FE00F0FD
:107BB000B3F86E6A0EB3B0882188801C4218921CFC
:107BC00091455BD3FF2880F09D80401C7854FF21B5
:107BD00000F0B9F800F0BFF800F09EF8B28852B19A
:107BE000B1680029CAD080B23844FFF7F7F921887C
:107BF000B088411821804FF0000895F82C0000282B
:107C000031D0A86A0028B9D0A846002517E02188FD
:107C1000401C7854162200F08DF800F09AF800F01D
:107C20007BF8B28852B1B1680029A7D080B238443D
:107C3000FFF7D4F92088B188081820806D1CE8B2BD
:107C400098F82C1088420BD2D8F82800EAB20C2100
:107C50004A438618B088801CFF28D8D3884653E052
:107C600045464FF00008287800284DD0012804BF71
:107C700069780029D9D021888B1C994542D30128E5
:107C800004D168780818801C81453BD3A9EB01001A
:107C9000821EADF80020B81C2388694618447DDF99
:107CA0005FEA000830D12878022804D06978BDF84E
:107CB0000030994206D3BDF8003091B2994228BFF6
:107CC00009210CD20821012807D16B7892B2934286
:107CD00088BF1346ADF8003001E0ADF80020BDF8D4
:107CE0000000FF280ED22288401CB8544FF0000834
:107CF00000F029F82188491C2180BDF800004118B6
:107D0000218001E04FF00C084046BDE8FE83CDF82D
:107D1000049000943B4670472188081820807047E3
:107D20002188491C218089B27B542188491C2180EB
:107D300089B278542088401C208070472088401CDD
:107D4000208080B270472088401C208080B2395447
:107D5000704780B23A542088401C208080B2391885
:107D60003088FBE5F0B5002818BF002A21D0002597
:107D70000C4602E0865DAD196D1CAEB2771CA742C1
:107D800008DAB2F800C0AFB26745F3D387197F783D
:107D90009F42EFD1ABB28B420BD2805DAD1C00286D
:107DA0001EBF401E81B2002903D011FA85F18C421A
:107DB00001DA0020F0BD158080B2F0BD38B5134661
:107DC00000250446ADF800506A46FFF7CBFF10B11E
:107DD000BDF80000204432BD00F02ABA38B5044690
:107DE0002078C8B9002509E02169485D00F001FB51
:107DF00018B11128F8D000F01BFA6D1CA08A85423A
:107E0000F2D32269104410F8011C0D2904D10A2074
:107E100000F0EFFA1128FAD031BD007840B9DFF850
:107E2000AC23908D3B2176DF002818BF00F000BA0C
:107E3000704700F0FDB980B5002000F067FC08B184
:107E400000F0F6F900F01DFD08B100F0F1F933DFA4
:107E500000B10BE001BD80B530B1032805D102208F
:107E600000F054FC08B101E0A7E001BDBDE802400C
:107E700000F0DEB938B5452000F0BBFA0024DFF889
:107E80004C5305F13000204400F09BFA641C242C74
:107E9000F7D395F828002870242205F13001681CDA
:107EA000FFF79CF8AB8D05F15C02294605F16000F7
:107EB00000F052FE132804BF95F829000128F1D0E4
:107EC000002185F8291031BD38B5C04C05462988F8
:107ED000A08D10290ED011291DD0132927D02129BA
:107EE00020D03B292DD0522926D0562929D05729D8
:107EF0002FD031BD072000F009FC08B100F098F93F
:107F0000A988A18504F2345000F078FE08B100F091
:107F10008FF9012003E04FF6FF71A185002084F85E
:107F20002A0031BDB5F80400BAA18FDF0CE00023B0
:107F3000002285217FDF07E0002300220021B1DF3E
:107F400002E0A888132176DF30B1BDE8324000F0AE
:107F50006FB9012084F8290031BD704710B59C4CE1
:107F60009C49204600F002FF08B100F061F9F721BA
:107F7000204600F00AFF18B1BDE8104000F058B9E3
:107F800010BD80B591498A8D042804D0072806D0F9
:107F90000A2811D111E01321104676DF07E04FF6D1
:107FA000FF70824208D101F5A86001F0CEF90828DF
:107FB00018BF002800D059E701BDBDE801403AE7ED
:107FC000704780B5032001F021FA804991F82A001A
:107FD00078B1886D401C6F2888650AD17E48026898
:107FE000D34303F01003436002F0100282600020CC
:107FF0008865BDE801403DE718B57848ABB003217E
:10800000C0F808121022714C026004F67811009139
:1080100004F678224FF480710191029203910723B4
:10802000DFF8BC217CA0694600F080F908B100F0BF
:10803000FFF801F045FA08B100F0FAF8002001F06D
:1080400068FA01F04BFC08B100F0F2F8DFF8942177
:108050006FA0012101F069FC08B100F0E9F8624964
:10806000032000F05FFB08B100F0E2F801F0CCFC67
:1080700008B100F0DDF801F06BFD08B100F0D8F8B0
:10808000002000906946012001F0CAFD08B100F00F
:10809000CFF8684601F058FE08B100F0C9F8112089
:1080A0008DF800005FF00E0255A168467CDF08B134
:1080B00000F0BEF801A90020C1E9000006220C2151
:1080C000ADF80420ADF8061004224FF4FA71ADF8B3
:1080D0000820ADF80A1001A87ADF08B100F0A8F86E
:1080E000FFF73CFF41480090694604F2345000F02D
:1080F00071FD08B100F09CF801A80021C0E9001151
:1081000004F160003A49019101A900F0B1FC08B105
:1081100000F08EF8AC21684601F096FE05228DF83D
:108120000320012104F6741214928DF80210ADF8A8
:108130004C108DF87C104022229202204FF4E16115
:108140008DF80000239169462A4A299204F5A86017
:1081500000F03DFF08B100F06BF8012104F5A860C4
:1081600000F032FF1C21684601F06EFE00210091F4
:108170004FF4A0224FF4A03101920291032200217A
:108180008DF80C20ADF80E108DF8101068461A49C5
:108190001A4A0591069201F0BCFE08B100F048F8B9
:1081A000032104F5A86000F087FF08B100F040F853
:1081B0000022932104F6783001F0C8FBFEF766FC3C
:1081C0000028FBD101F02DFCF8E70000F82E00207C
:1081D000E04400205B7F02000405005008050050C9
:1081E000C17F0200C37F0200837F0200D97D0200AD
:1081F000DD7D0200577E02001B7E0200337E0200FE
:108200004E6F726469635F554152545F30330000B2
:10821000703A002000000000080000000600000086
:1082200005000000070000000000000000705F076C
:108230001FB5694600220023002481E81C0002903B
:108240006A46002144F2010001F028FF1FBD4300EF
:1082500038B505787B4C635D23B1BDE83840001D1F
:10826000FFF705BABDE838400C30FEF7B9B838B5AD
:108270000578744C635D23B1BDE83840001DFFF7FD
:1082800049BABDE838400C30FEF728B90146886885
:10829000C968081A70473EB502786B4C002A2ED088
:1082A000022A23D040D2017AD1B140680178204619
:1082B00001F058FFA56A20B101228DF8002001903D
:1082C00006E02046FFF7E2FF20B100208DF8000015
:1082D0006846A8472046FFF7D9FFA188814202D30C
:1082E00000F081F837BD0120207437BD02218DF8E0
:1082F00000100122C068019000F076F811E004F14E
:108300002C0104F1300001F03AFF38B9012204F1E8
:108310002C0104F11400FFF79BFF37BD03208DF8FB
:1083200000006846A16A884737BD0000F8B5464E90
:1083300005460C0088B01F46B26208BF07203ED039
:108340006268216892B2304601F0F9FE002836D109
:10835000E268A16892B206F1300001F0F0FE70BB55
:108360004FEA0D003AA12022FEF738FE6869069018
:10837000297C01B101218DF814108DF81C70687CE6
:1083800000B10E208DF81500304AE8680290A86808
:10839000039006F11400296801916968009169460B
:1083A00001F00EFF58B93074296811F1010F06D0A1
:1083B000012206F12D0106F11400FFF758FF09B064
:1083C000F0BD70B5204C267C0146204601F0D7FE5A
:1083D000054636B10020207400F005F808B1FFF71B
:1083E00027FF284670BD012204F12D0104F114007D
:1083F0003DE738B50146144D05F1300001F0B2FEFD
:1084000004001CD12A7D0F49885C20B105F11800B9
:10841000FFF776F903E005F12000FEF72DF870B9BB
:1084200005F12C0105F1300001F0A9FE38B9012257
:1084300005F12C0105F11400FFF70AFF0446204660
:1084400032BD000034450020903A0020978202009F
:10845000FFFFFFFFFFFFFFFFFFFFFFFFFFFFFFFF2C
:1084600000000000000000000000D601060100002E
:108470002DE9F8438046894600F0E4FF00240428F3
:108480002FD2DFF8546300EB400175183718B9F1AB
:10849000000F14D0B9F1020F1AD01AD22C786878D4
:1084A00050B106F10F024FF4804106F1600001F077
:1084B0004DFA08B986F80F80A878387609E006F1F9
:1084C000600001F071FAAC78387EA04209D100E07A
:1084D0006C7820001CBF7169002902D0BDE8F4430C
:1084E0000847BDE8F18380B5007800F0ABFF0428B1
:1084F0000CD2B94900EB40000844407802001CBF90
:108500004969002902D0BDE80440084701BD10B503
:10851000B149887B50B1002401E0022C02D02046F2
:1085200000F05EFF641C042CF7D310BDBDE81040C2
:1085300000F05ABF2DE9F84FA74D0746687B00248D
:1085400010B16C73FFF7E3FF3E46172E41F69A1801
:108550004FF4803940F6CD4A40F2666B00F29C80C1
:10856000DFE806F00C15152733414E545961596167
:108570006E7272727272A2A7AEB5BFBFFFF7C7FF6D
:1085800005F1200001F010FA044600208FE000F011
:10859000ACF838B100F0ACF8022F14BFC84647F26F
:1085A000333804E000F018FF022F08BFD0462F73C5
:1085B00016E000F09AF820B100F09AF843F2333A4E
:1085C00001E000F009FF032016E000F08EF818B17A
:1085D00000F08EF8C84601E000F0FEFE042028738B
:1085E0000022414626E000F080F810B100F080F84B
:1085F00001E000F0F1FE052028730022514619E049
:10860000002000F003FF0620287309E0002000F09E
:10861000E3FE07204BE001216973012000F0F6FE24
:108620000022594606E00120687300F0EFFE0022A8
:108630004FF4005105F1200001F088F904462BE0C9
:1086400000F0DBFE0C2032E005F1400001F0ACF957
:10865000D6F11106044622D00CBB012E17D9B0B2B8
:10866000C8267043C117C90341EA5041C00310F541
:108670007A7041F100014FF4FA62002301F0D0FD5D
:108680000146002205F1400001F060F90446022095
:1086900000F0A2FE0120A8732046BDE8F28F022060
:1086A00000F09EFE0020F6E7FFF731FF122028734E
:1086B000F2E7FFF72CFF002000F08EFE1320F6E714
:1086C000FFF725FF012000F087FE1420EFE7FFF7FA
:1086D0001EFF002000F080FE012000F07DFE15202E
:1086E000E5E700F08AFE2F73D6E7002000F070BEA9
:1086F000002000F075BE3848017CCA0744BF007BEB
:10870000FFF718BF7047022000F080BE80B5324AE4
:10871000137C0021DA0702D5FFF70CFF014608465B
:1087200002BD000070B505462B480024056141617B
:10873000A8071ED5002601220121304600F02FF89F
:10874000761C042E044601D2002CF4D08CB940F2E1
:108750003332042137A001F0BBFE04464CB901F0CE
:10876000F2FE04462CB91D4A31A0002101F0DDF8CB
:108770000446E80711D5012000F078FE6CB9184ACC
:1087800029A0002101F0D1F8044634B9DFF85420C3
:1087900026A0012101F0C9F80446204670BD30B57D
:1087A00003460020042B15D20B4C03EB4305012A92
:1087B0002C4405D1012908BF03F10E0204D0002288
:1087C00031B1022902D005D2227030BD627030BDB5
:1087D000A27030BD072030BD782E0020E784020053
:1087E000F78602000787020010B5042817D2002977
:1087F00014BF4FF44034002400F034FE4FF0A04189
:1088000001EB8000D0F8002722F44032C0F80027A6
:10881000D0F800170C43C0F80047002010BD062018
:1088200010BD0121E0E70000982E0020B82E0020A6
:10883000D82E00200D000300718402000E000300FA
:10884000718402000F000300718402001000030015
:108850007184020080B5012200F05AF8002818BF88
:1088600007280DD100F058F8002818BF072807D1B5
:108870000A22002100F04DF8002814BF072800202C
:1088800002BD80B50020FFF7CCFF002818BF0628E6
:1088900006D10120FFF7C5FF002814BF06280020DD
:1088A00002BD10B51F4C014609886068102902D02E
:1088B00011291FD010BDC8B901220021FFF76FFF99
:1088C000002818BF07280CD100F026F8002818BF90
:1088D000072806D1042200F01BF8002818BF07283B
:1088E00004D000281EBF2168002988476068401C0A
:1088F000606010BD401E606009D1FFF7ABFF00282B
:108900001CBF2168002902D0BDE81040084710BDF7
:1089100002210020FFF743BF072202210120FFF7B9
:108920003EBF00004045002038B505460C0018BF8A
:10893000002D8AB006D02888102804D0502838D0BE
:1089400057286BD080E0002100916A46A988D4F8AE
:10895000CC0401F013FE02A80021C0E9001102229C
:1089600001A90391ADF808200021ADF80A1002AA70
:108970006189A888ADDF002866D1D4F8D00400282A
:1089800062D0039801F02CFE00285DD0009808B159
:1089900001210170182104A801F056FA02218DF876
:1089A00010100594A888ADF818000098079004A846
:1089B00047E000F056F800F049F800F04BF8618904
:1089C000E888884204BF2A8A022A17D10098002822
:1089D0003AD005F1120001F003FE20B10099012008
:1089E0000870022202E00099087003228DF804202A
:1089F000D4F8D014002927D001A824E0E1898842C6
:108A000022D1D4F8D004F8B1002105F112028DF87A
:108A100004100592288AADF8180011E000F021F842
:108A200090B90099087800281CBFD4F8D004002819
:108A30000AD000F00BF801218DF8041000F00AF8BC
:108A400001A8D4F8D01488470BB030BD182101A874
:108A500001F0FAB90294A888ADF80C0000980490CF
:108A60007047A988D4F8CC046A4601F087BD00009D
:108A700030B58DB004460D460DF1240051A11022F1
:108A8000FEF7ACFA002C14BF002D0E2062D028682F
:108A9000C4F8D0044FF6FF7029796170E08200219C
:108AA000217609A8A11C62DF002853D1A1788DF896
:108AB00002100122ADF800206946221D0120A8DF26
:108AC000002847D12021FFF7C2FF0220ADF80400A3
:108AD000F422A1789DF811008DF8061040F00C00EA
:108AE00001218DF81100ADF80820ADF80A108DF8BD
:108AF000101004F10E0268798DF817008DF815102A
:108B00008DF8161001A9A08801F088FD10BB202166
:108B1000FFF79DFF0320ADF80400F422A1788DF843
:108B20000610ADF808200121ADF80A1001229DF8C9
:108B300011108DF8102041F010018DF811108DF8F2
:108B400015208DF816208DF81720A21DA08801A9E8
:108B500001F064FD0DB030BDF0B5040085B00D46E8
:108B600016461F4608BF0E2029D0D4F8CC046A460A
:108B7000394601F003FD10BB4FF6FF718F421ABF5B
:108B80000098002805201AD0007808B9082016E0BF
:108B90003088F528A8BF072011DA01A8002100229B
:108BA00000238C4680E80E10E188ADF80410012205
:108BB0008DF806200495039601A93846AEDF05B06E
:108BC000F0BD00009ECADC240EE5A9E093F3A3B536
:108BD0000000406E002818BF002901D10E20704708
:108BE0000278DE2A01D10820704709684160DE2240
:108BF00002704FF6FF7343800020704708B90E20C3
:108C000070470278DE2A01D008207047418000209A
:108C100070470246107A50B15088002166DF10B1CB
:108C2000112802D10120107270475168084770471F
:108C30007FB505460C0018BF002D4AD02078DE28ED
:108C400047D1A8886188884204BF2046FFF7E1FF2A
:108C50002888012804D0112834D051280DD07FBD98
:108C6000297A012902BFA8886188884231D1012070
:108C700020722046FFF7CDFF7FBDA888618888421B
:108C800004BFA879022824D1A87B04281CBF062889
:108C900005281ED16846102101F0D6F802214FF4B4
:108CA000C0768DF80010ADF80460A87B052804BFDD
:108CB0000021ADF80410A8886946B0DF48B16168AA
:108CC00088477FBDA8886188884204BF4FF6FF703F
:108CD00060807FBDF7210180172242800023492256
:108CE0001B21037143718271C1717047F8B500BFD8
:108CF00099A384B0D3E90067CDE90267ADF8081005
:108D0000ADF80A1005460621684601F09DF86A464E
:108D100002A9284690DF040025D001F057FD034644
:108D20008248834E834F861BF608360446F00106C0
:108D30002A4639463046FDF78FFEBDF80000BDF8E3
:108D40000230002808BF002B05D0024607F14C0175
:108D50003046FDF781FEBDF8042022B107F18C01F9
:108D60003046FDF773FE204605B0F0BD80B508B96A
:108D70000E2002BD01614923F7210180418003716A
:108D8000801DFFF7A7FF002002BD08B90E20704725
:108D9000A1F11702E12A01D30720704701800020CA
:108DA0007047000002469088002800D07047F0B558
:108DB0008BB05E4B5E4C10885F4D1C1BE408240496
:108DC000102844F001040E460BD011282ED0232881
:108DD00000F08F8024286ED03A282BD0552847D019
:108DE00091E0B71D3079B871D17B012904D00229F7
:108DF00004D17088388001E03188398039887A88D8
:108E00008A420ED20020A5DF10B90120787108E057
:108E1000112802D10120387103E001F0D7FC00F0E5
:108E20008DF8B979F87988426DD269E0B01DFFF705
:108E300051FF68E0B71D50893988884228BF08462D
:108E40001728B8BF17207880306900281CBF7879B0
:108E5000002809D042A100F076F869467888ADF87C
:108E600004003046326990470020787138714AE03A
:108E7000D088B71D17283988B8BF1720884228BF67
:108E80000846788000203871B5DF38B101F09EFCCB
:108E9000024605F134012046FDF7D8FD7879002817
:108EA00031D1306900282ED02FA100F04CF87888FD
:108EB000ADF8040018E0111D68462C22FEF78EF86C
:108EC000BDF80010BDF8042006EBC1077A73D6F890
:108ED0001000C0B126A0D0E90023CDE90023ADF8F1
:108EE0000210787B8DF8040069463269304690475D
:108EF00009E0B01D12898179D2B2914288BF114632
:108F00000020FFF7F3FEB07A68B1F1880020A5DFFA
:108F100018B90121B072F17205E0112803D001F0F7
:108F200055FC00F00BF80BB0F0BD000030C20200A1
:108F300018C20200E0BF0200A0C202000246294699
:108F40002046FDF783BD0020D1E90023CDE90023B1
:108F5000ADF80200704700000000000000000000B3
:108F6000770A000000000000770A000000000000FF
:108F70007ADA000000000000417939B190F82E142F
:108F800021B990F8300410B10120704700207047DB
:108F900038B504460D46B4F81414D4F81004012270
:108FA000FEF70CFF00B1057004F13C0204F582618C
:108FB00004F1540072DF32BD90F82400012801D181
:108FC000EE2070471F20704780F83010704770B552
:108FD00004460D0018BF002C01D10E2070BD95F87D
:108FE0007A00012804BF95F89800012838D0D5F8F8
:108FF000A00004281CBFD5F89C00042830D000260F
:10900000A670201D05F178012C22FDF7E7FF84F8FA
:109010003060D5F8A41061634FF6FF71D5F8A80051
:10902000A063A4F8241404F58260C4F8200400F0BE
:109030004FF9207810B9FF2184F8541004F155003D
:10904000C4F810042046FFF7B7FFA4F8140404F294
:10905000144204F155012846FEF7EAFC10B170BD38
:10906000072070BD04F23120C4F818042046FFF731
:10907000A3FFA4F81C0404F21C42D4F8181405F150
:109080003C00FEF7D5FCB0B9A169A4F84810012056
:10909000616984F8510084F83C006164266484F8B6
:1090A000506004F13C02002104F1540072DF10B959
:1090B00001202070002070BD38B504460D46207890
:1090C00008B9082032BDA57000F002F9A07910B1EE
:1090D000A078012806D0E07978B1A078012818BFDF
:1090E00002280AD1606B30B1012184F82D140820C8
:1090F000616B884701E084F82D040021601890F826
:10910000270488B9491C0629F8D36D1E032D1BD8E6
:10911000DFE805F0020C1216A17939B194F8241099
:1091200021B948B1012010E00120EEE7E1790029E2
:109130001CBF0028022008D1207A08B1032004E0D7
:10914000607A08B1042000E00020A070606B98B144
:10915000A078032818BF04280ED1607960B194F874
:109160002E0448B9002184F83014012084F82F041B
:109170000720616B884702E0002084F82F04182143
:1091800004F13C0000F060FE012084F83C00E06A3D
:1091900001281CBF0228012084F8510094F8240003
:1091A00030B1A06A01281CBF0228012084F85200B7
:1091B0000020A17884F85000042965D8DFE801F088
:1091C0006203142D4400012084F83100002104F2D0
:1091D0002640C4F82014206461640220802184F8B1
:1091E0003C00A4F848104FE094F82400022284F8D0
:1091F0003120002819BF072184F83C10032084F88F
:109200003C002069A4F848000021C4F8201404F2AE
:109210002640E1682064616436E06069A16900F07D
:109220004AF819BF062184F83C10012084F83C005C
:109230002046FFF7A1FE28B100F044F8002823D112
:10924000052014E0032116E0E069216A00F033F8FC
:1092500019BF062184F83C10012084F83C00204608
:10926000FFF78AFE30B100F02DF868B9062084F8C7
:10927000310002E0042184F8311004F58260C4F862
:10928000200401E084F83100A07868B1D4F82014FB
:1092900004F13C0204F1540072DF58B994F8301024
:1092A00094F8540073DF28B9616B11B194F8310060
:1092B0008847002032BD6064A4F8481094F8240068
:1092C00000287047022084F85000042120465FE601
:1092D000072104F2264001F0A7BA10B50C46018818
:1092E000102904D0112909D0262914D010BDC27B21
:1092F000012A29D18088A4F8240410BD002184F813
:109300002E148088B4F82414884204BF2279002ADD
:109310001AD101210DE0007A012818BF022813D1CB
:10932000A078401C052190FBF1F101EB8101401A6E
:10933000C1B22046FFF7C0FE00281CBFA16B002968
:1093400002D0BDE81040084710BD10B50446012109
:1093500094F8540074DF002084F82E1484F830044C
:1093600084F8500006212046FFF712FE48B9A17884
:109370002046FFF7A1FE00281EBFA16B00298847E9
:10938000002010BD4FF0A040704730B5039D049CF5
:1093900041EA420141EA83014FF0A04241EA05213E
:1093A00002EB800041EA0441C0F8001730BD1CB553
:1093B000012441B900906846FFF7E4FF00998C4012
:1093C000C0F80C4513BD1D4A04FA00F0106013BD2F
:1093D00001461B4838A227E037A2105C0021E6E7CF
:1093E00035A2105C0121E2E710B500242046FFF70A
:1093F000F7FF641C042CF9D310BD10B500242046DF
:10940000FFF7EAFF641C042CF9D310BD2AA1085C05
:109410000B490A68012303FA00F020EA02034B60BB
:1094200010408860704700000068515CC84000F040
:10943000010080F0010070470000000008050050A6
:109440000405005010B501464FF0FF305FF00002F8
:109450001AA39C5C8C4203D0521C042AF9D310BD81
:10946000104610BD15A1085C70470000FEB504460B
:10947000E00710D55FF000050FA6002701970097C1
:109480000023705D01220121FFF77FFF6D1C042D79
:10949000F4D3FFF7A9FFA0070DD5002407A50020EE
:1094A0000190002100910323285D0022FFF76DFF4A
:1094B000641C042CF3D3F7BD111213140D0E0F10FE
:1094C00038B55B4C207808B1852510E0A0600021FC
:1094D00061602061E1600FF2E90001F0B3F9054637
:1094E00000F06AFB08B901F0B9F901212170514A75
:1094F000106808B10121A170284632BD03681A46E0
:1095000000E0126812B18A42FBD170470B60016023
:10951000704738B5464D0446A87830B114B161683B
:109520000120884700F029F80BE000F027F824B16B
:10953000214605F11000FFF7E1FFE86808B901F0E6
:109540009AF9E868401CE86012E01CB500F020F8C9
:10955000374CE068401EE060E068002802BF3549F3
:109560000868002803D101F0A2F90020A0700AE0E9
:109570009DF80000FDF721F931BD00208DF80000B5
:109580006846FDF7FFB89DF80000FDF716F913BD1A
:1095900000218DF800106846FDF7F4B838B50400D6
:1095A000234814BF00F1100500F1080504E0086825
:1095B000286020464968884729680029F7D131BDCD
:1095C00002001B4903D101234B70002002E0012857
:1095D00001D18870E2E7704718B9154A012151702E
:1095E000DCE770471CB520B101280AD0032819D048
:1095F00013BD114901200860BFF34F8FBFF36F8F78
:1096000013BD00228DF800206846FDF7BBF8084C1A
:10961000207808B9FFF754FFE068401CE0600121A2
:10962000A170B0E701F01AF9FFF78FFF13BD00003A
:10963000F44400200004014080E100E038B5DFF888
:10964000A84304F1180001F0A2FAD4E90023002194
:10965000D4E9024510185941A94206D828BFA042B2
:1096600003D2B0F17F4061F1FF3134BDD1E9022373
:10967000D0E902018B4204D301D8824201D30120F8
:109680007047002070477CB50446DFF85C03017C1E
:10969000002601293BD1002C39D0FFF7CFFFD4E9B8
:1096A0000223994227D301D8904224D300F031F805
:1096B000206918B94FF0FF32C4E9022200F070F9B6
:1096C000A0696169884700F024F8206970B1D4E985
:1096D00002234FF0FF318B4208BF8A4206D000219F
:1096E00010185941C4E90201012500E0002500F0ED
:1096F00057F935B90BE04FF0FF30834208BF824283
:1097000005D021460FF2F02001F076FA012630460E
:1097100076BD8DF800606846FDF734B8B6A001F05C
:109720007CBA2DE9F846814601F024FAAE4F38B1F3
:10973000D7E90001B0F17F4261F1FF33C7E90023AF
:109740000021484601F01EFA00281CBF7869002855
:1097500004D07869FFF797FF00207861012148461F
:1097600001F010FA18B1FFF769FFC7E9020100F034
:1097700095F80FF2842A4FF0FF3410E04168D1E9E8
:109780000223A34208BFA24202D0504601F034FA9D
:10979000694607F5527001F0C7FA00F07FF8D0B1C2
:1097A00001780029EAD002290CD0F1D24168786909
:1097B000814207BF00217961504601F035FAE7E7A1
:1097C000C0E90244FFF7AAFF0028F9D1012038744C
:1097D000DEE7FFF7A3FF504640680068002856D038
:1097E000D0E902234FF0FF34A34208BFA242F0D0D9
:1097F0007869A0B17869D0E9024083424CD828BF8B
:10980000A24249D278694FF0FF34D0E90223A34243
:1098100008BFA24203D07969504601F0EDF9FFF785
:109820007DFF0546D5E90246FFF708FF201A66EBE3
:10983000010101220023994223DB01DC904220D365
:109840006A4EB04205D907F1180001F0A0F93218AC
:1098500000E022464FF49603002107F1180001F0C2
:109860001AF938B10D2802D12846FFF70CFF002065
:109870007861B0E7786910B9484601F0BFF87D61BA
:109880000AE0002107F1180001F077F9ECE77869A8
:1098900010B9484601F0B6F8BDE8F186694607F50B
:1098A000527001F015BA7CB504460D464E4E69461D
:1098B00006F5527001F0DAF968B104704560694646
:1098C00006F5527001F0F4F918B106F1180001F034
:1098D00062F9002076BD042076BD00001CB500BFF3
:1098E00048A0414C0168009108234FF44A7204F1EA
:1098F000200104F5527001F0A5F9A8B93C4A694667
:1099000004F1180001F032F870B9012104F11800D7
:1099100001F02DF90123374A012104F1180001F06B
:1099200076F801202074002016BD10B5130001D177
:10993000072010BD00684FF0FF34C0E90244012940
:1099400018BF002142610161002010BD2DE9FC41DA
:109950000E46002105468DF8001090466846FCF73B
:1099600011FF00F03BF808BF904208D1FFF766FEF8
:10997000002780197941C5E90201012400E0002493
:1099800000F00EF80CB9002008E02869C5F818802E
:1099900000B12E6129460020FFF785FFBDE8F68162
:1099A0009DF80000FCF709BF38B5002105468DF889
:1099B00000106846FCF7E6FE00F010F807BF904282
:1099C0000024C5E902220124FFF7EAFF0CB90020B8
:1099D00032BD29460120FFF766FF32BDD5E90201FD
:1099E0004FF0FF3291427047202B0020FFFFB40060
:1099F00023970200FFFF7F00000000006845002061
:109A00006D9602000100060080B5154800214173E3
:109A10000161BFF35F8F00BF13A101F0A6F9002021
:109A200002BD80B500218DF800106846FCF7AAFE43
:109A3000F1EE100A20F09F00E1EE100ABFF35F8FF5
:109A40000849402008609DF80000FCF7B6FE00F0D1
:109A5000B3F808B141DF01BD20BF40BF20BF01BD49
:109A60000845002084E200E08CC70200A4C7020081
:109A700004000000806870472028014604DA50483E
:109A8000C84000F001007047402808DA0122A1F127
:109A9000200012FA00F018BF0120C0B27047012068
:109AA000704700001FB5044653A1684601F05DF9F8
:109AB00002E0684601F05DF900F024F848B100F0DA
:109AC00021F8024620465168126890470028F0D1DC
:109AD000112004B010BD00001FB5044649A168461E
:109AE00001F043F909E000F00DF802462046516804
:109AF00012689047684601F03CF900F003F800282E
:109B0000F1D11FBD6846B5E780B51620FFF7B4FF59
:109B100028B942F20100BDE80240FEF789BB29499D
:109B200091F816034009082803D2EC22C240D0075E
:109B300002D442F20200EEE7234A906820B1116895
:109B400041F48001116001BD4FF48000086001BD47
:109B500038B51E4D287808B1082032BD0120A87004
:109B60000020FFF79FFF112819D00020FFF7B4FF56
:109B700000F01CF8DFF8581028A010DF0446401E43
:109B80008041C00F00F00DF80CB1204632BD00201E
:109B9000A8706870FFF7B8FF0120FFF79DFF002055
:109BA00032BD28709DF80000FCF707BE00208DF83C
:109BB00000006846FCF7E6BD0448007870470000E6
:109BC000FC06FFBD00E100E01C45002070450020C0
:109BD0009DA00200E0B500BF0DA1684601F0C5F8E8
:109BE00005E0486809688847684601F0C2F80299AC
:109BF0000029F6D107BDEDE73CC902004CC90200BF
:109C0000080000004CC902005CC902000800000006
:109C10005CC902006CC902000800000001000007D6
:109C2000FEB50E00074601D10E20FEBD7448754CEE
:109C3000754D3060694600200022002381E80D0048
:109C400001228DF8022006218DF80070ADF8041075
:109C500069463268202069DF6C490C1BE408240443
:109C600044F0010428B100F0B1FD0246294600F09D
:109C700067F800F05DF8ADF802208DF80110694634
:109C80003268402069DF30B100F0A0FD024605F1E6
:109C9000480100F055F800F044F8F7218DF8007005
:109CA000ADF8021069463268232069DF30B100F058
:109CB0008DFD024605F1940100F042F800F038F8FD
:109CC0008DF8001069463268012069DF30B100F07C
:109CD0007DFD024605F1DC0100F032F800F021F8CC
:109CE0004FF4B061009169463268A12069DF30B15C
:109CF00000F06CFD024605F5947100F021F800F0CB
:109D000010F88DF8001069463268A02069DF30B184
:109D100000F05CFD024605F5BE7100F011F8002070
:109D2000FEBD684600210022002380E80E00704737
:109D3000684600210022002380E80E0001217047C0
:109D40002046FCF783BE00002DE9F04106462F496E
:109D50002C4D32684D1BED0860DF33682D049A42AC
:109D6000044613D245F00207DFF8A4804146384686
:109D7000FCF772FE274802683068920202F1005236
:109D8000121A08F134013846FCF760FE1CB922496A
:109D90000120087009E0204600F018FD4FEA00029B
:109DA0001EA145F00100FCF751FE2046BDE8F08100
:109DB00019490878002800D1704700B5ADF5017D3C
:109DC0004FF4FA72ADF80020694604A861DF20B9AB
:109DD0001AA101A800F0C9FF0DE0052818BFFEF781
:109DE00027FA0DF5017D00BD5168126804A890475F
:109DF00001A800F0BEFF039A002AF5D1E0E70000B9
:109E0000D82A002018C20200DCBB020058C202009F
:109E100004C302000C0100107445002073645F62EB
:109E20006C655F656E61626C65282920726574756A
:109E3000726E65642025732E00000000A4C5020028
:109E4000C4C5020008000000002200F0A1BFFEE728
:109E50008F490A89824202D101F10800704700202F
:109E60007047F0B58688C788B418B24288BF3246BA
:109E7000B21AFD18BB4288BF3B46FB1A4E880788C2
:109E8000BE4224BF4088B04209D38888904228BF90
:109E9000844204D3C888984228BF854201D200205A
:109EA000F0BD0120F0BD7B498969002918BF084732
:109EB000704738B5044680B2FFF7CAFF020027D0CA
:109EC000744D107A297B88420DD202F10A01A0B2AA
:109ED00075DF20B111281BD0FFF7E5FF31BD107AE7
:109EE000401C107231BD00211172287C38B13B2119
:109EF000A0B276DF00281CBF0828FFF7D4FF6969ED
:109F000031B100228DF80020ADF802406846884744
:109F100031BD70B5040001D10E2070BD5D4E3046DC
:109F200021461C22FDF75AF8594D35602068A8B12A
:109F30007ADFB8B9216828460822FDF74FF84FF6B6
:109F4000FF7005F120012881E96005F10C00524AFB
:109F50000021FFF7EAFC28B1032070BD28467BDF13
:109F60000028ECD070BD80B502460B464949587AAE
:109F700058B9187A002858680CBF49688968FFF7F3
:109F8000E5FC68B1FFF78FFF01BD00201872496939
:109F900031B101238DF80030ADF8022068468847C2
:109FA00001BD2DE9F84306463A4F3088102840F2AB
:109FB000F3184FF6FF7506D0112829D0122850D07B
:109FC000502832D061E0F07BB6F8049001285CD1D3
:109FD0002846FFF73DFF040008BF04203ED0A4F848
:109FE000009000202072082204F10A002849FCF7A2
:109FF000F5FF2B46424606F1100104F10A00FFF777
:10A0000030FF6072F88900283FD12146484639E088
:10A01000B088FFF71DFF040037D06068FFF7C4FC6D
:10A0200008B1FFF740FF25802FE0F088F9898842CA
:10A0300004BF308A022828D1B5882846FFF708FFD8
:10A04000040022D006F1120000F0CAFA10B1214635
:10A05000284617E06068FFF7A7FCB0B1BDE8F243FF
:10A0600021E7B7883846FFF7F3FE04000DD02B46F2
:10A07000424606F1080104F10A00FFF7F2FE6072A1
:10A0800021463846BDE8F4436DE7BDE8F1830000A2
:10A09000B8430020C4440020B39E020072B6FCF70F
:10A0A00002FEFCF7F3FC0028FBD11048104C1149CC
:10A0B000114D041BE408240444F00100FCF7C3FC28
:10A0C000D5F8E400C10700D500BE0C4944F00200F9
:10A0D000FCF7B9FCBFF34F8F2968094801F4E06130
:10A0E00001432960BFF34F8F00BFFDE740C202006C
:10A0F00018C20200C8C602000CED00E0D4C602007F
:10A100000400FA0510B50368C46882881440195524
:10A11000C168491CC16010BD10B50368846880889F
:10A12000611801405B5C137010BD10B50A4604460F
:10A130000021FFF7F1FFA068401CA06010BD10B522
:10A1400009B90E2010BD130002D0541E144201D0D4
:10A15000092010BD0160511E818000228260C26012
:10A16000002010BD10B58268C36884889A1A944292
:10A1700003D3FFF7C7FF002010BD042010BD80B53A
:10A180008268C3689A1A03D0FFF7CFFF002002BD90
:10A19000052002BDF8B500E0F8B502788DF8002082
:10A1A0004368019382688DF80820C068194A0390BB
:10A1B00002EB8102684691685268904705B000BD85
:10A1C000F8B5044688B02678124F07EB860015468E
:10A1D00045600A6982602022487FB8556846FCF7CE
:10A1E000FDFE04962678B85D40B1002D14BF0A4AE2
:10A1F00000226946201DFDF79FF908E0002D14BFDD
:10A20000064A0022694604F10C00FCF749F809B03F
:10A21000F0BD00003445002095A1020099A1020084
:10A22000D3BBD9B1B2F5803F5BD2022A1ED98C468E
:10A23000B1FBF2F102FB11C31B0443EA1043B3FB71
:10A24000F2FC02FB1C3380B240EA0343B3FBF2F0A2
:10A2500002FB103240EA0C4000237047022A05D965
:10A260008446B0FBF2F002FB10C270474AB105D140
:10A2700000F0010249085FEA300070470022002325
:10A28000704700F09FBD0B000200002100207047C6
:10A29000F7D3002200237047904271EB030CF2D3F6
:10A2A00070B5B1FA81F4B3FA83F52C1BA340C4F165
:10A2B000200532FA05F63343A2405FF00046E6403F
:10A2C00002E05B085FEA3202841A71EB030524BFE7
:10A2D000204629467641F4D302000B0030000021CD
:10A2E00070BD70B5B1FA81F4B2FA82F5C4F1200400
:10A2F0006419B4F12006DAD3B2405FF00044F440B0
:10A30000002502E052085FEA3303C61A71EB020E21
:10A3100024BF3046714664416D41F3D302000B0007
:10A320002000290070BDFEE710B58F4BC20703EB7C
:10A33000500052BFF0220F220901047D2240114338
:10A34000017510BD30B5884AD368002100E0491C72
:10A35000147AA14206DA13F83150A842F7D103EB80
:10A36000C10030BD002030BD38B504460D46FFF7B2
:10A37000E9FF00281CBF4268002A04D02946204675
:10A38000BDE83840104731BD2DE9F8430E46DFF8EF
:10A39000D89109EB500180460F7D5FEAC8704CBF31
:10A3A0003F0907F00F0701200021424600F00CFD95
:10A3B000042F04460D4643D8DFE807F003131823A3
:10A3C0002600002E3CD0012100F03CF800228DF840
:10A3D00000206846FCF7D6F9D9E90001204329435B
:10A3E00028E0002E0CBF002102210FE03EB1032126
:10A3F00000F028F801214046FFF7B6FF20E00121D8
:10A4000004E0EEB9042101E01EB1032100F01AF8C6
:10A4100016E0002100F016F800214046FFF7A4FFE7
:10A4200000208DF800006846FCF7ACF9D9E900017E
:10A43000A043A943C9E900019DF80000FCF7BDF95C
:10A44000BDE8F18340466FE74748016900224908AB
:10A450002830FFF77BBA70B50024434D12E000218D
:10A4600008E0E96801EBC4063078FCF77DFF7178FD
:10A470000129F4D14140491E89413078C90FFFF7C5
:10A4800083FF641C287A8442EBDBD5E90023002B90
:10A4900008BF002A02D0BDE87040D5E770BD10B5F6
:10A4A000C0B2FFF74FFF04462078FCF75DFF6178EC
:10A4B000012918BF002190EA010F02BF2A48D0E904
:10A4C0000023002B03D112B9BDE81040BCE710BD3A
:10A4D000F8B516460A2E04460D4601D20720F2BDF5
:10A4E000FCF79CFE10B9FCF761FE58BB002200236C
:10A4F00000271D48066100F11401002681E8CC0008
:10A50000C0E90023C4600572DFF860601AA728461E
:10A51000451EC0B280B138680090E8B204EBC001BB
:10A520008A788DF80120324614F830006946FCF72D
:10A5300086FE0028EBD0F2BDDFF834200DA000210C
:10A54000FFF7F3F9F2BD38B50024074D06E0EA68DD
:10A5500012F834000121FCF7C8FE641C287A8442FA
:10A56000F5D3002032BD0000D82A00209FA40200AD
:10A5700057A40200002B00200300000038B5054658
:10A5800014001EBF00222260002D01D0286808B9E7
:10A590000E2032BDE888420800EB927323F00303DB
:10A5A000C01A01D0072032BD084600F0C6FCC1B277
:10A5B000142901D1052032BD2A79914201D304200A
:10A5C00032BDE9882A68C0B24843104420600020A8
:10A5D00032BDFEE701460878497840EA012070471D
:10A5E00080B5FFF7F7FFFFE700F0010002BD0000B4
:10A5F000401E002204280A700FD8DFE800F003058F
:10A6000007090C00112007E0212202E0312003E0BD
:10A6100012220A707047222008707047F8B50E4663
:10A6200090B00546B078002806BF01218DF80E10C5
:10A630008DF80E003088ADF80C001746032101A8F4
:10A64000FFF702FC707C01A9FFF7D2FFB07C0DF18F
:10A650000501FFF7CDFFF07B00289DF8060014BF31
:10A660000821002100F0F70001438DF80610307C2E
:10A6700000B1102001F0EF0101438DF80610307B8E
:10A6800000B1012001F0FE0101438DF8061001F038
:10A69000F901307D002814BF0420022001438DF809
:10A6A000061009A81C21FFF7CFFB707B10F0300FBC
:10A6B0001DD0032102A8FFF7C7FBF07C0DF10901B3
:10A6C000FFF796FF9DF8081001F0F00141F001013D
:10A6D0008DF8081011218DF808109DF80A1001F06E
:10A6E000F90141F002018DF80A1002A90E91707B68
:10A6F0008DF8240004A8B17B8DF825101421FFF7F4
:10A70000A3FB03A901AA04910592B088ADF81C002F
:10A71000B06818B1F288ADF818200890B469002C20
:10A7200032D003216846FFF78FFB2088ADF82C005C
:10A730006088ADF82E0061680A91CDF834D0694682
:10A74000207BFFF755FFB069407B0DF10101FFF75A
:10A750004FFFB169887A00289DF8020014BF0821D4
:10A76000002100F01BF8B269D07A00F01DF8B06942
:10A77000007A00F021F8B269907B002814BF042011
:10A78000022001438DF80210F06900B10C903B46A5
:10A7900004AA09A92846AADF11B0F0BD00F0F7000D
:10A7A00001438DF80210704700B1102001F0EF0155
:10A7B00001438DF80210704700B1012001F0FE0145
:10A7C00001438DF8021001F0F901704780B500F0E7
:10A7D00003F800B90FA002BD10B50D4901F5947240
:10A7E00000E01A46914210D2531ADB1003EBD373E8
:10A7F0005B1001EBC3031C68A042F2D3844238BF54
:10A8000003F10801EED3586810BD002010BD000010
:10A81000ACBD0200556E6B6E6F776E206572726F05
:10A820007220636F64650000002200F093BBFEE7B6
:10A830004FF0804181B000220A50085800900099E2
:10A8400001B07047324B19790246002009B18520CA
:10A85000704701211A601971587170472D480168BD
:10A86000C90704D4C02280F800230121016001201F
:10A87000294A1060704770B500F027F82748022178
:10A88000C0F8FC1226490A6842F080730B60254B21
:10A890001C6844F001051D605D685E68761BB6F5B6
:10A8A0000A5FFAD31C600A600121016070BD10B517
:10A8B0001D4C0221C4F8FC1200F007F801212160B0
:10A8C000D4F80C04C003FBD410BD4FF48270AFE782
:10A8D0004FF48070ACE738B5144D0D4C286848B182
:10A8E000FFF7F6FF0121C5F80812607910B9617110
:10A8F00022689047686848B1FFF7E7FF0220C5F873
:10A90000080201202168BDE83440084731BD00003D
:10A910005845002000E100E0180500400800004014
:10A92000FCED00E0001000E00C00004000010040E1
:10A9300028B10FF2BC21800141F0010108477047A6
:10A9400000EB8100C0F840257047C0F8081370473D
:10A9500081B00022425040580090009901B07047E9
:10A96000C0F844137047C0F84813704770B5437976
:10A97000924C934E04EB8305231DAA604579914ABE
:10A9800013F83530B21AD208120433B18E4942F0AE
:10A990000200FCF758F8082070BD05680B88C5F860
:10A9A0000835897890F904304901002B1D4602D4FE
:10A9B000864B595505E0864E05F00F05354405F8E0
:10A9C000041C90F90430190007D4012503F01F017D
:10A9D000804E8D405B0946F82350211D43790125A7
:10A9E00001F8335090F8051044F8310042F00300AC
:10A9F0007AA1FCF728F8002070BD00000068012152
:10AA0000016070470068012140F8041F70472DE97C
:10AA1000F04104460D46206890464FF48036AE4023
:10AA2000AA00C0F8086302F5A0721F46C0F8486388
:10AA300011B2FFF78DFF206828F07F422946FFF70B
:10AA40007FFF2068C0F844630FB1C0F80463BDE81D
:10AA5000F08170B504460D4620681646FFF780FF6A
:10AA600016B12068C0F8045370BD38B504460D46D1
:10AA70002068FFF778FF20682946BDE8344064E786
:10AA800010B5006844580CB1FFF762FF200018BFF2
:10AA90000120C0B210BD2DE9F84F88464FF4803137
:10AAA00001FA08FA0546994622F07F445146FFF71D
:10AAB000DCFF2868D0F8047500EB88013A46D1F82D
:10AAC00040B541464FEA8806FFF73AFF06F5A07603
:10AAD000286831B2FFF73CFFABEB070727F07F4751
:10AAE000012F06D11020FFF723FF286831B2FFF7AE
:10AAF0002FFF2868D0F80475C0F844A3E11B661C3A
:10AB000021F07F41012913D132464146FFF718FF5A
:10AB10001020FFF70DFF2868D0F80405874224D1E4
:10AB2000012251462846FFF794FF0020BDE8F28F2E
:10AB300022464146FFF704FF2B68D3F80475641ED4
:10AB4000E41B6FF07F4124F07F44A1EB0900A04299
:10AB50000BD3002CE4D1324641461846FFF7F0FEF5
:10AB60002868D0F804058742DAD00D20DEE70A46CF
:10AB700002216EE74FF4827182E74FF4803202FACD
:10AB800001F172E7890001F5A07109B278E7006868
:10AB9000D0F80405704790F90410080007D401228A
:10ABA00001F01F000C4B8240490943F821207047F7
:10ABB000024908688968084700000000284500200D
:10ABC00020C2020018C2020084C4020000E400E0B7
:10ABD00018ED00E000E100E000E200E05254433AEA
:10ABE00020696E697469616C697A65642E00000081
:10ABF0000338FDD87047000070B504460D466668FE
:10AC000000E03668306820B1A268294690470028E5
:10AC1000F7D130682860356070BD4268116808005F
:10AC20001CBF09681160704702460020536800E0AD
:10AC300013461A6822B18A42FAD1086818600120C6
:10AC40007047FEE750B509B90E2050BD144694FB7D
:10AC5000F3F603FB16440CB1092050BD016084607B
:10AC6000002141608281C381002050BD3CB550E885
:10AC7000015FAAB2C3891A4483899A4228BFD21AB3
:10AC800003899A4202BFBFF32F8F002407E0C2EA74
:10AC9000050240E80123002BE9D14FF0010400F048
:10ACA0003AF81AB100680988084436BD002036BD5C
:10ACB0000A8849888A4209D150E8011FC1EA014146
:10ACC00040E80112002AF7D10120704700207047A8
:10ACD0003CB550E8025F1FFAA5F2C3889A4202BF52
:10ACE000BFF32F8F00240DE0C3891A4483899A4251
:10ACF00028BFD21AC5EA024240E80223002BE8D15D
:10AD00004FF0010400F007F81AB1006849880844C0
:10AD100036BD002036BD01958DF80040019B0B60CB
:10AD20009DF80020704700000A8849888A4209D1AE
:10AD300050E8021FC1EA214140E80212002AF7D17F
:10AD4000012070470020704705E00A684B689A426E
:10AD500009D1083141600268416853689942F4D1D1
:10AD6000002181607047826070470160096841601E
:10AD7000EAE7816851B103689A68511842688160B6
:10AD80005368994202D102F10801F0E77047FEE7EB
:10AD900000B500BF130096469446103928BFA0E8BE
:10ADA0000C50FAD85FEA417C28BF0CC048BF40F87D
:10ADB000042BC90728BF20F8022B48BF00F8012B3D
:10ADC00000BDFEE77047FEE7D2B2203A22BF00FA8C
:10ADD00002F1002070475242D041D2F1200291404E
:10ADE0004140D040904041407047FEE733B58BB0C2
:10ADF0000021044600910C9880B1002529460CA83A
:10AE000000F0ECF838B10099684600EB41029580FB
:10AE10000098401C00906D1C142DEFD3204669460D
:10AE20002C22FCF7DBF80DB030BD002A18BF00F073
:10AE3000C0B800F0C8B82DE9F84306468CB0308899
:10AE4000B488424D102806D011283CD019285CD077
:10AE50001A283ED064E0AA68D24300926846696826
:10AE6000FBF774FF009901A8FFF7C0FF4FF000083F
:10AE70000EE002A8002730F81890281D494600EB84
:10AE8000870000F0A0F87F1C1E2FF6D308F1010800
:10AE900001988045EDD3142C03DB0420FDF7C8F99D
:10AEA0003EE0214605F1080000F083F82146281D08
:10AEB00000F07FF8F07B022832D1214605F10C002A
:10AEC00000F077F82CE0214605F1080000F07BF84F
:10AED00026E0367A3609042EACBF01220022214634
:10AEE00005F11800FFF7A1FF022ECCBF01220022BE
:10AEF000214605F11400FFF798FF022EACBF012296
:10AF00000022214605F1100008E0307A40B9727A3B
:10AF1000D20802F00102214605F11800FFF785FF73
:10AF20000DB0BDE8F08301461429BCBF084800F00D
:10AF300055B8002070470446F5E710B5FFF7FBFF52
:10AF400008B1204610BD142010BD0000E0420020D2
:10AF5000E4420020401810F0030308D0C91A1FD3A0
:10AF6000DB0748BF00F8012D28BF20F8022D130091
:10AF700030B414461546103928BF20E93C00FAD8F1
:10AF8000490728BF20E90C0048BF40F8042D89007C
:10AF900028BF20F8022D48BF00F8012D30BC7047B3
:10AFA000C91818BF00F8012DCB0728BF00F8012DE4
:10AFB00070470B46012103F01F025B09914000EB33
:10AFC0008300FBF7ABBE0B46012103F01F0291404B
:10AFD0005B09C94300EB8300FBF7B8BE4A0950F890
:10AFE000220001F01F01C84000F001007047FEE799
:10AFF00001224250704781B00022425040580090D8
:10B00000009901B07047405800B10120C0B27047AC
:10B01000C0F804137047052100E00021C0F80015B6
:10B0200070470146D1F8C404C1F8C4047047C0F8A1
:10B030000012704701460320CA0748BF4FF4024080
:10B040008A0748BF48F20120490748BF48F202205A
:10B05000704710B50C46616BA26A914204D2636AD4
:10B06000595CC0F81C1515E094F82C1019B11C217E
:10B07000FFF7BEFF09E094F820104A0607D51C210F
:10B08000FFF7B6FF012084F82D00002010BD142129
:10B09000FFF7AEFF012010BD70B50D4606464FF418
:10B0A0008271FFF7B0FF002420B14FF4827100F0ED
:10B0B00081F8012495F82F0000284FF49271304652
:10B0C00008D0FFF798FF00F073F84FF4847100F098
:10B0D00071F849E0FFF797FFF8B94FF48E7100F06F
:10B0E0006DF870B100F064F8686B401C686300F0A4
:10B0F00063F890B929463046FFF7ABFF002833D1FB
:10B1000052E04FF4847100F059F868B34FF4847141
:10B1100000F050F800F050F858B14FF4927100F080
:10B1200049F814213046FFF763FF012085F82F000E
:10B130001AE0686BA96A884216D2D6F81825696A9F
:10B140000A54A96A686B4A1E401C904268631ED16B
:10B1500095F820305A061AD402213046FFF767FFCF
:10B1600020213046FFF744FF04B3002195F82F005B
:10B1700085F82D10C0B9686BA96A884211D0304695
:10B18000FFF74BFF3046FFF746FF01200AE08842F9
:10B19000E6D195F820004106E6D5022085F82D007D
:10B1A00002E0002085F82F00002070BD012070BD56
:10B1B0004FF48E7130461EE74FF49271304622E70D
:10B1C0007CB500F07AF800F074F84FF48E7100F05E
:10B1D00072F84FF4847100F06EF800212046FFF7FA
:10B1E00026FF0025756386F82F5020212046FFF7A3
:10B1F000FFFE96F82D00012803D008212046FFF716
:10B20000F7FE31462046FFF724FF24E07CB500F02E
:10B2100054F800F04EF84FF48E7100F04CF84FF4F3
:10B22000847100F048F8B06A00250128756386F83B
:10B230002F5005D196F82000410658BF022100D5B5
:10B2400001212046FFF7F3FE0120206296F82D1021
:10B25000022918BF2060306850B140F28621B160E9
:10B260002046B168FFF7D4FE21E00098401E009010
:10B270000098012805DB31462046FFF70DFF002826
:10B28000F3D196F82F0040B12046FFF7CAFE18B15F
:10B29000FFF7D0FE054600E003250098012806DAF6
:10B2A0002046FFF7BAFE2046FFF7B5FE03252846E5
:10B2B00076BD4FF4927120469DE6324A00920E46CA
:10B2C00004464FF4827196E670B52F4E2C4D86B031
:10B2D00029463046FFF7E0FE00284FD195F82F4071
:10B2E000F4B9287B022811BF0328696AAA69914230
:10B2F00016D1E9696A696962AA62296A490901F095
:10B30000010185F82C10002185F82D10032829460D
:10B31000304602D1FFF754FF30E0FFF777FF2DE012
:10B3200001A805F10C011422FBF758FEACB1D6F8C8
:10B33000C404C6F8C404810748BF012002D44107F1
:10B3400003D502208DF800000AE0C00748BF0321A2
:10B3500004D404228DF8002002E000218DF80010B2
:10B36000002085F8300095F820104A0702D595F89E
:10B370002F0018B169682A686846904706B070BD0A
:10B3800038440020A08601000030004038B50D464A
:10B3900004460A2D04BF0D21FFF7F8FFA068411CE9
:10B3A000A160226815546068814204D32046BDE83C
:10B3B000324000F079B931BD2DE9F84F8B460124B8
:10B3C000154602E0B1FBF5F1641CA942FAD29A4697
:10B3D0000B9FD146A24538BFA14680460A9CF8077C
:10B3E0000CD45CB1B8070CD42026A14506D2314656
:10B3F0004046FFF7CBFF641E002CF6D12E460125F8
:10B4000007E0BAF1000FEFD13026EEE7AAF1010A0A
:10B410007543BAF1010FF9D8BBFBF5F0B04228BF74
:10B420007543F9D29CA1BBFBF5F005FB10BB095C91
:10B430004046FFF7ABFFB5FBF6F5002DF2D1F8075C
:10B4400009D544B1A14506D220214046FFF79EFF11
:10B45000641E002CF6D1BDE8F18F2DE9FE4F0D00E2
:10B460008246174600F00B8115F8010B010000F031
:10B47000FE80252940F0F580002602E046F0010616
:10B480006D1C29782B2907D02D29F7D0302908BF2A
:10B4900046F00206F4D002E046F00406F0E700248D
:10B4A0000A2007E02978A1F130020A2A0AD26D1C8D
:10B4B00000FB04242A29F5D1396851F8042B39609E
:10B4C00014196D1C29782E294FF000080BD16D1C22
:10B4D00004E0303900FB08116D1C88462978A1F181
:10B4E00030020A2AF5D3297801E015F8011F6C29EA
:10B4F00018BF6829F9D0252906F0010016D058296F
:10B5000064D063290DD0642918BF69290FD0702930
:10B5100000F08E8073295DD0752953D0782955D0DD
:10B520009DE0386850F8041B3860C9B295E039686E
:10B5300051F8049B39605FEA090148BF4942012282
:10B540000A2302E091FBF3F1521C0A29FADAC346FE
:10B55000904538BF93462CB1B9F1000F01D4710763
:10B5600000D5641EB10702D5B8F1000F08D038B974
:10B5700034B1A34504D200F08CF8641E002CF8D13D
:10B58000B9F1000F03D5C9F100092D2102E07007C0
:10B5900002D52B2100F07EF806F00300022808BF38
:10B5A000B8F1000F08D13CB1A34505D2302100F01D
:10B5B00071F8641E002CF7D10196009443460A22CC
:10B5C000494646E000F05DF80A2242E000F059F8F2
:10B5D00010223EE0396851F8048B3960002140B9EF
:10B5E000B8F1000F03D0404600F07EF801460E4649
:10B5F00013E0894603E000F04DF809F1010918F85D
:10B60000011B0800F7D1A14529D244B300F041F84D
:10B61000641EF8E700F03DF8641EA64201D2002C3B
:10B62000F8D118F8011B080019D000F033F8F8E73A
:10B63000386850F8044B3860302100F02BF878213E
:10B6400000F028F808210091002001900823102222
:10B6500021465046FFF7B0FE01E000F01BF86D1CDC
:10B6600001E000F017F8287800287FF4FDAE9AF882
:10B670000C0020B15046BDE8FE4F00F015B8BDE803
:10B68000F78F386850F8041B3860019600944346E1
:10B6900070472021504679E6303132333435363721
:10B6A000383941424344454610B50446A2682AB1A0
:10B6B00021682069636998470020A06010BD0000E0
:10B6C000002900D170470CB438B500BF05A31C6831
:10B6D000009404AD00956A46FFF7BFFE31BC5DF8EB
:10B6E0000CFB00000000000000F1010310F8011B3A
:10B6F00011B110F8011BFBE7C01A7047F0B5824882
:10B70000824A016811F1010F08BF1178062905D19D
:10B71000D0F8F4117E4BC1F3042119601178062989
:10B7200002BF9168C1F30311032902D1794B7A4911
:10B7300019600168794B11F1010F08BF11780629D2
:10B7400005D1D0F81411C1F34231C3F83014147884
:10B750007349062C02BF9468C4F30314032C05D16B
:10B76000D1F8F04024F08074C1F8F04000F0E4F823
:10B7700008BF1478062C04D100241C605C60C3F858
:10B780002C441478062C01BF9468C4F30314032CD2
:10B79000C3F894441578062D02BF9468C4F30314CB
:10B7A000032C08D15F4C052525600126A6670027DC
:10B7B000A7603F25656000F0BFF803BF1478956867
:10B7C000C5F303154568062C36D1ED1E012D33D97E
:10B7D000554CD0F8D4522560D0F8D8626660D0F8C5
:10B7E000DC52A560D0F8E062E660D0F8E452256152
:10B7F000D0F8E8626661D0F8EC522562D0F8F062C9
:10B800006662D0F8F452A562D0F8F862E662D0F829
:10B81000FC522563D0F800636663D0F804532564B6
:10B82000D0F808636664D0F80C53A564D0F81063B0
:10B83000E664D0F81453256500F07EF808BF14784C
:10B84000062C05D1D0F8284104F04F04C3F8D84D98
:10B8500000F072F808BF1478062C07D1D3F8F42250
:10B86000D40744BF6FF00102C3F8F4220468062C29
:10B8700008D14268D21E022A04D92C4A156845F420
:10B8800080651560CA6F42F47002CA67BFF34F8FBC
:10B89000BFF36F8F0468264A062C06D14068C01E8D
:10B8A000032884BF9568C3F84C54106800285CBF17
:10B8B000506800281DD5114B0124C3F8044100F045
:10B8C0003FF81524146000F03BF8546000F038F89D
:10B8D0000022C3F8042100F033F8BFF34F8F0A6849
:10B8E000144802F4E06202430A60BFF34F8F00BFC6
:10B8F000FDE7034A03491160F0BD000000E4014088
:10B90000B43D00200090D00330010010E00F00F0A3
:10B910004035014074C007400DF0ADBA0C01004045
:10B920000CED00E01056004020C500403C170040E0
:10B93000001200100400FA05046814F1010F7047AA
:10B9400018680028FCD070477CB504460D46E38893
:10B950004BB100BF0FF2D8160FF2DC1278A100969F
:10B960002846FFF7ADFE217A05291CD0607A6F4E7C
:10B9700048B1A088FAF766FF06EB800065A142692E
:10B980002846FFF79DFEA0880021FAF74DFF0346E9
:10B99000207A56F8202028460DF1080DBDE87040A9
:10B9A0006DA1FFF78DBE73BD38B50C46017A052930
:10B9B00059A507D0407A30B15DA256A12046FFF7C5
:10B9C0007FFE00E01AB129462046FFF779FE2046A7
:10B9D000BDE83240FFF768BE2DE9F84384B0174652
:10B9E0000C9D2E7B002281460C4698462A732946E0
:10B9F0004046FFF7A9FF062F2CD8DFE807F004091F
:10BA00000F1A21161D0049462846FFF759FE21E06E
:10BA1000226849462846FFF753FE1BE06368226808
:10BA200049462846FFF74CFE14E020690290E16881
:10BA30000191A068009007E060690390216902917C
:10BA4000E0680190A1680091636822684946284631
:10BA5000FFF736FE002229464046FFF7A5FF2E736A
:10BA600005B0BDE8F08300002DE9F84F8A46BAF131
:10BA7000080F814698464AD80092002298F80CB0E8
:10BA800038A588F80C2041460098FFF75DFF002795
:10BA900022A4574506D219F8072029464046FFF749
:10BAA0000FFE03E021464046FFF70AFE7F1C082FE9
:10BAB000EFD31BA14046FFF703FE002619A71AA4E7
:10BAC000564516D219F806507F2D0BDAA5F1200045
:10BAD0005F2808D3284600F049F820B9284600F02E
