:020000040002F8
:1060000058BB002011CC0200CB8202001F95020079
:10601000D795020017A60200E3A6020000000000C8
:10602000000000000000000000000000C3AD0200FE
:106030000FAF02000000000073B30200F5C70200BA
:1060400057AA0200FBC8020085B2020007C902007D
:1060500085CD020087CD020007A8020089CD02008D
:106060008BCD02008DCD02008FCD020091CD0200BC
:1060700093CD020095CD020097CD020099CD02008C
:106080009BCD020031AD02009DCD02009FCD0200EC
:10609000A1CD0200A3CD0200478A0200A5CD0200D7
:1060A000A7CD0200A9CD0200ABCD0200ADCD02000C
:1060B000AFCD0200B1CD02000000000000000000E2
:1060C000B3CD0200B5CD0200B7CD0200B9CD0200BC
:1060D000BBCD0200BDCD0200BFCD0200000000001C
:1060E00000000000000000000000000000000000B0
:1060F00000000000000000000000000000000000A0
:10610000000000000000000000000000000000008F
:10611000000000000000000000000000000000007F
:10612000000000000000000000000000000000006F
:10613000000000000000000000000000000000005F
:10614000000000000000000000000000000000004F
:10615000000000000000000000000000000000003F
:10616000000000000000000000000000000000002F
:10617000000000000000000000000000000000001F
:10618000000000000000000000000000000000000F
:1061900000000000000000000000000000000000FF
:1061A00000000000000000000000000000000000EF
:1061B00000000000000000000000000000000000DF
:1061C00000000000000000000000000000000000CF
:1061D00000000000000000000000000000000000BF
:1061E00000000000000000000000000000000000AF
:1061F000000000000000000000000000000000009F
:1062000000F0DEBD80B5DFF82C0B00F0FEFE08B11B
:1062100000F0D6FDBDE80240002000F0F7BF017895
:10622000052904D14068002818BF00F0C9BD704797
:1062300038B584B000F04FF801228DF804108DF8C5
:106240000C2008E038B584B000F045F801218DF845
:1062500004108DF80C1042F28C23DFF8DC5ADFF8C2
:10626000DC2AEC186946204600F093FE08B100F0E5
:10627000A7FD95F8880A30B10FF6E42200F033F854
:1062800008B100F09DFD95F8890A30B10FF6E022C3
:1062900000F029F808B100F093FD95F88A0A30B1B2
:1062A0000FF6DC2200F01FF808B100F089FD95F828
:1062B0008B0A30B10FF6D82200F015F808B100F0C3
:1062C0007FFD00220121204600F01CFE08B100F0F5
:1062D00077FD05B030BD6846002100220023002470
:1062E00080E81E0070470021204600F0D4BD014622
:1062F00018204B88DFF8402A4343D01800F62820A6
:1063000000F0EDBFF8B501218DF8001002782AB138
:10631000022A00F01882C0F01682F1BDDFF8185A88
:10632000B5F8944A2F1907F6BC2001F0ACF997F89C
:10633000BC0A0A2804BF97F8BB0A0D286DD197F84C
:10634000BA0A18266E2819D197F8B90A612837D1E8
:1063500097F8B80A632804BF97F8B70A73285CD186
:1063600097F8B60A242801BF97F8B50A742897F859
:10637000B40A612851D1FFF75BFFF1BD30283DD150
:1063800000F0FDF949D100F0F6F940F0FE8000F090
:10639000E6F904BF97F8B60A6E283ED100F0DBF9A3
:1063A00040F0138100F0DFF901BF97F8B30A7428B9
:1063B00097F8B20A612830D1012185F8881A83E064
:1063C000742804BF97F8B80A6E2826D197F8B70A40
:1063D000632840F07E8097F8B60A242801BF97F81A
:1063E000B50A742897F8B40A612816D1012185F8F6
:1063F000881A85F8891A85F88A1A63E0312820D12D
:1064000000F0BDF909D100F0B6F940F0F08000F0DD
:10641000A6F904BF97F8B60A6E2840F0908100F004
:106420009AF940F0048100F09EF901BF97F8B30A91
:10643000742897F8B20A6128EFD1012185F8891AEA
:1064400042E032281FD100F09AF9E6D100F093F92A
:1064500040F0FF8000F083F904BF97F8B60A6E2879
:10646000DBD100F078F940F0148100F07CF901BF35
:1064700097F8B30A742897F8B20A6128CDD10121A0
:1064800085F88A1A20E0332853D100F078F9C4D176
:1064900000F071F940F0328100F061F904BF97F823
:1064A000B60A6E28B9D100F056F940F0048100F028
:1064B0005AF901BF97F8B30A742897F8B20A61280D
:1064C000ABD1012185F88B1AFFF7BCFEFFF79AFECE
:1064D000F1BD642804BF97F8B60A24289DD197F827
:1064E000B50A742804BF97F8B40A612895D100F062
:1064F0004EFD00270BE000F063FC06FB07F028448C
:106500001321B0F82A0A76DF0400F4D17F1CD5F8F5
:10651000980A8742F1DB012000F07CFE002000F0A9
:1065200079FE082C18BF002C02D0204600F048FC51
:10653000E0E0742804BF97F8B90A622840F0FF80B1
:1065400097F8B80A642804BF97F8B70A7328F5D1FA
:1065500097F8B60A242801BF97F8B50A742897F867
:10656000B40A61286FD1002405F6282006FB04F345
:1065700000F00CF928B11128F6D0082818BF00F057
:106580001FFC641C042CEFDBF1BD742804BF97F8DA
:10659000B70A622857D100F0EAF804BF97F8B50AA5
:1065A000732850D100F0DFF801BF97F8B30A7428C0
:1065B00097F8B20A612846D1B5F88C3A00F0E3F8B2
:1065C0000028E1D01128F7D0B6E0642804BF97F87E
:1065D000B40A242837D100F0BAF804BF97F8B20AF9
:1065E000612830D100F0D3FCB5F88C0A74E074282F
:1065F00004BF97F8B70A622825D100F0B8F804BFA5
:1066000097F8B50A73281ED100F0ADF801BF97F8CE
:10661000B30A742897F8B20A612814D1B5F88E3AF3
:1066200000F0B1F80028AFD01128F7D084E064283A
:1066300004BF97F8B40A242805D100F088F804BFF5
:1066400097F8B20A61287AD100F0A1FCB5F88E0A59
:1066500042E0742804BF97F8B70A62286FD100F0AF
:1066600086F804BF97F8B50A732868D100F07BF864
:1066700001BF97F8B30A742897F8B20A61285ED16F
:10668000B5F8903A00F07FF800285FD01128F7D0D5
:1066900052E0642804BF97F8B40A24284FD100F0D0
:1066A00056F804BF97F8B20A612848D100F06FFC91
:1066B000B5F8900A10E0642804BF97F8B40A2428BB
:1066C0003DD100F044F804BF97F8B20A612836D1F2
:1066D00000F05DFCB5F8920A132176DF08B100F0F6
:1066E0006FFBD5F8980A012804D100F093FD002033
:1066F00000F090FD0020A5F8940AF1BD742804BFB5
:1067000097F8B70A62281AD100F031F804BF97F859
:10671000B50A732813D100F026F801BF97F8B30A21
:10672000742897F8B20A612809D1B5F8923A00F0B6
:106730002AF858B11128F8D0082807D004E0641CC2
:10674000A5F8944AF1BD406800F03AFBF1BD97F816
:10675000B30A7428704797F8B50A6328704797F80A
:10676000B70A7428704797F8B40A2428704797F836
:10677000B60A6428704797F8B80A6E28704797F8E9
:10678000B90A5F28704705F628207343012269463D
:10679000184400F070BEF8B50446087810B101281E
:1067A00011D0F1BD01F10E024988204600F098FE9B
:1067B00008B100F005FB204600F029FE08B3BDE853
:1067C000F24000F0FDBA88680378DFF86C05302BE2
:1067D00040F6A11216D14B88A0F88C3A00238D68A0
:1067E000D0F89C4A1D441F196E7807445B1C242B6B
:1067F00087F86460F3DB24349442A8BF0024C0F817
:106800009C4AF1BD312B16D14B88DFF83445A0F8F6
:106810008E3A00238E68D0F8A05A1E4477785E190D
:106820005B1CA755242BF5DB24359542A8BF00251A
:10683000C0F8A05AF1BD322B40F6B91212D14B88E4
:10684000DFF80045A0F8903A00238E68D0F8A45AEB
:1068500000F01DF8F9DB0C359542A8BF0025C0F803
:10686000A45AF1BD332BCCD14B88DFF8DC44A0F81F
:10687000923A00238E68D0F8A85A00F008F8F9DBA5
:106880000C359542A8BF0025C0F8A85AF1BD1E449A
:1068900077785E195B1CA7550C2B704710B5044622
:1068A000002001F03CF808B100F08AFA24B901F0A8
:1068B00098F808B100F084FA012010BD38B5DFF86F
:1068C000784405462988D4F8980A102910D011294F
:1068D0003ED0132900F082801F2900F085802129F5
:1068E00000F087803B2918BF562900F0878031BD12
:1068F000401CC4F8980AA9880429A4BF002000F00D
:106900005FFAA8880146182358432044002200F665
:10691000282000F0E5FD08B100F052FAA8880146F1
:106920004FF4BA625043204400F64C3001F073FA41
:1069300008B100F045FA012000F068FC01F0B3FC5A
:10694000042846D0002000F061FCBDE8314059E445
:10695000401EC4F8980A40F6C411A888B4F88C2ADE
:10696000904207D104F1640001F0ACFC002084F8EF
:10697000880A22E0B4F88E2A904207D1DFF8C003DB
:1069800001F0A0FC002084F8890A16E0B4F8902AEF
:10699000904207D1DFF8AC0301F094FC002084F8AA
:1069A0008A0A0AE0B4F8922A904206D1DFF89803E6
:1069B00001F088FC002084F88B0A01F074FC0028A8
:1069C00024D101F083FC08B100F0FAF9012000F0B5
:1069D00021FCBDE83240002000F01CBCA888002348
:1069E000002285217FDF0CE0A88805F1080175DF12
:1069F00007E0A8880FF2AC318FDF02E0A8881321EE
:106A000076DF18B1BDE8324000F0DAB931BDF8B533
:106A1000C94CD4F8982AD4F8AC0AD4F8B01A002A91
:106A200040F3EA8044232370002213182344A6185D
:106A300093F86450757004EB020C93F866708CF850
:106A4000037093F86850757193F86A708CF807704A
:106A500093F86C50757293F86E708CF80B7093F815
:106A60007050757393F872708CF80F7093F87450BF
:106A7000757493F876708CF8137093F87850757578
:106A800093F87A708CF8177093F87C50757693F8B9
:106A90007E708CF81B7093F88050757793F8827035
:106AA0008CF81F70A71893F8845086F82150561858
:106AB00093F88630A24D87F82330AB19A6181D78BD
:106AC00086F825509D7886F827501F798CF8297014
:106AD0009D7986F82B501F7A8CF82D709D7A86F858
:106AE0002F501F7B8CF831709D7B86F833501F7CB4
:106AF0008CF835709D7C86F837501F7D8CF8397086
:106B00009D7D86F83B501F7E8CF83D709D7E86F8FB
:106B10003F501F7F8CF841709D7F86F84350A51829
:106B200093F82070874E8CF84570A71893F82230A0
:106B300085F84730D4F8B43AD31833441D7887F831
:106B400049509E788CF84B601D7987F84D509E799E
:106B50008CF84F60A6181D7A87F851509B7A7A4DB1
:106B600086F85330D4F8B83AD3182B441E7887F8F7
:106B700055609D788CF857501E7987F859609D793B
:106B80008CF85B50A5181E7A87F85D60521C9B7AC2
:106B900085F85F30012A7FF748AF4C2084F8610008
:106BA0000025605D00F087FD18B11128F9D000F0D4
:106BB00007F96D1C622DF4D3D4F8AC0A243040F6EA
:106BC000A1129042D4F8B01AA8BF002024319142FB
:106BD000D4F8B42AA8BF00210C3240F6B9139A4267
:106BE000A8BF0022C4F8B42AD4F8B82A0C329A42BA
:106BF000A8BF0022C4F8B82AC4F8AC0AC4F8B01A76
:106C000001F051FB20B9BDE8F240012000F002BBC9
:106C1000F1BD000038B584B001F07AFB08B100F096
:106C2000CFF8002001F09DFB01F080FD08B100F0DD
:106C3000C7F8464A5AA0012101F09EFD08B100F0B4
:106C4000BFF8012000F01CFB3B4C00BF56A042F2F5
:106C5000E8312144009142F2E8424FF4807122442D
:106C60000191029203910723394A694600F0C0FC62
:106C700008B100F0A5F80020CDE90000354A0092E7
:106C800042F2D43165180195684601F095F808B1D3
:106C900000F096F801F0E0FD08B100F091F801F085
:106CA0007FFE08B100F08CF80020009069460120BA
:106CB00001F0DEFE08B100F083F8684601F06AFFDB
:106CC00008B100F07DF8002104F5326002F02AF8E6
:106CD00008B100F075F8642104F5326002F038F86C
:106CE00008B100F06DF802951B481C490090019115
:106CF0000025182068432044694600F6282000F04B
:106D000025FB08B100F05CF86D1C042DF1DB01F0EF
:106D100047FAFFF78DFA42F2E8500022932120440F
:106D200001F03BFD02F078FA0028FBD101F0A1FD53
:106D3000F8E7000094690020084700201F62020065
:106D400080700020447A0020088400200F6A02002E
:106D500005630200EF620200976702000162020011
:106D60004E6F726469635F554152545F303000006A
:106D70004E6F726469635F554152545F3031000059
:106D80004E6F726469635F554152545F3032000048
:106D90004E6F726469635F554152545F3033000037
:106DA000F06C002000000000080000000600000059
:106DB00005000000070000000100000000705F07F0
:106DC0001FB5694600220023002481E81C000290C0
:106DD0006A46002144F2010002F05AFB1FBDF0B4E4
:106DE0000246106895681318506803EB5004C007FA
:106DF0001BD54D4419E013F8017B05F8017B491EB2
:106E0000F9D190B113F8011BC6F38106032E08BF18
:106E100013F8016B01EB062149422944801C11F84B
:106E2000016B05F8016B401EF9D1A3420ED013F897
:106E3000016B16F0030104BF13F8011BC91C3009D4
:106E40000F28DCD113F8010B0F30D8E7F0BC02F1AA
:106E50000C00704778B5044685B094F80C6194F83E
:106E600003010D46A8B100F092F800F005F9334691
:106E700004F5827204F58771A81C8CDF05228DF859
:106E80000020019000281FBFD4F81C11002968467B
:106E9000884706B070BD2DE9F0410400154614BFC7
:106EA000002D0E202CD051BB284602F025FBC0B28D
:106EB00018B3212821DA94F80061B046B8F1080F20
:106EC000A8BF04201CDA00273806294604EBD0406E
:106ED00002F01CFBA0B17F1CF8B20828F4DB2846A6
:106EE00002F00AFB761C024684F80061294604EB96
:106EF000481002F015FB002002E00C2000E0072003
:106F0000BDE8F08108B90E20704711F01F0F01D1C4
:106F1000072070470023C90748BF012380F80131CB
:106F200080F802210020704790F80E01C0F3C101E3
:106F300001291CBFC0F3C100032801D10120704703
:106F40000020704790F80E1141F0040180F80E11F6
:106F5000A02201F0E701A0F8102180F80E115023C3
:106F600000220121A0F81231A0F8142180F80F119D
:106F700070474FF4C8710622A0F80A11A0F8042146
:106F800008210022A0F80611A0F8082170478BDF25
:106F9000704738B504000D4601D10E2032BDC4F84B
:106FA0001C2140F2031101F08DF9E5B1287984F834
:106FB0000301297B84F80C11296829B104F5877035
:106FC0000E2202F0ADFA02E02046FFF7BBFFA968EF
:106FD00029B104F58270082202F0A2FA0CE02046E2
:106FE000FFF7C7FF08E02046FFF7ACFF2046FFF79A
:106FF000C0FF002084F803011F2004F59071A4F85D
:107000004401C4F84011002032BD18B5040085B019
:1070100008BF0E2028D000F02FF88BDF2046FFF7A6
:1070200083FF00281CBFD4F81C11002904D00120C4
:107030008DF800006846884704F5A07104F5877054
:107040008ADF0446082C18BF002C0CD00748084BD8
:107050000849C01AC0080004224640F0010002F0AE
:10706000B1F8204600E0002006B010BD80C202004A
:1070700050C20200D8C602001421684601F022B9AD
:107080002DE9F84F054686B0288810288B4679D020
:107090001B2862D01D281CD1142101A801F012F96F
:1070A0000BF58772059258460027FFF73DFFB8465B
:1070B00080B102218DF8041005F10802029201A8A6
:1070C000DBF81C1188470BF5A07100208ADF00F067
:1070D0006FF86AE09BF802018DF8000000249BF82D
:1070E0000101D0B19BF80091B5F824A0012700263A
:1070F00000E0761CF0B248450FD20BEB4012286A34
:10710000514602F045FA0028F3D09DF80C0040F0FB
:107110000100B8468DF80C00012405F1080002902A
:107120009DF8000088B1B84511D0032105F108028F
:107130008DF804100292DBF81C1109B101A88847F0
:107140000BF5A07100208ADF2FE0002CEDD000208D
:107150008DF8040000F02CF8EDE7FFF78DFF287A9A
:10716000012822D1DBF81C01F8B104210BF587724C
:107170008DF800100492287A8DF804006846DBF838
:107180001C1111E0FFF778FF06218DF8001005F1C2
:10719000080201920BF58772A988ADF808100492D5
:1071A000DBF81C1109B16846884707B0BDE8F08FCD
:1071B00005F1080158464DE64FF0A040704730B544
:1071C000039D049C41EA420141EA83014FF0A04241
:1071D00041EA052102EB800041EA0441C0F80017B2
:1071E00030BD1CB5012441B900906846FFF7E4FFAB
:1071F00000998C40C0F80C4513BD1D4A04FA00F0FC
:10720000106013BD01461B4830A227E02FA2105C7E
:107210000021E6E72DA2105C0121E2E710B5002471
:107220002046FFF7F7FF641C042CF9D310BD10B5FE
:1072300000242046FFF7EAFF641C042CF9D310BD9C
:1072400022A1085C0B490A68012303FA00F020EA36
:1072500002034B6010408860704700000068515C7A
:10726000C84000F0010080F00100704700000000FD
:10727000080500500405005015A1085C7047000087
:10728000FEB50446E00710D55FF000050FA6002705
:10729000019700970023705D01220121FFF78FFF06
:1072A0006D1C042DF4D3FFF7B9FFA0070DD5002402
:1072B00007A500200190002100910323285D0022F2
:1072C000FFF77DFF641C042CF3D3F7BD11121314D8
:1072D0000D0E0F100969002918BF0847704730B517
:1072E00085B004460D461421684600F0EBFF2A786D
:1072F000002A04BFA888012802BFA8792178884203
:1073000022D1002012E0122141432944CA89022AD5
:1073100008D0032A01BFCA8AADF80E20098BADF848
:10732000101002E0C98AADF81210401C297A884278
:10733000E9D3E26842B16988ADF8021000238DF804
:10734000003069462046904705B030BD30B585B065
:1073500004460D460DF104006AA1102202F0E0F887
:10736000002C18BF002D01D0A86808B90E2018E025
:10737000214601A862DFA0B921788DF80210012210
:10738000ADF800204FF6FF7161802868E0600020B2
:107390006968A08020812161A8686061684600F06A
:1073A0001FFD05B030BD0246080000D1704718B57A
:1073B00085B0002A1EBF41884FF6FF73994224D042
:1073C0009488A14221D11188112915D039291CD1C5
:1073D0008188D1B153898B4217D1C168A9B10123EA
:1073E00002F110048DF800300294D189ADF80C1030
:1073F0009288ADF8022005E0C16831B102228DF813
:10740000002043806946C268904706B010BD18B599
:10741000040089B008BF0E202BD060884FF6FF71A2
:1074200088421ABFE0880028082022D0202101A825
:1074300000F048FF00218DF8011001202749039139
:107440008DF800008DF8040004940222E188ADF864
:107450001610ADF81A200021ADF81810CDF81CD088
:107460008DF814008DF8150001A96288606902F09A
:10747000A5F90AB010BD70B5040088B00D461646D7
:1074800008BF0E2027D02021684600F01BFF622E87
:10749000A8BF07201FDA60884FF6FF71884208BF37
:1074A000082018D00D49029101208DF800000394A6
:1074B0002189ADF81210ADF816600021ADF8141056
:1074C000069502218DF810108DF81100694662882A
:1074D000606902F073F908B070BD0000D572020057
:1074E00010B508B90E2010BD41802AB15388C38061
:1074F00014888480928802814069BDE8104002F0BF
:10750000EDB900009ECADC240EE5A9E093F3A3B513
:107510000000406E38B505787B4C635D23B1BDE853
:107520003840001D02F037BBBDE838400C3002F097
:1075300099BD38B50578744C635D23B1BDE838401A
:10754000001D02F07BBBBDE838400C3002F008BEE5
:1075500001468868C968081A70473EB502786B4CC6
:10756000002A2ED0022A23D040D2017AD1B140681D
:107570000178204602F050FFA56A20B101228DF863
:107580000020019006E02046FFF7E2FF20B1002036
:107590008DF800006846A8472046FFF7D9FFA1886C
:1075A000814202D300F081F837BD0120207437BD3D
:1075B00002218DF800100122C068019000F076F8D9
:1075C00011E004F12C0104F1300002F032FF38B96F
:1075D000012204F12C0104F11400FFF79BFF37BDD9
:1075E00003208DF800006846A16A884737BD000077
:1075F000F8B5464E05460C0088B01F46B26208BF7B
:1076000007203ED06268216892B2304602F0F1FE57
:10761000002836D1E268A16892B206F1300002F08B
:10762000E8FE70BB4FEA0D003AA1202201F078FF7E
:1076300068690690297C01B101218DF814108DF83C
:107640001C70687C00B10E208DF81500304AE86887
:107650000290A868039006F11400296801916968F6
:107660000091694602F006FF58B93074296811F19B
:10767000010F06D0012206F12D0106F11400FFF7DB
:1076800058FF09B0F0BD70B5204C267C014620465D
:1076900002F0CFFE054636B10020207400F005F858
:1076A00008B1FFF78DFB284670BD012204F12D01C2
:1076B00004F114003DE738B50146144D05F13000E2
:1076C00002F0AAFE04001CD12A7D0F49885C20B17B
:1076D00005F1180002F0A8FA03E005F1200002F01D
:1076E0000DFD70B905F12C0105F1300002F0A1FE8D
:1076F00038B9012205F12C0105F11400FFF70AFF4A
:107700000446204632BD0000049B0020106D00207E
:107710005B750200FFFFFFFFFFFFFFFFFFFFFFFFA3
:10772000FFFFFFFF00000000000000000000D60186
:107730000601000010B58E49887B50B1002401E09D
:10774000022C02D02046FFF765FD641C042CF7D301
:1077500010BDBDE81040FFF761BD00002DE9F84FF6
:10776000834D0746687B002410B16C73FFF7E2FF7E
:107770003E46172E41F69A184FF4803940F6CD4A0E
:1077800040F2666B00F29C80DFE806F00C151527CE
:1077900033414E54596159616E7272727272A2A76E
:1077A000AEB5BFBFFFF7C6FF05F1200001F023F81B
:1077B000044600208FE000F0ACF838B100F0ACF8DF
:1077C000022F14BFC84647F2333804E0FFF71EFD0E
:1077D000022F08BFD0462F7316E000F09AF820B1B0
:1077E00000F09AF843F2333A01E0FFF70FFD03206F
:1077F00016E000F08EF818B100F08EF8C84601E0EF
:10780000FFF704FD042028730022414626E000F023
:1078100080F810B100F080F801E0FFF7F7FC0520D8
:1078200028730022514619E00020FFF709FD0620C9
:10783000287309E00020FFF7E9FC07204BE0012155
:1078400069730120FFF7FCFC0022594606E0012085
:107850006873FFF7F5FC00224FF4005105F120009A
:1078600000F09BFF04462BE0FFF7E1FC0C2032E028
:1078700005F1400000F0BFFFD6F11106044622D00A
:107880000CBB012E17D9B0B2C8267043C117C9036B
:1078900041EA5041C00310F57A7041F100014FF404
:1078A000FA62002302F016FE0146002205F14000B4
:1078B00000F073FF04460220FFF7A8FC0120A87324
:1078C0002046BDE8F28F0220FFF7A4FC0020F6E777
:1078D000FFF730FF12202873F2E7FFF72BFF00209D
:1078E000FFF794FC1320F6E7FFF724FF0120FFF7D2
:1078F0008DFC1420EFE7FFF71DFF0020FFF786FC4B
:107900000120FFF783FC1520E5E7FFF790FC2F73BC
:10791000D6E70020FFF776BC0020FFF77BBC80B5E0
:10792000134A137C0021DA0702D5FFF717FF01463F
:10793000084602BD000030B503460020042B15D2D6
:107940000B4C03EB4305012A2C4405D1012908BF48
:1079500003F10E0204D0002231B1022902D005D277
:10796000227030BD627030BDA27030BD072030BDC6
:107970008846002010B5042817D2002914BF4FF400
:1079800040340024FFF778FC4FF0A04101EB800069
:10799000D0F8002722F44032C0F80027D0F80017B2
:1079A0000C43C0F80047002010BD062010BD012187
:1079B000E0E7430080B5012200F05AF8002818BF24
:1079C00007280DD100F058F8002818BF072807D164
:1079D0000A22002100F04DF8002814BF07280020DB
:1079E00002BD80B50020FFF7E2FF002818BF06287F
:1079F00006D10120FFF7DBFF002814BF0628002076
:107A000002BD10B51F4C014609886068102902D0DC
:107A100011291FD010BDC8B901220021FFF78BFF2B
:107A2000002818BF07280CD100F026F8002818BF3E
:107A3000072806D1042200F01BF8002818BF0728E9
:107A400004D000281EBF2168002988476068401CB8
:107A5000606010BD401E606009D1FFF7ABFF0028D9
:107A60001CBF2168002902D0BDE81040084710BDA6
:107A700002210020FFF75FBF072202210120FFF74C
:107A80005ABF0000109B002010B50021DFF87026BF
:107A900000E0491C536A99420CD202EB8104A3789E
:107AA0008478A34202BF32F821300488A342F0D187
:107AB000D06910BD002010BD30B59FB004460D4602
:107AC0007C2100F0C7F803218DF80010ADF80250BA
:107AD0000194DFF82C16C96909B1684688471FB0C0
:107AE00030BDF0B504460D469FB0002085F8C802B1
:107AF000762095F8C612414316466818FFF7C4FF72
:107B000007000AD06846DFF8FC157C2201F008FD6A
:107B1000ADF8026001946846B84731462846FFF741
:107B2000CBFF1FB0F0BD2DE9F04104460D4694F89F
:107B3000C6127620414304EB010816464046FFF783
:107B4000A3FF07003FD0D4F8CC0206283BD204EBB9
:107B5000C0107622A0F8D262D4F8CC1204EBC11087
:107B600000F53570414601F0DBFCD4F8CC02C001D1
:107B700025B104F534720021115403E004F5347189
:107B800002230B5404F55370D4F8CC12DFF870556F
:107B9000C9014750D4F8CC02401CC4F8CC02696A31
:107BA000884210D1002608E0F10104F5347004F594
:107BB0005372084451588847761C686A8642F3D34A
:107BC0000021C4F8CC12BDE8F08170B588B004463D
:107BD0000D4600F03EF894F8C702DFF82435401C4B
:107BE00084F8C702C0B2596A884229D2002084F8BA
:107BF000C502762294F8C602401CC1B284F8C602BF
:107C000012FB01F2224453F821001060002111718F
:107C1000022601218DF80060ADF810101268DFF81F
:107C2000E814CDF81220029103942A46186A694696
:107C300001F0C4FD58B12A462146FFF752FF06E085
:107C4000002084F8C80229462046FFF735FF08B017
:107C500070BD2021684600F035BB70B5A2B990F820
:107C6000C6520989762200F108045543665BB14289
:107C70000FD0491C198000F1080190F8C60212FBD0
:107C800000F28A5A5A800BE00889D488411CA1422C
:107C900001D1002070BD401C1880D088411E598041
:107CA000012070BD30B589B004460D46202101A8E1
:107CB00000F008FB00210091762094F8C6124143A1
:107CC00094F8C502214448B1421ED2B21220424368
:107CD0008818438A5B1CADF8003002E0C888ADF814
:107CE000000003220989DFF81834186AADF8021081
:107CF0008DF8042004942A4600990591DFF80814B1
:107D0000039101A901F05AFD09B030BD2DE9F847F2
:107D100089B005460E469046202101A800F0D2FA0F
:107D200095F8C61295F8C572762041436C184FF04D
:107D3000120919FB07F1611822790A31781C904267
:107D400010D16B4600222846FFF787FFF8B90120C3
:107D5000307000202DE095F8C502401C514685F892
:107D6000C5027F1C2279F8B29042F0D2521E904296
:107D70001DBF19FB00F0201800F11C0A4FF0000A8B
:107D80006B4652462846FFF768FF0028E3D00020E4
:107D90003070042100988DF8041005900495DFF8E8
:107DA0006813DFF85C03006A0391424601A901F001
:107DB00005FD0AB0BDE8F08710B500281CBF0168BA
:107DC000002901D0406808B90E2010BDDFF830232B
:107DD00001241062002314765362D161002010BD8B
:107DE00038B5040001D10E2032BDC54D287E0128D2
:107DF00001D0082032BD2046FFF746FE38B9686A38
:107E0000062806D2216845F82010401C6862002030
:107E100032BD042032BD70B5040088B00E4608BFE4
:107E20000E2041D0B64D287E012801D1686A08B9DC
:107E3000082039E094F8C80208B1112034E04FF46A
:107E4000BA61204600F03EFAFFF703FF286A314688
:107E500001F044FD40BBC4F8CC02002184F8C60206
:107E600084F8C71284F8C512762194F8C602A4F8E3
:107E7000CA6211FB00F1214455F82000086002227B
:107E800001238DF80020ADF8103032460968286AC9
:107E9000CDF8121003949C490291694601F08EFCC2
:107EA00010B9012184F8C81208B070BD00000000AC
:107EB0002DE9F84F040018BF5FEA010A1AD0904874
:107EC000017E012916D19148914E924D861B208842
:107ED000F6083604112846F002064FF012084FF05B
:107EE000760900F00181302805D0322832D03328BD
:107EF00000F0958002E19AF8C612A288BAF8CA3258
:107F000019FB01F99A420AEB0901F3D1E088F8B9AB
:107F10002069C1F8060060899AF8C412C2B25218EA
:107F2000062A03DC40188AF8C4020AE006228AF80E
:107F3000C42230467BA101F042F92946304601F0C7
:107F40003EF9A1885046FFF7ADFE0028D2D0B9E037
:107F50000021C1E000F0E0F8CCD19AF8C622E08818
:107F600019FB02F200280AEB020748D1387961892F
:107F700083465BFA81F2062A02DC081838710CE0AD
:107F80000620387105F148013A88304601F01AF9A7
:107F900005F19001304601F012F95E464FF0000BFA
:107FA00012E00A2204F10C0102FB0BF2114405F16C
:107FB0000A000A2201F0B4FA0020A882E88228838D
:107FC0006883761C0BF1010B387908FB06F17D18EC
:107FD0008642E6D39AF8C6122A8819FB01F90AEB01
:107FE00009010B899A420AD2062808D08AF8C502EC
:107FF0005046A188FFF756FE002863D17EE000209E
:108000008AF8C5020DF10101A2885046FFF77EFEF5
:10801000002857D19DF8010000285BD16EE000F0E8
:108020007BF86BD19AF8C6029AF8C53219FB00F9B1
:108030000AEB090101F10A0218FB03F8E088424447
:1080400050BB00234FF4245500E05B1C6089834241
:1080500022D206265E43A019C7897F1B0BD07F1E44
:1080600006D07F1E0AD0BF1F0AD18089108207E088
:108070008089D08104E08089908101E080895081ED
:10808000508900281CBF90890028DED0D0890028A4
:108090001CBF108A0028D8D000228DF800209AF842
:1080A000C5020979431C8B4203D101208DF80000E1
:1080B00010E0401C8AF8C5026946A2885046FFF7C6
:1080C00025FE20B1A2885146FFF70BFD16E09DF872
:1080D000000098B1A28801215046FFF724FDA18835
:1080E0005046FFF772FD09E000F016F806D10020B7
:1080F0004FF6FF718AF8C802AAF8CA12BDE8F18FDC
:10810000309A002078C30200E37A020060C20200C5
:1081100050C20200B4BF0200A088BAF8CA12884256
:10812000704700004E6F7420656E6F75676820732E
:108130007061636520666F7220736572766963652E
:10814000732E000033B58BB00021044600910C98CB
:1081500080B1002529460CA802F054FA38B10099E4
:10816000684600EB410295800098401C00906D1C11
:10817000142DEFD3204669462C2201F0D1F90DB021
:1081800030BD31B5002400252946684602F03AFA90
:1081900000B1641C6D1C142DF6D3204632BD0000C6
:1081A00000BF7C21464800F08DB8002A18BF02F0BD
:1081B00014BA02F01CBA2DE9F84306468CB0308898
:1081C000B4883F4D102806D011283CD019285CD027
:1081D0001A283ED064E0AA68D243009268466968D3
:1081E00002F03EFA009901A8FFF7ACFF4FF000083B
:1081F0000EE002A8002730F81890281D494600EB31
:10820000870002F0F4F97F1C1E2FF6D308F1010855
:1082100001988045EDD3142C03DB0420FEF7D0FD3C
:108220003EE0214605F1080002F0D7F92146281D5D
:1082300002F0D3F9F07B022832D1214605F10C007F
:1082400002F0CBF92CE0214605F1080002F0CFF94D
:1082500026E0367A3609042EACBF012200222146E0
:1082600005F11800FFF7A1FF022ECCBF012200226A
:10827000214605F11400FFF798FF022EACBF012242
:108280000022214605F1100008E0307A40B9727AE8
:10829000D20802F00102214605F11800FFF785FF20
:1082A0000DB0BDE8F08380B50548C168FFE70091D7
:1082B0008168684602F0D4F90098FFF762FF02BDBA
:1082C000EC980020002202F0F3B9FEE738B5002454
:1082D0000E4D05E0E96811F8340002F076FA641CEE
:1082E000287A8442F6D300218DF80010684602F007
:1082F0002BFB0020C5E900009DF8000002F03FFBC9
:1083000005F1280000F077FA32BD0000B8450020E2
:1083100038B55B4C207808B1852510E0A0600021BD
:1083200061602061E1600FF2E90002F04BFB05465D
:1083300000F06AFB08B902F051FB01212170514A9B
:10834000106808B10121A170284632BD03681A46A1
:1083500000E0126812B18A42FBD170470B600160E5
:10836000704738B5464D0446A87830B114B16168FD
:108370000120884700F029F80BE000F027F824B12D
:10838000214605F11000FFF7E1FFE86808B902F0A7
:1083900032FBE868401CE86012E01CB500F020F8F1
:1083A000374CE068401EE060E068002802BF3549B5
:1083B0000868002803D102F03AFB0020A0700AE010
:1083C0009DF8000002F0DBFA31BD00208DF80000BE
:1083D000684602F0B9BA9DF8000002F0D0FA13BD69
:1083E00000218DF80010684602F0AEBA38B50400DE
:1083F000234814BF00F1100500F1080504E00868E7
:10840000286020464968884729680029F7D131BD8E
:1084100002001B4903D101234B70002002E0012818
:1084200001D18870E2E7704718B9154A01215170EF
:10843000DCE770471CB520B101280AD0032819D009
:1084400013BD114901200860BFF34F8FBFF36F8F39
:1084500013BD00228DF80020684602F075FA084C22
:10846000207808B9FFF754FFE068401CE060012164
:10847000A170B0E702F0B2FAFFF78FFF13BD000062
:108480007C9A00200004014080E100E038B5DFF86C
:10849000A84304F1180002F03AFCD4E900230021BB
:1084A000D4E9024510185941A94206D828BFA04274
:1084B00003D2B0F17F4061F1FF3134BDD1E9022335
:1084C000D0E902018B4204D301D8824201D30120BA
:1084D0007047002070477CB50446DFF85C03017CE0
:1084E000002601293BD1002C39D0FFF7CFFFD4E97A
:1084F0000223994227D301D8904224D300F031F8C7
:10850000206918B94FF0FF32C4E9022200F06FF978
:10851000A0696169884700F024F8206970B1D4E946
:1085200002234FF0FF318B4208BF8A4206D0002160
:1085300010185941C4E90201012500E0002500F0AE
:1085400056F935B90BE04FF0FF30834208BF824245
:1085500005D021460FF2F02002F00EFC0126304635
:1085600076BD8DF80060684602F0EEB9B6A002F064
:1085700014BC2DE9F846814602F0BCFBAE4F38B181
:10858000D7E90001B0F17F4261F1FF33C7E9002371
:108590000021484602F0B6FB00281CBF786900287D
:1085A00004D07869FFF797FF0020786101214846E1
:1085B00002F0A8FB18B1FFF769FFC7E9020100F05C
:1085C00095F80FF2842A4FF0FF3410E04168D1E9AA
:1085D0000223A34208BFA24202D0504602F0CCFBC5
:1085E000694607F1780002F05FFC00F07FF8D0B137
:1085F00001780029EAD002290CD0F1D241687869CB
:10860000814207BF00217961504602F0CDFBE7E7C8
:10861000C0E90244FFF7AAFF0028F9D1012038740D
:10862000DEE7FFF7A3FF504640680068002856D0F9
:10863000D0E902234FF0FF34A34208BFA242F0D09A
:108640007869A0B17869D0E9024083424CD828BF4C
:10865000A24249D278694FF0FF34D0E90223A34205
:1086600008BFA24203D07969504602F085FBFFF7AC
:108670007DFF0546D5E90246FFF708FF201A66EBA5
:10868000010101220023994223DB01DC904220D327
:108690006A4EB04205D907F1180002F038FB3218D3
:1086A00000E022464FF49603002107F1180002F083
:1086B000B2FA38B10D2802D12846FFF70CFF00208E
:1086C0007861B0E7786910B9484602F057FA7D61E1
:1086D0000AE0002107F1180002F00FFBECE77869CF
:1086E00010B9484602F04EFABDE8F186694607F136
:1086F000780002F0ADBB7CB504460D464E4E69468F
:1087000006F1780002F072FB68B1047045606946BA
:1087100006F1780002F08CFB18B106F1180002F0A7
:10872000FAFA002076BD042076BD00001CB500BF1B
:1087300048A0414C016800910823582204F120010F
:1087400004F1780002F03EFBA8B93D4A694604F105
:10875000180002F0CBF970B9012104F1180002F001
:10876000C6FA0123374A012104F1180002F00FFA7A
:1087700001202074002016BD10B5130001D1072080
:1087800010BD00684FF0FF34C0E90244012918BF52
:10879000002142610161002010BD2DE9FC410E461F
:1087A000002105468DF800109046684602F0CCF88E
:1087B00000F03BF808BF904208D1FFF767FE0027A2
:1087C00080197941C5E90201012400E0002400F08C
:1087D0000EF80CB9002008E02869C5F8188000B12F
:1087E0002E6129460020FFF786FFBDE8F6819DF83F
:1087F000000002F0C4B838B5002105468DF800101D
:10880000684602F0A1F800F010F807BF904200247B
:10881000C5E902220124FFF7EAFF0CB9002032BDAE
:1088200029460120FFF767FF32BDD5E902014FF06D
:10883000FF3291427047000000460020FFFFB40065
:1088400073850200FFFF7F0000000000489B0020AE
:10885000BD8402000100060080B515480021417367
:108860000161BFF35F8F00BF13A102F03EFB002048
:1088700002BD80B500218DF80010684602F064F852
:10888000F1EE100A20F09F00E1EE100ABFF35F8FB7
:108890000849402008609DF8000002F070F800F0E0
:1088A000B3F808B141DF01BD20BF40BF20BF01BD0B
:1088B000909A002084E200E0D8C90200F0C90200CA
:1088C00004000000806870472028014604DA504800
:1088D000C84000F001007047402808DA0122A1F1E9
:1088E000200012FA00F018BF0120C0B2704701202A
:1088F000704700001FB5044653A1684602F0F5FA20
:1089000002E0684602F0F5FA00F024F848B100F001
:1089100021F8024620465168126890470028F0D19D
:10892000112004B010BD00001FB5044649A16846DF
:1089300002F0DBFA09E000F00DF80246204651682B
:1089400012689047684602F0D4FA00F003F8002855
:10895000F1D11FBD6846B5E780B51620FFF7B4FF1B
:1089600028B942F20100BDE80240FEF729BA2949C0
:1089700091F816034009082803D2EC22C240D00720
:1089800002D442F20200EEE7234A906820B1116857
:1089900041F48001116001BD4FF48000086001BD09
:1089A00038B51E4D287808B1082032BD0120A870C6
:1089B0000020FFF79FFF112819D00020FFF7B4FF18
:1089C00000F01CF8DFF8581028A010DF0446401E05
:1089D0008041C00F00F00DF80CB1204632BD0020E0
:1089E000A8706870FFF7B8FF0120FFF79DFF002017
:1089F00032BD28709DF8000001F0C1BF00208DF845
:108A00000000684601F0A0BF0448007870470000ED
:108A1000FC06FFBD00E100E0A49A00204C9B002072
:108A200091940200E0B500BF0DA1684602F05DFA26
:108A300005E0486809688847684602F05AFA0299D2
:108A40000029F6D107BDEDE7B0CB0200C0CB020094
:108A500008000000C0CB0200D0CB020008000000DC
:108A6000D0CB0200E0CB02000800000001000007AC
:108A7000FEB50E00074601D10E20FEBD7148724CB6
:108A8000724D3060694600200022002381E80D000D
:108A900004228DF8022006218DF80070ADF8041034
:108AA00069463268202069DF69490C1BE408240408
:108AB00044F0010428B102F02BFA0246294600F0E6
:108AC0005DF800F05EF88DF8011004228DF80220A8
:108AD00001218DF8031069463268402069DF30B10A
:108AE00002F016FA024605F1480100F047F800F0DE
:108AF00048F864218DF80070ADF8021069463268BC
:108B0000232069DF30B102F003FA024605F1940137
:108B100000F034F800F035F801218DF800106946B6
:108B20003268012069DF30B102F0F2F9024605F146
:108B3000DC0100F023F800F024F84FF4B06100915C
:108B400069463268A12069DF30B102F0E1F90246DE
:108B500005F5947100F012F800F013F88DF800108C
:108B600069463268A02069DF30B102F0D1F90246CF
:108B700005F5BE7100F002F80020FEBD204600F0B1
:108B800021BB684600210022002380E80E007047C8
:108B9000000000002DE9F04106462D492A4D3268BB
:108BA0004D1BED0860DF33682D049A42044613D252
:108BB00045F00207DFF89C804146384600F008FB8C
:108BC000254802683068920202F10052121A08F138
:108BD0003401384600F0F6FA1CB92049012008702B
:108BE00009E0204602F094F94FEA00021CA145F08A
:108BF000010000F0E7FA2046BDE8F0811749087847
:108C0000002800D1704700B5B7B0CC22ADF80020E5
:108C1000694604A861DF20B919A101A802F065F92D
:108C20000CE0052818BFFEF7CBF837B000BD51683F
:108C3000126804A8904701A802F05BF9039A002A81
:108C4000F5D1E2E7B845002050C20200B0BB0200F7
:108C5000A8C2020058C402000C010010509B002062
:108C600073645F626C655F656E61626C6528292064
:108C700072657475726E65642025732E00000000A5
:108C8000F8C7020018C80200080000006421018033
:108C900017224280002349221B21037143718271F4
:108CA000C1717047F8B50FF29C2384B0D3E9006717
:108CB000CDE90267ADF80810ADF80A1005460621A7
:108CC0006846FFF7FFFA6A4602A9284690DF0400CB
:108CD00025D002F01DF903469348944E944F861B0D
:108CE000F608360446F001062A463946304600F0BA
:108CF0006FFABDF80000BDF80230002808BF002B55
:108D000005D0024607F14C01304600F061FABDF88B
:108D1000042022B107F18C01304600F053FA2046BE
:108D200005B0F0BD38B5040001D10E2032BDA162FE
:108D300064202080492260802271002504EBC50058
:108D4000801DFFF7A3FF6D1C042DF7D3002032BD5B
:108D500008B90E207047A1F117024E2A01D307204F
:108D600070474180002070472DE9F04303468BB0E7
:108D70009C88A046B8F1040F80F2D3806A4A6B4DFC
:108D8000DFF8B0910F46551B1988ED082D04102906
:108D900045F001050CD0112931D0232900F0A38022
:108DA000242900F082803A292FD0552952D0A6E0FC
:108DB00007EBC400861D3979B171D87B012804D036
:108DC000022804D17988318001E0388830803188E8
:108DD000708888420ED22046A5DF10B9012070713C
:108DE00008E0112802D10120307103E002F090F870
:108DF00000F0A2F8B179F079884205D27CE007EB67
:108E0000C400801DFFF742FF79E0224607EBC40053
:108E1000841D59892088814228BF01461729B8BF7F
:108E200017216180B86A00281CBF607900280DD026
:108E300046A3D3E90001CDE90001ADF8022069465F
:108E40006088ADF804003846BA6A90470020607127
:108E5000207154E0DA8807EBC400861D172A318898
:108E6000B8BF17228A4228BF0A46728020460022D5
:108E70003271B5DF38B102F04BF8024609F1340126
:108E8000284600F09FF97079002838D1B86A002888
:108E900000F035802FA2D2E90001CDE90001ADF844
:108EA00002407088ADF8040018E06846191D2C22B5
:108EB00000F036FBBDF80010BDF8042007EBC1043C
:108EC0006273D7F82800D0B124A0D0E90023CDE9FF
:108ED0000023ADF80210607B8DF804006946BA6A81
:108EE000384690470BE007EBC400801D1A89817952
:108EF000D2B2914288BF11462046FFF7D3FE07EB5E
:108F0000C802907A68B1D1884046A5DF18B901211E
:108F10009072D17205E0112803D001F0F9FF00F042
:108F20000BF80BB0BDE8F08370C2020050C2020023
:108F3000A0C00200F4C3020002464946284600F0E1
:108F400041B900000000000000000000770A0000A6
:108F500000000000770A0000000000007ADA00003C
:108F600000000000DFF8FC04DFF8FC14401AC00821
:108F7000704738B5044689B1FFF7F4FF2568DFF87C
:108F8000EC24002100E0491C814205D232F8213056
:108F9000AB42F8D1216001E0052032BD002032BD96
:108FA00001B56846FFF7E5FF28B9DFF8C40400996A
:108FB00050F8310002BD002002BD0000491EDFF85C
:108FC000B024032902EBC0000BD8DFE801F0020453
:108FD00006080220704704207047007970474079E6
:108FE000704700207047024600201368C3F38002D8
:108FF00092B103F00300012807D0022801BF0868DE
:1090000000EB9350801C086005E00A68C3F38310EE
:109010008218921C0A600120704780B50021DFF899
:10902000540401F0F9FA80F3100002BD2DE9F84173
:1090300085B00D4600218DF800109046DFF81C74B5
:109040000446684601F080FC78682860A61C3AE077
:10905000054602980199800DC01C01EB900125E0A6
:10906000019907F10C0001F0FF0100EB810001A95B
:10907000FFF7B9FF0028F3D1019A07F10C0100F0C6
:10908000CFF90199491C01280191F5D90299BDF840
:109090000E0001F00301012902D00229D8D006E018
:1090A000054602980199C0F383104118019107F217
:1090B000144001F0FBFA08B10198B860294607F2A4
:1090C0001C4001F0D9FA7968B868C1F5807141187F
:1090D000B14216D2012107F21C4001F0CDFA07F58A
:1090E000836001F0E1FA07F2144001F0DDFAB8689C
:1090F000019007F10C0100F0FF00002501EB80005A
:10910000B5E7B8F1000F05D0A40104F4707444F081
:10911000050402E0A40544F0060407F10C003979C7
:1091200040F82140786836189DF800007E6001F014
:1091300026FC012006B0BDE8F0812DE9FC4704467D
:10914000884615469A46012269465046FFF76EFF4B
:10915000DFF8086348B30098801C002106F10C0278
:1091600007E055F8217000F0FF0342F82370401C1F
:10917000491C5145F5D3009DFFF74FFF06F10C093F
:1091800000F039F8E40049F8270024F4707444EA48
:109190008A14C4F3090406F10C0044EA882405F09B
:1091A000FF0544F0010440F82540307818B100F084
:1091B00033F80028FBD1C046C046BDE8F387002342
:1091C0000022BAE780B50092012300F012F801BD39
:1091D000E0B5009201936A460223FFF7AEFF07BD98
:1091E0001FB5069C009201930294032300F001F83E
:1091F0001FBD6A46A1E76F1C000407F0FF0740EAA5
:1092000014407047954881684068814201D101202F
:1092100070470020704700002DE9F04385B0FFF74C
:10922000F1FFF8B98D4EC6F81804BFF34F8F06F161
:109230000C01B068009000F0FF0001EB800005E039
:1092400006F10C0001F0FF0100EB81006946FFF719
:10925000CAFE48B1D6F8180430B970680099814246
:10926000EED3B0600020D2E00020009A06F10C019D
:1092700000F0D6F80099491C01280091F5D902990F
:10928000774801F00301022943D1029D0299AD0DF7
:109290002F46502DA8BF502565F39F51029105F12F
:1092A000080101F065FE5FEA00084FD001F0A8FE5A
:1092B00000F0B0F8009901F0FF01C1F58070800066
:1092C00006F10C02A84202EB810117D228B9A94687
:1092D00006F10C010024002503E0814606F10C0490
:1092E0002D1A5FFA89F908234A46404601F0DEFE4E
:1092F0004CB109F10803EAB2214601E008232A46ED
:10930000404601F0D3FE0098FF1C00EB9700009050
:1093100039E0029901F0030101295DD10299029A15
:10932000C1F383110529DABF029901F470714FF47A
:10933000C07122F47072114302910299C1F383113A
:10934000891C890001F014FE5FEA000844D001F096
:1093500057FE00F05FF8082700240FE00098411C3A
:10936000009106F10C0500F0FF0005EB80013B4683
:109370000422404601F09AFE3F1D641C0298C0F38F
:1093800083108442EAD3D6F81044D6F8180470B19A
:10939000404601F039FE35E0E0684179012904D109
:1093A00022681368414620469847E0680468002C0C
:1093B000F2D1404601F028FE00208DF8040001A8FB
:1093C00001F0C2FAD6F8180408B90098B0609DF808
:1093D000040001F0D4FA15E0D6F8104405E0216845
:1093E0008A6820469047E0680468002CF7D122483C
:1093F000DFF8742021A1801AC008000440F00200A8
:10940000FFF7DDFEFFF7FEFE401E8041C00F05B0F6
:10941000BDE8F0830023082202A9404601F046BEC1
:1094200002F0FF0251F8221002AA42F82010401C5C
:10943000704710B50948D0F810440121017008E0C8
:10944000E16801224A712046226851688847E06835
:109450000468002CF4D110BD00000000CC8D002069
:1094600068CB0200E8C2020050C202000000000007
:1094700050C20200E891002090C202004261636B7A
:10948000656E647320666C75736865640000000027
:1094900072B6FFF7CEFFFFF7BFFE0028FBD11048E2
:1094A000104C1149114D041BE408240444F0010040
:1094B000FFF785FED5F8E400C10700D500BE0C49D2
:1094C00044F00200FFF77BFEBFF34F8F2968094885
:1094D00001F4E06101432960BFF34F8F00BFFDE756
:1094E00090C2020050C2020014C902000CED00E05C
:1094F00020C902000400FA0500F1010310F8011B65
:1095000011B110F8011BFBE7C01A704710F8012BCE
:1095100011F8013B0AB19A42F8D0D01A7047FEE721
:109520004AB1000011F8013B521E00F8013B1CBF7C
:1095300011F8013BF8E77047F0B5002818BF002A82
:1095400021D000250C4602E0865DAD196D1CAEB23F
:10955000771CA74208DAB2F800C0AFB26745F3D370
:1095600087197F789F42EFD1ABB28B420BD2805DDF
:10957000AD1C00281EBF401E81B2002903D011FA85
:1095800085F18C4201DA0020F0BD158080B2F0BD7B
:109590007CB5064600201446ADF80000CCB1092386
:1095A0006A463046FFF7C8FF0546BDF800100800C0
:1095B00018BF002D0E440CD02046FFF79DFFA84297
:1095C00007D12A463146204601F07CFD08B901202A
:1095D00076BD002076BDFEE710B50C46E18A112964
:1095E00001DB092010BD01F0C3FC606008B9042054
:1095F00010BDE28AA169002318E010B50C46A169EC
:109600000988112901DB092010BD891C01F0B0FC7B
:10961000606008B9042010BDA1690023022201F096
:1096200045FDA0690288E1696068022301F03EFD02
:10963000002010BDF8B5140006460F4615D0A4480A
:10964000A44DA5490094401BC008327800043B4655
:1096500040F00100FFF7C4FDB36833B1F1683A464A
:10966000204601B0BDE8F0401847F1BD78B58DB097
:109670000E460546012201A901F0ADFD040025D1E9
:109680009DF80400BDF81410052859D8DFE800F053
:1096900003202D32363ABDF816203046A1DF0446AD
:1096A000112C13D00FF21C309DF8041050F821003B
:1096B00010B1029801F08EFC002201A9284601F0A9
:1096C0008AFD2246314601A8FFF7B4FF0EB070BDF7
:1096D00009A807900023BDF81A20029809A901F0F3
:1096E000E9FC05A93046A3DFD9E70DF116023046A3
:1096F0009BDFD4E705A930469DDFD0E705A93046BA
:109700009EDFCCE709A80890002302980222694650
:1097100001F0D0FCBDF8002008990298CDF81CD0CB
:10972000022301F0C7FCBDF8002005A93046AEDFDA
:109730000400B5D1BDF800008242B3D00C24B1E7DB
:1097400000F0BCF8AEE7000078B50446ADF1240D9A
:1097500000F01DF89BA510E09DF8041055F82100BD
:1097600010B1029801F036FC002201A9304601F048
:1097700032FD0028F0D000F00AF830B9BDF8002022
:10978000A168142042438E18EEE70AB070BDE0686D
:109790000022694601F01FBD70B5024600205568E1
:1097A00000E0401C148883B2A34204D286B235F88C
:1097B0001640A142F5D180B270BD00002DE9F843FA
:1097C00004000D4618BF002D904657D0FFF7BCFF90
:1097D00041462046FFF7E0FF07462878062802DAD0
:1097E00021888F4201D1072062E01420A1684743FD
:1097F000C81901F03EFD002838D028780026052839
:1098000031D8DFE800F02B27211D1003A9690A8851
:1098100000F050F8AEDF060009D1A86901888A423D
:1098200007D00C2605E000F045F89EDF0646112E15
:109830001CD0324641462846FFF7FCFE002037E0A8
:1098400000F038F89DDFF1E7298A05F11202404661
:109850009BDFEBE700F02EF8A3DFE7E76A8A298AAF
:109860004046A1DFE2E700F029F8E2E70FF25419E1
:10987000287859F8202032B1206908B90E2017E065
:1098800029469047A0B9A0682946384401F04DFC0C
:1098900006001EBF297859F8210000281CBF6868FF
:1098A00001F098FBA06841463844FFF7DFFE3046E0
:1098B000BDE8F28305F11001404670470448054AAF
:1098C00039A1801AC008000440F00200FFF777BCFD
:1098D00078C2020050C2020008C50200F8B5044672
:1098E0000E4600250CB90E20F2BDFFF72DFF3146C4
:1098F0002046FFF751FF218888421ED100204FF6F5
:10990000FF7706E0626883B232F81320BA4206D1CC
:10991000401C82B28A42F5D3206901F027FB6168BE
:10992000002000E0401C238882B29A4207D231F81E
:109930001230BB42F6D121F812602846F2BD042550
:10994000FBE77CB504000D4618BF002D2AD0208807
:1099500011280AD1A68831462846FFF71DFFADF829
:1099600000002988884208D173BDA0F13002202A66
:10997000F0D35038202815D2ECE702462088112871
:1099800009D168684FF6FF7120F812106946E8683F
:1099900001F0CBFB73BDAB681420424331469818ED
:1099A000FFF764FE73BD0000556E696D706C656DE8
:1099B000656E746564204741545420526571756525
:1099C0007374000000000000D99502000000000040
:1099D0000000000000000000FB95020081B00022A2
:1099E000425040580090009901B07047405821E122
:1099F000C0F80C15C0F814257047C0F80815C0F859
:109A00001025704730B5039D049C41EA420141EAAC
:109A100083014FF0A04241EA052102EB800041EAB8
:109A20000441C0F8001730BDE0B500F00BF801218B
:109A300005E0E0B50B460021002201910092FFF7FE
:109A4000E1FF07BD00210191009100230122704731
:109A50000121DFF8002401FA00F0106070470000D7
:109A6000F8B504460D46217917462423DFF8E8238C
:109A700013FB01F3D61896F8200008B10820F2BDB8
:109A80000FF2FC3050F82110206801F0FEFB08B105
:109A90001120F2BD286810F1010F04D0FFF7D8FFA4
:109AA0002868FFF7C1FF686810F1010F1CBF002193
:109AB000FFF7BFFF2068A969C0F824156A7D297DDA
:109AC0000A43C0F86C2529686A68FFF791FF287D72
:109AD000012814D1A86810F1010F1CBF0021FFF765
:109AE000A8FFE86810F1010F04D0FFF7B1FFE868A4
:109AF000FFF79AFFAA68E9682068FFF77EFF7760A2
:109B0000706829693160002838D02D7F20684FF4B3
:109B10008871FFF763FF20684FF49071FFF75EFFD5
:109B200020684FF49271FFF759FF20684FF4A2713B
:109B3000FFF754FF00F074F82068DFF82013C0F836
:109B40000413000300166901002803D4DFF8102372
:109B5000115406E0DFF80C3300F00F00184400F851
:109B6000041C21680903091608D4012201F01F0012
:109B7000DFF8F4328240490943F8212008202168A7
:109B8000C1F800050022B261F2617261012086F81D
:109B900020000020F2BDF8B50446174622790E4693
:109BA0002420AD4942438D1806F06041B1F1005FB9
:109BB00001D01020F2BD204600F036F808B1112087
:109BC000F2BD4FF490716F61AE6000262068FFF720
:109BD00005FF00F025F868692168AB6801F244527E
:109BE0001360506001228A606868B8B920684FF439
:109BF0009071FFF7FBFE074600F0B1F8002F08BF99
:109C00000028F3D008B10F2606E021680120C860C3
:109C100000F0A5F80028FBD0002068613046F2BDB6
:109C200020684FF4AC71D9E602798B492420424375
:109C30008818406900B10120C0B270472DE9F84F83
:109C4000064624253079DFF810828946684309F0FA
:109C5000604408EB0003B4F1005F18BF102061D12D
:109C6000586800244FF4047A10B13768C7F808A385
:109C700093469A695AB1DA692AB110B13068C0F8CE
:109C800004A311204EE001241961584603E0C3F8F3
:109C900018B0D9600020D8614FF488713068FFF7A0
:109CA0009DFE30684FF4A271FFF798FE316801F213
:109CB00034500027C0F80090C0F804B014B9012057
:109CC000086005E0D1F8002242F02002C1F800222D
:109CD00008F1040233796B43D05800BB30684FF46D
:109CE0008871FFF783FE814630684FF4A271FFF759
:109CF0007DFE044630684FF49271FFF777FE54EA18
:109D0000090108BF0028E9D0327908F1180115FBD4
:109D100002F54F5100B103271CB10F2701E0C1F834
:109D200004A33846BDE8F28F1FB503460124029113
:109D30008DF800400192684619685A6890471FBD27
:109D4000F8B5024600238DF800300291906801902A
:109D50005361684611685268904705B000BD20689D
:109D60004FF4AC7142E638B5404D84B04FF4927177
:109D700000F082F8384CC0B14FF4927100F07EF8D8
:109D800002208DF800000021D5F88004C5F8800479
:109D90000390D5F83C0562680290A161E161E0683A
:109DA000216801906846904721E04FF4887100F0E7
:109DB00063F8E0B14FF4887100F060F8D5F83C1515
:109DC000A069814213D1E268E06960B1D5F8000270
:109DD00020F02000C5F80002E0692369A061E3607B
:109DE0000020E06100E0A0612046FFF79DFF4FF4F6
:109DF000A27100F041F870B14FF4A27100F03EF88A
:109E0000A06940B10021A161E1612046D5F83C156F
:109E1000E268FFF789FF4FF4907100F02DF848B128
:109E20004FF4907100F02AF80121E960606908B1EF
:109E300000F01EF84FF4AC7100F01EF838B14FF48A
:109E4000AC7100F01BF8606908B100F011F805B0C2
:109E500030BD000008050050589A00201003420051
:109E600000E400E018ED00E000E100E00020004028
:109E7000D5F84C15204663E72846B7E52846ADE5FA
:109E8000679D020081B00022425040580090009926
:109E900001B07047405837E1D0F80403084018BFBC
:109EA0000120C0B27047C0F81425C0F80C157047E7
:109EB000C0F80815C0F810257047D0F81805C0B2D2
:109EC000704701224250704730B5039D049C41EA1F
:109ED000420141EA83014FF0A04241EA052102EB31
:109EE000800041EA0441C0F8001730BDE0B500F041
:109EF0000BF8012105E0E0B50B460021002201919D
:109F00000092FFF7E1FF07BD0021019100910023BE
:109F1000012270470121DFF8702401FA00F010607F
:109F200070470000F8B504460D46217917462C23EA
:109F3000DFF8582413FB01F3D61896F82A0008B16D
:109F40000820F2BD0FF26C4050F82110206801F09B
:109F50009CF908B11120F2BD286810F1010F04D05E
:109F6000FFF7D8FF2868FFF7C1FF686810F1010FFD
:109F70001CBF0021FFF7BFFF2068A969C0F82415A6
:109F80006A7D297D0A43C0F86C2529686A68FFF755
:109F90008AFF287D012814D1A86810F1010F1CBF89
:109FA0000021FFF7A8FFE86810F1010F04D0FFF7C8
:109FB000B1FFE868FFF79AFFAA68E9682068FFF731
:109FC00077FF776029697068316060B32D7F206802
:109FD0004FF48E71FFF756FF20684FF4A271FFF720
:109FE00051FF2068DFF8A813C0F80413000300161F
:109FF0006901002803D4DFF89C23115406E0DFF840
:10A00000983300F00F00184400F8041C216809037D
:10A01000091608D4012201F01F00DFF880338240C6
:10A02000490943F8212004202168C1F800050022D5
:10A030000020B261F06186F829007061012186F884
:10A040002A10F2BD38B50D4604464FF48E71FFF765
:10A0500019FFA868296A405C2A6A521C2A62C4F85F
:10A060001C0531BD2DE9F041054617462A790E46FB
:10A070002C20DFF8181342438C18284600F03EF8D5
:10A0800008B1112038E06761A6602062002184F8E1
:10A0900028104FF48E712868FFF7F4FE286801211C
:10A0A000816000262146FFF7CDFF606818BB2F684E
:10A0B000D4F8148003E021463846FFF7C3FF206A36
:10A0C00040450CD24FF48E713846FFF7E3FE00286E
:10A0D000F1D194F828000028F4D00F2609E0286870
:10A0E0004FF48E71FFF7D6FE0028F8D029680120C2
:10A0F000C860002060613046BDE8F0810279A34964
:10A100002C2042438818406900B10120C0B270473A
:10A1100010B500F08EF820684FF48471FFF7B2FE9E
:10A120002068BDE810400021CBE670B50D4604461E
:10A13000A86900284FF48471204605D1FFF7A2FEDC
:10A140002046BDE87040B8E6FFF79CFE6E6A2046E8
:10A15000FFF7B3FEE9688855686A401C686270BD05
:10A160002DE9F04106462C23347988485C430719D1
:10A170004FF40174786810B13368C3F80843B869C4
:10A1800058B1F86930B1786810B13168C1F804434A
:10A1900011204CE03961FA610AE0BA61F960786235
:10A1A000002197F82900F96110B93046FFF7B0FF98
:10A1B00078683268002837D14FF4A2711046FFF753
:10A1C00061FE30684FF49271FFF764FE0446306818
:10A1D0004FF48471FFF75EFE804630684FF4A27141
:10A1E000FFF758FE054645EA08002043E9D055EA46
:10A1F000040007D130683946FFF797FF786AB969DC
:10A200008842DED30020B8610CB103200FE00DB10D
:10A210000F200CE097F829003168002807BF0120C3
:10A22000486001220A6001E0C2F804430020BDE852
:10A23000F08104464FF49271206823E61FB503466F
:10A24000012402918DF800400192684619685A680D
:10A2500090471FBDF8B5024600238DF800300291EB
:10A26000906801905361684611685268904705B044
:10A2700000BD7FB54A4D4FF400712846FFF70CFE34
:10A28000424C4FF4017608B34FF4927100F090F80D
:10A29000E0B14FF492712846FFF7F4FDC5F808636A
:10A2A00000F080F802208DF800000021D5F880042D
:10A2B000C5F880040390E161A06962680290A16121
:10A2C000E068216801906846904727E0042128460D
:10A2D000FFF7E2FD10B34FF4847100F069F8E8B1C4
:10A2E00021462846FFF721FFA069616A884215D1FF
:10A2F000E06940B1E268616AA06100232069E06022
:10A30000E361636207E000F04DF8C5F808630020E0
:10A31000E268A061616A2046FFF790FF4FF48E71FA
:10A3200000F046F8B0B16069216A814207D294F822
:10A33000280020B921462846FFF784FE0AE04FF4A2
:10A340008E712846FFF79EFD606918B1616920464D
:10A35000FFF780FF4FF4A27100F02AF890B14FF49C
:10A36000A2712846FFF78EFD94F8290008B101215B
:10A370002960A06930B10021A1612046E268616ACC
:10A38000FFF75CFF7FBD000008050050049A002025
:10A390008000020000E400E018ED00E000E100E0D1
:10A3A0000020004094F8290008B901216960704735
:10A3B00028466FE573A2020010B50368C46882885E
:10A3C00014401955C168491CC16010BD10B503681F
:10A3D00084688088611801405B5C137010BD10B503
:10A3E0000A4604460021FFF7F1FFA068401CA06068
:10A3F00010BD10B509B90E2010BD130002D0541EB7
:10A40000144201D0092010BD0160511E818000223C
:10A410008260C260002010BD10B58268C368848865
:10A420009A1A944203D3FFF7C7FF002010BD0420FF
:10A4300010BD80B58268C3689A1A03D0FFF7CFFFBA
:10A44000002002BD052002BDF8B500E0F8B5027895
:10A450008DF800204368019382688DF80820C06859
:10A46000194A039002EB810268469168526890474E
:10A4700005B000BDF8B5044688B02678124F07EB4A
:10A480008600154645600A6982602022487FB855DB
:10A490006846FFF745F804962678B85D40B1002D70
:10A4A00014BF0A4A00226946201DFFF7D9FA08E0C6
:10A4B000002D14BF064A0022694604F10C00FFF784
:10A4C00031FD09B0F0BD0000049B002049A402004A
:10A4D0004DA40200D3BBD9B1B2F5803F5BD2022AB2
:10A4E0001ED98C46B1FBF2F102FB11C31B0443EAF7
:10A4F0001043B3FBF2FC02FB1C3380B240EA03437F
:10A50000B3FBF2F002FB103240EA0C40002370472C
:10A51000022A05D98446B0FBF2F002FB10C2704754
:10A520004AB105D100F0010249085FEA30007047E6
:10A5300000220023704700F0C9BE0B00020000217A
:10A5400000207047F7D3002200237047904271EB40
:10A55000030CF2D370B5B1FA81F4B3FA83F52C1B76
:10A56000A340C4F1200532FA05F63343A2405FF060
:10A570000046E64002E05B085FEA3202841A71EBB3
:10A58000030524BF204629467641F4D302000B0080
:10A590003000002170BD70B5B1FA81F4B2FA82F5D5
:10A5A000C4F120046419B4F12006DAD3B2405FF09C
:10A5B0000044F440002502E052085FEA3303C61A63
:10A5C00071EB020E24BF3046714664416D41F3D3F6
:10A5D00002000B002000290070BD0B46012103F092
:10A5E0001F025B09914000EB830000F021B80B468D
:10A5F000012103F01F0291405B09C94300EB830076
:10A6000000F02EB84A0950F8220001F01F01C8409E
:10A6100000F001007047FEE710B5024652E8000F57
:10A620000C4642E8004393F0000FF7D110BD000044
:10A6300010B5024652E8004F44EA010042E8000328
:10A6400093F0000FF6D110BD10B5024652E8000F8E
:10A6500000EA010442E8004393F0000FF6D110BD78
:10A6600010B5024652E8004F04EA010042E8000338
:10A6700093F0000FF6D110BD10B5024652E8004F1E
:10A6800004EB010042E8000393F0000FF6D110BD87
:10A6900010B5024652E8004FA4EB010042E8000367
:10A6A00093F0000FF6D110BD0121C1E70021CBE7E7
:10A6B00000B500BF130096469446103928BFA0E8A5
:10A6C0000C50FAD85FEA417C28BF0CC048BF40F864
:10A6D000042BC90728BF20F8022B48BF00F8012B24
:10A6E00000BDFEE700F1804000F5C0400068012891
:10A6F00018BF002070471CB5044600F009F800217F
:10A700000160204600F004F800680090009913BD35
:10A7100056E04FF0A040704711B581B00C4601A83B
:10A72000FFF7F7FF00F010F8019B00F5E06221F45D
:10A73000403142F8231000F007F800F5E06041EAEC
:10A74000044140F8221013BD00F5E061019A51F870
:10A750002210704778B50FF2E4142568009503467F
:10A7600008E05DF82350D5F8206542F8046BC5F881
:10A7700020655B1C0D18AB42F3D371BD024601206E
:10A7800002F00703D2089840895C08407047DFF860
:10A790009011084490F93020082A8041C00F70477A
:10A7A000DFF87C11084490F93020082A01DB0120F1
:10A7B000704700207047DFF8680105192046E6E77A
:10A7C00000F1804000F5C040704710B50446FFF727
:10A7D000E7FF20B12046BDE8104000219CE7FFF7CD
:10A7E000EDFF78B14E485049204490F9300051F8BF
:10A7F00020205208520041F8202001214B4A01FA42
:10A8000000F0106010BD2DE9FC41002500954FF4CB
:10A81000807601274FF0080830B2FFF763FF002869
:10A820001EBF40480068384203D030B2FFF763FFD4
:10A830003D437F00361DB8F10108EDD14FF4BE70E5
:10A84000FFF750FF38B14FF4BE70FFF754FF00F030
:10A8500071F845F000452806314F17D00126002435
:10A86000DFF8C4802E420DD058F8240058F8241088
:10A8700057F82420130005D0090C01F00301C0F3A0
:10A88000042090477600641C082CEBD3002D43D5A0
:10A890000024381990F9505015F1010F34D0E8B266
:10A8A00020F0C00869464046FFF768FF60B34FF0EC
:10A8B000A04000EB88012D06D1F80067360CAD0FE3
:10A8C00006F00306022E0CBF032102214046FFF7CB
:10A8D00023FF0120164900FA08F0086007EB080181
:10A8E00091F9302057F8222010000DD0032D08D008
:10A8F000022E02D1012D07D103E0032E08BF022D45
:10A9000002D1294640469047641C042CC1D300F074
:10A9100011F800980028BBD1BDE8F38100000000C9
:10A9200068990020046300401065004008630040FF
:10A93000200500506A46012100200BE7000000506E
:10A94000EFF3108072B6704738B50446FFF7F8FF92
:10A95000134A916871B9012393601249124B1D6823
:10A960000D4015601960596851604FF0FF325A6010
:10A97000002100E00121217000B962B631BD10B59F
:10A98000074CA16859B150B9FFF7DAFF07492268AF
:10A990000A6063684B600021A16000B962B610BD17
:10A9A000A49A0020FC06FFBD80E100E000E100E089
:10A9B0004FF0804181B000220A5008580090009961
:10A9C00001B07047324B19790246002009B1852049
:10A9D000704701211A601971587170472D4801683C
:10A9E000C90704D4C02280F800230121016001209E
:10A9F000294A1060704770B500F027F827480221F7
:10AA0000C0F8FC1226490A6842F080730B60254B9F
:10AA10001C6844F001051D605D685E68761BB6F534
:10AA20000A5FFAD31C600A600121016070BD10B595
:10AA30001D4C0221C4F8FC1200F007F8012121602E
:10AA4000D4F80C04C003FBD410BD4FF48270AFE700
:10AA50004FF48070ACE738B5144D0D4C286848B100
:10AA6000FFF7F6FF0121C5F80812607910B961718E
:10AA700022689047686848B1FFF7E7FF0220C5F8F1
:10AA8000080201202168BDE83440084731BD0000BC
:10AA9000389B002000E100E018050040080000405D
:10AAA000FCED00E0001000E00C0000400001004060
:10AAB00028B10FF2BC21800141F001010847704725
:10AAC00000EB8100C0F840257047C0F808137047BC
:10AAD00081B00022425040580090009901B0704768
:10AAE000C0F844137047C0F84813704770B54379F5
:10AAF000924C934E04EB8305231DAA604579914A3D
:10AB000013F83530B21AD208120433B18E4942F02C
:10AB10000200FEF754FB082070BD05680B88C5F8DD
:10AB20000835897890F904304901002B1D4602D47C
:10AB3000864B595505E0864E05F00F05354405F85E
:10AB4000041C90F90430190007D4012503F01F01FB
:10AB5000804E8D405B0946F82350211D4379012525
:10AB600001F8335090F8051044F8310042F003002A
:10AB70007AA1FEF724FB002070BD000000680121CF
:10AB8000016070470068012140F8041F70472DE9FB
:10AB9000F04104460D46206890464FF48036AE40A2
:10ABA000AA00C0F8086302F5A0721F46C0F8486307
:10ABB00011B2FFF78DFF206828F07F422946FFF78A
:10ABC0007FFF2068C0F844630FB1C0F80463BDE89C
:10ABD000F08170B504460D4620681646FFF780FFE9
:10ABE00016B12068C0F8045370BD38B504460D4650
:10ABF0002068FFF778FF20682946BDE8344064E705
:10AC000010B5006844580CB1FFF762FF200018BF70
:10AC10000120C0B210BD2DE9F84F88464FF48031B5
:10AC200001FA08FA0546994622F07F445146FFF79B
:10AC3000DCFF2868D0F8047500EB88013A46D1F8AB
:10AC400040B541464FEA8806FFF73AFF06F5A07681
:10AC5000286831B2FFF73CFFABEB070727F07F47CF
:10AC6000012F06D11020FFF723FF286831B2FFF72C
:10AC70002FFF2868D0F80475C0F844A3E11B661CB8
:10AC800021F07F41012913D132464146FFF718FFD9
:10AC90001020FFF70DFF2868D0F80405874224D163
:10ACA000012251462846FFF794FF0020BDE8F28FAD
:10ACB00022464146FFF704FF2B68D3F80475641E53
:10ACC000E41B6FF07F4124F07F44A1EB0900A04218
:10ACD0000BD3002CE4D1324641461846FFF7F0FE74
:10ACE0002868D0F804058742DAD00D20DEE70A464E
:10ACF00002216EE74FF4827182E74FF4803202FA4C
:10AD000001F172E7890001F5A07109B278E70068E6
:10AD1000D0F80405704790F90410080007D4012208
:10AD200001F01F000C4B8240490943F82120704775
:10AD3000024908688968084700000000B09A0020AE
:10AD400058C2020050C20200B4C6020000E400E093
:10AD500018ED00E000E100E000E200E05254433A68
:10AD600020696E697469616C697A65642E000000FF
:10AD70000338FDD87047000070B504460D4666687C
:10AD800000E03668306820B1A26829469047002864
:10AD9000F7D130682860356070BD426811680800DE
:10ADA0001CBF09681160704702460020536800E02C
:10ADB00013461A6822B18A42FAD108681860012045
:10ADC0007047FEE750B509B90E2050BD144694FBFC
:10ADD000F3F603FB16440CB1092050BD01608460FA
:10ADE000002141608281C381002050BD3CB550E804
:10ADF000015FAAB2C3891A4483899A4228BFD21A32
:10AE000003899A4202BFBFF32F8F002407E0C2EAF2
:10AE1000050240E80123002BE9D14FF0010400F0C6
:10AE20003AF81AB100680988084436BD002036BDDA
:10AE30000A8849888A4209D150E8011FC1EA0141C4
:10AE400040E80112002AF7D1012070470020704726
:10AE50003CB550E8025F1FFAA5F2C3889A4202BFD0
:10AE6000BFF32F8F00240DE0C3891A4483899A42CF
:10AE700028BFD21AC5EA024240E80223002BE8D1DB
:10AE80004FF0010400F007F81AB10068498808443F
:10AE900036BD002036BD01958DF80040019B0B604A
:10AEA0009DF80020704700000A8849888A4209D12D
:10AEB00050E8021FC1EA214140E80212002AF7D1FE
:10AEC000012070470020704705E00A684B689A42ED
:10AED00009D1083141600268416853689942F4D150
:10AEE000002181607047826070470160096841609D
:10AEF000EAE7816851B103689A6851184268816035
:10AF00005368994202D102F10801F0E77047FEE769
:10AF100080B500F003F800B90FA002BD10B50D49CF
:10AF200001F5947200E01A46914210D2531ADB10D8
:10AF300003EBD3735B1001EBC3031C68A042F2D395
:10AF4000844238BF03F10801EED3586810BD0020D9
:10AF500010BD000080BD0200556E6B6E6F776E20D5
:10AF60006572726F7220636F6465000000F0AFB9A4
:10AF70002DE9F04105460F462E8A00F0BFF9361F35
:10AF8000040002D10020BDE8F081F7190020012162
:10AF9000FF1C20716171A046B7FBF6F7E680FFB297
:10AFA0007F1EC8F80050002607E06179491C6171D6
:10AFB000C8F8000005608046761CBE4208D22846CC
:10AFC00000F09CF90028F0D1204600F003F8D9E702
:10AFD0002046D8E7F8B501460D464C79601E0022A0
:10AFE00000E0521C2D688242FBD3002605E00F686A
:10AFF000284600F0A6F93946761CA642F7D3F1BDE3
:10B000000121001DFFF738BB1CB504460121201D9E
:10B01000FFF73EFB00909DF8000018B92046BDE800
:10B020001640D7E713BD2DE9F0471446B0F8068067
:10B030004279256846465643361F5F1903F1040CD2
:10B04000BE42BCFBF8F234BFF31A2B4608FB12CC0D
:10B050002360002A01E00068521EFCD1A8EB0C021C
:10B060009A469342089F4FF0000988BF92460E46C9
:10B0700005461C4616E005EB0C00001D06EB090317
:10B08000390052460EBF194601461846FEF748FAE7
:10B09000A4EB0A04D1442D68A24644454FF0000CAD
:10B0A00088BFC246002CE6D1BDE8F0871CB50192EE
:10B0B000002402E01CB501920124009401AAFFF7CC
:10B0C000B2FF13BD03000020521E22BF13F8010B74
:10B0D00011F801CBB0EB0C00F6D0521C08BF1046A3
:10B0E00070478068401C70478068814234BF491CAB
:10B0F00000210846704738B501680C684D68A542C4
:10B1000028BF2C1B03D2FFF7ECFF041B2C19204691
:10B1100032BD10B501680C684968FFF7E5FFA04231
:10B1200001D1012010BD002010BD2DE9FC410546D4
:10B1300000260F468DF8006000F094F82846FFF7CF
:10B14000E8FF5FEA00081CBF287C002841D128687E
:10B15000446841682846FFF7C7FF2968B8F1000F27
:10B16000486005D009682846FFF7BEFF29680860D7
:10B17000EA68012A06D0022A08D0042A0BD0082A3D
:10B180000ED015E068683978015518E0686839888C
:10B1900020F8141013E06868396840F824100EE0B5
:10B1A0006868D7E9002300EBC401C1E9002306E089
:10B1B000686802FB040439462046FEF7B1F92846C8
:10B1C000FFF799FF29688B68984238BF1846886056
:10B1D00000E0042641E02DE9FC41044600260D462E
:10B1E00090468DF8006000F03DF8204600F041F8F0
:10B1F00090BB20680768B8F1000F05D101682046B0
:10B20000FFF772FF21680860E268012A06D0022A6F
:10B2100008D0042A0BD0082A0ED015E06168C85D5A
:10B2200028701AE0616831F81700288015E061681D
:10B2300051F82700286010E0616801EBC700D0E9F1
:10B240000023C5E9002308E0606802FB07073946D0
:10B250002846FEF765F900E0052600F006F83046BE
:10B26000BDE8F6816846FFF76FBB9DF80000FFF769
:10B2700086BB006801684068814201D101207047A7
:10B28000002070470F480168084738B50D460E4941
:10B29000884214D100248DF800406846FFF754FB23
:10B2A00008490879002811BF01240D6001200871A8
:10B2B0009DF80000FFF763FB0CB1112032BD0020A8
:10B2C00032BD0000409B002000200040704710B5B8
:10B2D00008B90E2010BD0368426881681A60891A97
:10B2E00003E013685C1C146019700B46591EDBB236
:10B2F0000268002BF5D10020107110BD38B504464E
:10B3000000258DF800506846FFF71EFB2168626833
:10B31000086882420FD2421E0A601578208AE368CC
:10B3200045431D44A36820689A1A0379D2B29A4211
:10B3300038BF1A460A719DF80000FFF720FB284627
:10B3400032BD38B50C46002105468DF80010684620
:10B35000FFF7FAFA286801684A1C0260E8682A8A3E
:10B36000241AB4FBF2F20A709DF80000FFF707FB05
:10B3700031BDFEE738B50D4604460A2D04BF0D2148
:10B38000FFF7F8FFA068411CA160226815546068AF
:10B39000814204D32046BDE8324000F079B931BD86
:10B3A0002DE9F84F8B460124154602E0B1FBF5F17B
:10B3B000641CA942FAD29A460B9FD146A24538BFD7
:10B3C000A14680460A9CF8070CD45CB1B8070CD49F
:10B3D0002026A14506D231464046FFF7CBFF641E2A
:10B3E000002CF6D12E46012507E0BAF1000FEFD16F
:10B3F0003026EEE7AAF1010A7543BAF1010FF9D838
:10B40000BBFBF5F0B04228BF7543F9D29CA1BBFB52
:10B41000F5F005FB10BB095C4046FFF7ABFFB5FB41
:10B42000F6F5002DF2D1F80709D544B1A14506D2B1
:10B4300020214046FFF79EFF641E002CF6D1BDE898
:10B44000F18F2DE9FE4F0D008246174600F00B816B
:10B4500015F8010B010000F0FE80252940F0F58071
:10B46000002602E046F001066D1C29782B2907D042
:10B470002D29F7D0302908BF46F00206F4D002E0AB
:10B4800046F00406F0E700240A2007E02978A1F13D
:10B4900030020A2A0AD26D1C00FB04242A29F5D1A5
:10B4A000396851F8042B396014196D1C29782E293C
:10B4B0004FF000080BD16D1C04E0303900FB08117F
:10B4C0006D1C88462978A1F130020A2AF5D3297823
:10B4D00001E015F8011F6C2918BF6829F9D025294A
:10B4E00006F0010016D0582964D063290DD06429D4
:10B4F00018BF69290FD0702900F08E8073295DD0A4
:10B50000752953D0782955D09DE0386850F8041B30
:10B510003860C9B295E0396851F8049B39605FEA38
:10B52000090148BF494201220A2302E091FBF3F1DD
:10B53000521C0A29FADAC346904538BF93462CB10B
:10B54000B9F1000F01D4710700D5641EB10702D50F
:10B55000B8F1000F08D038B934B1A34504D200F0D7
:10B560008CF8641E002CF8D1B9F1000F03D5C9F195
:10B5700000092D2102E0700702D52B2100F07EF892
:10B5800006F00300022808BFB8F1000F08D13CB153
:10B59000A34505D2302100F071F8641E002CF7D1CC
:10B5A0000196009443460A22494646E000F05DF8C1
:10B5B0000A2242E000F059F810223EE0396851F8C2
:10B5C000048B3960002140B9B8F1000F03D0404628
:10B5D000FDF792FF01460E4613E0894603E000F0B6
:10B5E0004DF809F1010918F8011B0800F7D1A14530
:10B5F00029D244B300F041F8641EF8E700F03DF8AA
:10B60000641EA64201D2002CF8D118F8011B0800D4
:10B6100019D000F033F8F8E7386850F8044B386078
:10B62000302100F02BF8782100F028F80821009153
:10B63000002001900823102221465046FFF7B0FE5B
:10B6400001E000F01BF86D1C01E000F017F828780D
:10B6500000287FF4FDAE9AF80C0020B15046BDE8FA
:10B66000FE4F00F015B8BDE8F78F386850F8041B9E
:10B67000386001960094434670472021504679E691
:10B680003031323334353637383941424344454618
:10B6900010B50446A2682AB12168206963699847F9
:10B6A0000020A06010BD0000002900D170470CB43C
:10B6B00038B500BF05A31C68009404AD00956A4628
:10B6C000FFF7BFFE31BC5DF80CFB0000000000007E
:10B6D000F0B58248824A016811F1010F08BF117864
:10B6E000062905D1D0F8F4117E4BC1F3042119606D
:10B6F0001178062902BF9168C1F30311032902D111
:10B70000794B7A4919600168794B11F1010F08BF33
:10B710001178062905D1D0F81411C1F34231C3F8CC
:10B72000301414787349062C02BF9468C4F30314D0
:10B73000032C05D1D1F8F04024F08074C1F8F0401A
:10B7400000F0E4F808BF1478062C04D100241C6033
:10B750005C60C3F82C441478062C01BF9468C4F3D1
:10B760000314032CC3F894441578062D02BF946883
:10B77000C4F30314032C08D15F4C05252560012672
:10B78000A6670027A7603F25656000F0BFF803BFEC
:10B7900014789568C5F303154568062C36D1ED1E5F
:10B7A000012D33D9554CD0F8D4522560D0F8D86249
:10B7B0006660D0F8DC52A560D0F8E062E660D0F8B0
:10B7C000E4522561D0F8E8626661D0F8EC52256257
:10B7D000D0F8F0626662D0F8F452A562D0F8F86250
:10B7E000E662D0F8FC522563D0F800636663D0F8B7
:10B7F00004532564D0F808636664D0F80C53A5643C
:10B80000D0F81063E664D0F81453256500F07EF894
:10B8100008BF1478062C05D1D0F8284104F04F0455
:10B82000C3F8D84D00F072F808BF1478062C07D181
:10B83000D3F8F422D40744BF6FF00102C3F8F42216
:10B840000468062C08D14268D21E022A04D92C4A68
:10B85000156845F480651560CA6F42F47002CA67C6
:10B86000BFF34F8FBFF36F8F0468264A062C06D1B3
:10B870004068C01E032884BF9568C3F84C54106804
:10B8800000285CBF506800281DD5114B0124C3F867
:10B89000044100F03FF81524146000F03BF85460B8
:10B8A00000F038F80022C3F8042100F033F8BFF3A9
:10B8B0004F8F0A68144802F4E06202430A60BFF343
:10B8C0004F8F00BFFDE7034A03491160F0BD000040
:10B8D00000E40140347000200090D00330010010DB
:10B8E000E00F00F04035014074C007400DF0ADBAE4
:10B8F0000C0100400CED00E01056004020C5004057
:10B900003C170040001200100400FA05046814F10E
:10B91000010F704718680028FCD070477CB50446BA
:10B920000D46E3884BB100BF0FF2D8160FF2DC12C0
:10B9300078A100962846FFF7B7FE217A05291CD08A
:10B94000607A6F4E48B1A088FDF738FB06EB8000A7
:10B9500065A142692846FFF7A7FEA0880021FDF7F0
:10B960001FFB0346207A56F8202028460DF1080DCB
:10B97000BDE870406DA1FFF797BE73BD38B50C46AA
:10B98000017A052959A507D0407A30B15DA256A1A8
:10B990002046FFF789FE00E01AB129462046FFF74E
:10B9A00083FE2046BDE83240FFF772BE2DE9F84322
:10B9B00084B017460C9D2E7B002281460C4698468B
:10B9C0002A7329464046FFF7A9FF062F2CD8DFE847
:10B9D00007F004090F1A21161D0049462846FFF7F3
:10B9E00063FE21E0226849462846FFF75DFE1BE022
:10B9F0006368226849462846FFF756FE14E020692E
:10BA00000290E1680191A068009007E060690390EE
:10BA100021690291E0680190A16800916368226841
:10BA200049462846FFF740FE002229464046FFF7D8
:10BA3000A5FF2E7305B0BDE8F08300002DE9F84F97
:10BA40008A46BAF1080F814698464AD800920022E9
:10BA500098F80CB038A588F80C2041460098FFF7FC
:10BA60005DFF002722A4574506D219F80720294672
:10BA70004046FFF719FE03E021464046FFF714FE5B
:10BA80007F1C082FEFD31BA14046FFF70DFE0026B9
:10BA900019A71AA4564516D219F806507F2D0BDAAD
:10BAA000A5F120005F2808D3284600F049F820B906
:10BAB000284600F04FF800B92E252A462146404678
:10BAC000FFF7F2FD03E039464046FFF7EDFD761C37
:10BAD000082EDFD3009801224146FFF74FFF88F878
