:020000040800F2
:10000000080900207D50000823440008254400080A
:100010002B4400082D4400082F4400080000000075
:100020000000000000000000000000003144000853
:10003000334400080000000035440008374400083D
:10004000A34D0008A34D0008A34D0008A34D0008D0
:10005000A34D0008A34D0008A34D0008A34D0008C0
:10006000A34D0008A34D0008A34D0008A34D0008B0
:10007000A34D0008A34D0008A34D0008A34D0008A0
:10008000A34D0008A34D0008A34D0008A34D000890
:10009000A34D000841440008A34D0008A34D0008EB
:1000A000A34D0008A34D0008A34D0008A34D000870
:1000B00039440008A34D0008A34D0008A34D0008D3
:1000C000A34D0008A34D0008A34D0008A34D000850
:1000D000A34D0008A34D00083D440008A34D0008AF
:0C00E000A34D0008A34D0008A34D00082C
:1030000030B58BB00C4615460121084601F0E8FAB0
:10301000DFF8B40A00900194002002900395049018
:103020008020059000200690079008904FF44050B3
:10303000099000200A90DFF86C4B0146204601F011
:1030400032F86946204601F013F80121204601F0CC
:103050002AF80BB030BD00002DE9F04107460D46BF
:1030600090461E46DFF8BC4A4FF40031204601F07E
:10307000ABF90028F8D10121204601F067F9DFF80B
:10308000A81A204601F094F90028F8D00022394609
:10309000204601F084F9DFF8941A204601F088F9FF
:1030A0000028F8D04146204601F077F9DFF8F87A99
:1030B0003946204601F07CF90028F9D04FF000088D
:1030C0000DE04046C0B2295C204601F066F9394661
:1030D000204601F06DF90028F9D008F101084046BA
:1030E0003146C0B28842ECD301212046BDE8F04110
:1030F00001F039B92DE9F84305460E4617469846C2
:10310000002000900090DFF81C4A4FF40031204668
:1031100001F05AF90028F8D10121204601F016F9F2
:10312000DFF8049A4946204601F042F90028F9D018
:1031300000222946204601F032F9DFF8F019204636
:1031400001F036F90028F8D00121204601F0E4F81A
:103150003946204601F021F9DFF84C1A204601F0EB
:1031600027F90028F8D0424631462046FFF748FFAD
:10317000A08840F48050A0800121204601F0D9F8B9
:103180004FF6FF7600960121204601F0DFF8494610
:10319000204601F00DF90028F9D00098411E009159
:1031A000002833D0009601222946204601F0F7F886
:1031B000DFF8F819204601F0FBF80028F8D0009855
:1031C000411E0091002821D0208B00904FF4003048
:1031D00000F074FF0028F9D00021DFF8C80900F0E2
:1031E00062FF4FF4003000F077FF0021204601F02D
:1031F000C7F80121204601F0B6F820888005FCD4EC
:1032000001212046BDE8F44301F0BAB8BDE8F183DE
:1032100080B500218DF80210ADF8001041788DF8CE
:103220000210027881780A438DF80120C0788DF869
:10323000000001231F220DF10201D420FFF70CFF33
:10324000012320220DF10101D420FFF705FF012306
:1032500021226946D420FFF7FFFE01BD80B5002181
:103260008DF80210ADF80010027881780A438DF8CD
:103270000220C1788DF8011040788DF800000123FC
:1032800010220DF10201D420FFF7E6FE01231222E5
:103290000DF10101D420FFF7DFFE01231E22694654
:1032A000D420FFF7D9FE01BD80B500218DF80010B4
:1032B000027841780A43807802438DF80020012388
:1032C00022226946D420FFF7C7FE01BD1FB5044680
:1032D0000C2318226946D420FFF70CFF00200BE0D6
:1032E000694601EB400149786A4612F8102002EB6A
:1032F000012224F81020401C0628F1DB1FBD1CB55C
:1033000004460623282269463820FFF7F3FE0020F2
:103310000BE0694601EB400149786A4612F810203B
:1033200002EB012224F81020401C0328F1DB13BD1E
:10333000F8B50546FFF7CAFF05F11800FFF7DFFFF4
:10334000002629E005EB4604E088A0812088608201
:1033500005EB8607B4F90C0001F0D8FA01F0E8FAA1
:10336000DFF84C28DFF84C3801F006FB0022DFF8CC
:10337000483801F0F3FB01F015FD3862B4F9120092
:1033800001F0C4FADFF8341801F040FDDFF86818E6
:1033900001F0A8FDF862761C032ED3DBF1BD80B5E9
:1033A000002001F0CEF8002001F0A6F8002001F086
:1033B00066F801F047F84FF4803001F060F801F052
:1033C0007AF8DFF83818087001281CD1022000F0C4
:1033D0008CFE102000F091FE4FF480214FF440301D
:1033E00001F081F8012001F087F8022001F088F84F
:1033F000002001F08DF8002001F09AF80020BDE8CF
:10340000024001F08DB801BD80B50021DFF8F00762
:1034100001F0FEF800214FF63D4001F0EDF80021EB
:103420005720BDE8044001F0DBB8E0B501210846B3
:1034300001F0EEF80020ADF8020040F60F60DFF872
:10344000C417096890FBF1F0ADF8000040F2CF70AE
:10345000ADF804000020ADF806008DF808006946BC
:103460004FF0804001F016F901214FF0804001F04B
:103470004FF9012211464FF0804001F056F907BD87
:1034800018B585B00121042001F0B6F80420ADF88C
:10349000000003208DF8020018208DF80300DFF8EB
:1034A00068476946204600F03BFE0820ADF8000062
:1034B00003208DF8020004208DF8030069462046A1
:1034C00000F02EFE03208DF802000120ADF8000070
:1034D00018208DF803006946204600F021FE0220E6
:1034E000ADF8000018208DF803006946204600F072
:1034F00017FE01214FF4003001F08AF8DFF80C4785
:103500000021204601F0B3F9204601F01BF94FF4E9
:10351000E120019000200290ADF80C000C20ADF8E5
:103520000E004FF44070ADF8100001A9204601F0E4
:103530005CF90121204601F09AF9012240F225515F
:10354000204601F0A1F906B010BD10B588B00121E8
:10355000082001F051F84FF48070ADF800004820C9
:103560008DF80300DFF8A8466946204600F0D8FD34
:103570004FF40070ADF8000018208DF80300032010
:103580008DF802006946204600F0CAFD0121084678
:1035900001F032F801214FF0007001F039F8DFF846
:1035A0002C48204600F00CFB01214FF4EA1000F0FB
:1035B0000BFE0020ADF80A00ADF80C008DF80E00EF
:1035C00001208DF80F000020ADF8060001208DF8D5
:1035D000080002208DF80900ADF8040001A920467A
:1035E00000F018FB02208DF81A0001208DF81B0056
:1035F0008DF81C004FF40870ADF810000020ADF8F5
:10360000120005900120ADF818008DF81D0004A8E7
:1036100000F07DFBDFF8B80740F22131C0F89C10C4
:103620000121C0F8A010002180F8A51080F8A41096
:10363000082180F8A6100021C0F88810C0F88C106E
:1036400080F8901080F8921080F89B1080F893100A
:1036500001221021204600F0C3FB08B010BD80B548
:1036600000214FF0006000F094FA4FF4407000F039
:1036700051FA1C208DF800000F208DF80100002069
:103680008DF8020001208DF80300684600F050FA22
:103690004FF4C06000F03EFA26208DF800000020B4
:1036A0008DF8010001208DF802008DF803006846B6
:1036B00000F03EFA4FF4E06000F02CFA15208DF88F
:1036C000000002208DF8010000208DF8020001208A
:1036D0008DF80300684600F02BFA01BD10B58AB0E2
:1036E00001214FF4800000F093FF0121082000F039
:1036F00083FF4FF44060ADF8040003208DF806000E
:103700001C208DF8070001A9DFF8040500F008FD72
:10371000DFF81044204600F087FD0020ADF81C00C3
:103720004BF6FF70ADF81E000020ADF820004FF4FE
:103730008060ADF822004FF48040ADF82400DFF83F
:103740009406069006A9204600F08AFD0121204635
:1037500000F0E2FD38208DF809008DF811001820E6
:103760008DF80A008DF81200C0208DF808008DF841
:103770001000DFF864060390DFF840040590802015
:103780008DF80B0002A8FFF743FD04A8FFF766FDC4
:1037900004208DF80200C0208DF8000000208DF874
:1037A00001006846FFF780FD0AB010BD1CB501217D
:1037B000082000F021FF0220ADF8000010208DF855
:1037C000030003208DF80200DFF8444469462046D8
:1037D00000F0A6FC00220221204600F0EFFC13BD01
:1037E000C2685140C160704770B5DFF8E44504F12C
:1037F0002800FFF79DFDB4F93400207000126070BE
:10380000B4F93600A0700012E070B4F938002071ED
:1038100000126071B4F93A00A0710012E071B4F9BD
:103820003C00207200126072B4F93E00A0720012D7
:10383000E07294F8B000207394F8B100607394F8CB
:10384000B200A07394F8B300E07394F8B40020744D
:1038500094F8B500607494F8B600A07494F8B700BA
:10386000E07494F8B800207594F8B900607594F885
:10387000BA00A07594F8BB00E07594F8C4002076F7
:1038800094F8C500607694F8C600A07694F8C70056
:10389000E07694F8C800207794F8C900607794F82F
:1038A000CA00A07794F8CB00E07794F8CC0084F8B5
:1038B000200094F8CD0084F8210094F8CE0084F81C
:1038C000220094F8CF0084F823000025DFF83C6341
:1038D0000AE0615D304600F0F4FF8021304600F0E0
:1038E000F8FF0028F9D06D1CD4F8E0008542F0DB29
:1038F0008021304600F0EDFF002802D0012084F83E
:10390000DA00D4F8E400401CC4F8E4006F2807D1C2
:103910000221DFF8FC02FFF763FF0020C4F8E40097
:1039200070BD38B5DFF8A824C2F89C1082F8A70053
:10393000012082F8A600DFF8944402F19C012046A1
:1039400000F058FA05462946204600F0B4FA01284E
:10395000F9D131BD10B501214FF0804000F0EFFEEC
:10396000DFF86C4494F8DC0000280CD0D4F8E800B0
:10397000401CC4F8E800642821D1FFF7AFFE002006
:1039800084F8DC0010BD94F8DA00002817D000207D
:1039900084F8DA0094F8DB00002810D094F8D900FD
:1039A000002806D0002084F8DB0012210120FFF758
:1039B000B8FFDFF8280400F088FFA4F8DE0010BD8F
:1039C00038B5DFF808541021284600F0F8FADFF87F
:1039D000004404F188020121284600F0B1FA94F86D
:1039E0009300012802D0022832D031BD94F894000F
:1039F00041280FD1002106E004F19502525C6318C2
:103A000083F8B020491C0629F6DB94F8DD10491C28
:103A100084F8DD1047280FD1002006E004F195015D
:103A2000095C221882F8B610401C0628F6DB94F8D0
:103A3000DD00401C84F8DD0094F8DD00022837D159
:103A4000002084F8DD0013210220BDE8344068E73F
:103A500094F8940041280FD1002106E004F195026A
:103A6000525C631883F8C420491C0629F6DB94F8DD
:103A7000DD10491C84F8DD1047280FD1002006E036
:103A800004F19501095C221882F8CA10401C06282E
:103A9000F6DB94F8DD00401C84F8DD0094F8DD00CE
:103AA000022805D1002084F8DD00012084F8DB0025
:103AB00031BD80B540F22551DFF8200300F010FF42
:103AC000BDE8014090E600001058004080B5FFF7C7
:103AD0009BFCFFF764FCFFF769FEFFF7A6FCFFF70E
:103AE000CFFCFFF732FDFFF7BAFDDFF8E40290F8F4
:103AF000D810322901D0332905D10C21C0F8E010AB
:103B0000002180F8D91001220221DFF8040100F021
:103B100055FBFEE7DFF83C150843DFF83C1508606D
:103B200070470000005800400100030082000700B9
:103B300070B403781C460122C17800291ED0DFF83A
:103B400018150B6803F4E063C3F5E0631B0A4578BE
:103B5000C3F104018D4081780F26DE4031400D43D2
:103B60002D01DFF8F8140D55017801F01F00824097
:103B7000DFF8EC04491140F8212008E003F01F03AE
:103B800002FA03F3DFF8DC04641140F8243070BC5F
:103B90007047DFF8D42411400843DFF8D0140860E0
:103BA0007047000058000240840007000200030034
:103BB00008AC1C5A643BAF3F00408F4000008C4271
:103BC00080B5824988420BD101214FF0007000F08E
:103BD00037FD00214FF00070BDE8044000F030BD1B
:103BE00001214FF0806000F02BFD00214FF080603C
:103BF000BDE8044000F024BD00007A440401002028
:103C00003FC8E61A000100200008014000440040BF
:103C1000000C014010B400221346046824F0020492
:103C20000460046844F00104046000E05B1C446824
:103C3000E40703D44FF6FF74A342F7D14368DB07D0
:103C400062D58B79012B036803D143F080030360B5
:103C500002E023F080030360CB79012B036803D1DA
:103C600043F04003036002E023F0400303600B7A5B
:103C7000012B036803D143F02003036002E023F02B
:103C8000200303604B7A012B036803D143F0100338
:103C9000036002E023F0100303608B7A012B0368BA
:103CA00003D143F00803036002E023F0080303603C
:103CB000CB7A012B036803D143F00403036002E0D5
:103CC00023F0040303608B78CC78240644EA8374E1
:103CD0000B7944EA03444B7944EA03540988491EAA
:103CE0000C43C4610168490849000160114600E0C5
:103CF000491C4368DB0703D54FF6FF739942F7D1A0
:103D00004068C00700D40122104610BC7047F0B4D0
:103D10000121827A01FA02F2DFF8F433196841F0E6
:103D200001011960D443D9692140D961017B00297F
:103D300013D1D9682140D960DFF8D813C5884688E7
:103D400046EA0546857A41F83560091D857A8688F8
:103D5000078847EA064741F83570017B012913D1EE
:103D6000D9681143D960DFF8AC130588468846EA64
:103D70000546857A41F83560091D857A8688C788A9
:103D800047EA064741F83570C17A0029596802D1DF
:103D90002140596001E0114359600189002902D195
:103DA00059690C405C610189012902D159691143AB
:103DB0005961407B012802D1D8690243DA61186851
:103DC000400840001860F0BC7047000000640040EC
:103DD00000000020801A060023DB793E00440040EA
:103DE000002A426902D011434161704722EA010171
:103DF0004161704770B4002283685B010AD4826815
:103E0000120101D5012205E08268D20001D502220B
:103E100000E00422042A4BD000EB0213D3F8800107
:103E200000F00100C3F880014C7A087A002808D11C
:103E3000D3F880010D6840EA45500443C3F880413F
:103E400008E0D3F880514E6845EAC605284304438C
:103E5000C3F88041887A00F00F008872D3F884019B
:103E600000090001C3F88401D3F88441887A04432F
:103E7000C3F88441887B4C7B240444EA0064087BBB
:103E800044EA0024C87A0443C3F88841887C4C7C07
:103E9000240444EA0064087C44EA0024C87B044308
:103EA000C3F88C41D3F8800140F00100C3F88001D1
:103EB000104670BC70470022002903D002291ED092
:103EC0000ED32AE081688A0002F00402816801F0C2
:103ED00002010A438068800E00F0010002431CE0EA
:103EE0008268920902F004028168090A01F0020165
:103EF0000A438068C00E00F0010002430DE08268B2
:103F0000920B02F004028168090C01F002010A43DD
:103F10008068000F00F001000243002A02D0072A47
:103F200002D003E002207047012070470020704754
:103F3000002902D12021C160704720210161704712
:103F400018B40B4610EB0314D4F8B03113F004038B
:103F50001372D4F8B03102D15B0D136001E0DB08BD
:103F60005360D4F8B03103F002035372D4F8B43183
:103F700003F00F039372D4F8B4311B0AD374D4F84E
:103F8000B831D372D4F8B8311B0A1373D4F8B831EE
:103F90001B0C5373D4F8B8311B0E9373D4F8BC3197
:103FA000D373D4F8BC311B0A1374D4F8BC311B0C86
:103FB0005374D4F8BC311B0E937414BCB8E70429B5
:103FC00026D0052919D006291AD007291CD008297E
:103FD00021D0202922D0402923D0B1F5807F23D0C1
:103FE000B1F5007F25D0B1F5806F27D0B1F5803FC6
:103FF00029D0B1F5003F29D0704701218160704779
:104000004FF48071816070474FF480318160704758
:104010000821C16070471021C1607047082101610B
:104020007047102101617047816949084900816129
:104030007047816921F0020181617047816921F037
:10404000040181617047082141607047102141607F
:10405000704700000000FA050CED00E000E400E00D
:1040600000E100E080E100E080FFFF1F08ED00E0DC
:1040700003686FF30E138A6813430A6A13430A69CD
:1040800013434A6913438A691343CA6913434A6A4B
:1040900013438A6A13430360CA6842600A688260F5
:1040A0004968C16070470029016803D041F00101EF
:1040B00001607047490849000160704701460020CF
:1040C000DFF85820CB0002D5D2F8002400E01268B7
:1040D0000A4200D001207047DFF83C10C20002D530
:1040E000C1F80004704708607047DFF838110A68AB
:1040F00002F03802104308607047DFF828110A68A0
:1041000022F010020A600A6810430860704700003D
:10411000006600404066004004000240000002408B
:10412000F0B40024CA78134603F00F03D20601D579
:104130008A7813430A88D2B2002A1AD0026815E09E
:10414000482D12D1066110E00126A6400D883540A9
:10415000B5420AD1A5000F27AF40BA4303FA05F5CF
:104160002A43CD78282DEBD14661641C082CEBD373
:1041700002600A88B2F5807F1EDB4468002218E0E6
:10418000012602F1080506FA05F50E882E40AE421A
:104190000ED196000F27B740BC4303FA06F634430E
:1041A000CE78282E00D14561CE78482E00D1056109
:1041B000521C082AE4D34460F0BC7047002A01D0A6
:1041C000016170474161704770B4DFF8B82413682B
:1041D000C0F3034485B200F44016B6F5401F06D183
:1041E00023F07063146824F07064146010E0C60259
:1041F00006D5032606FA04F4A34343F0706307E0F0
:104200000446640D240105FA04F4A34343F07063EB
:10421000002903D0400D000185402B43136070BC82
:10422000704700000020024080B5DFF85C1488422F
:104230000AD101214FF4001000F002FA00214FF4DE
:104240000010BDE80440FBE101214FF4800000F0C4
:10425000F7F900214FF48000BDE80440F0E10000D0
:1042600078B585B004460D46A688684600F06DF91D
:10427000029ADFF81804B2FBF0F14FF6C070064066
:104280000E43A68023884FF6FE70034023802B68E0
:10429000DFF8FC0383420AD25B00B2FBF3F2104664
:1042A00080B2042800DA0422491C21841FE0E88837
:1042B0004BF6FF76B04204D103EB4303B2FBF3F2BB
:1042C00005E019204343B2FBF3F242F480421005AB
:1042D00001D142F0010242F4004289B24FF49670DB
:1042E00041434FF47A7091FBF0F0401C2084A2838C
:1042F000208840F00100208021884FF6F5300140F1
:10430000A8880143688901432180A989288901433C
:10431000218106B070BD0000002904D0018841F061
:1043200001010180704702884FF6FE710A40028049
:104330007047002904D0818841F400618180704772
:1043400082884FF2FF710A4082807047002904D0B2
:10435000018841F480710180704702884FF6FF6147
:104360000A4002807047002904D0018841F400719E
:104370000180704702884FF6FF510A400280704763
:10438000002904D0018841F48061018070470288CF
:104390004FF6FF310A400280704701827047002AC1
:1043A00002D041F0010101E001F0FE0101827047FD
:1043B00002460020938A128B43EA024323F07F4394
:1043C0008B4200D10120704782B000221346019336
:1043D000009300900846000F019021F07F41019862
:1043E000002803D000981430009003E0090C0098D6
:1043F0001830009000980068084200D00122104652
:1044000002B07047BFF34F8FDFF8C4120A6802F49E
:10441000E062DFF8C00202430A60BFF34F8F00BFC3
:10442000FDE77047FFF7EEFF00BFFEE7FEE7FEE7A0
:104430007047704770477047FFF78CBAFFF739BB7A
:10444000FFF7BEBADFF89012086840F0010008607C
:104450004A68DFF8880202404A600A68DFF8800292
:1044600002400A60086820F480200860486820F450
:10447000FE0048604FF41F00886070470000DFF8BE
:1044800058120A6822F480320A600A6822F48022F4
:104490000A60B0F5803F03D0B0F5802F05D070479B
:1044A000086840F4803008607047086840F4A02035
:1044B0000860704700001CB50020009004463120C1
:1044C00000F0CAF80099491C00910099B1F5A06F5D
:1044D00001D00028F3D0312000F0BEF8002800D031
:1044E0000124204616BDDFF8FC21136823F47C1359
:1044F0001843084310607047DFF8EC1108607047FC
:10450000DFF8E0110A68920850EA820008607047FC
:10451000DFF8D0110A6822F0F002104308607047FB
:10452000DFF8C0110A6822F4E062104308607047A7
:10453000DFF8B0110A6822F4605242EAC0020A6051
:104540007047DFF8A8110860704710B4DFF89421B5
:10455000116801F00C0108291BD1136803F47013D2
:10456000116801F480319B0C9B1C002904D1DFF8F9
:1045700080114B4303600FE01168890304D5DFF815
:1045800070114B43036007E0DFF868114B43036091
:1045900002E0DFF860110160116801F0F001DFF85E
:1045A00058310909595C0468CC404460116801F431
:1045B000E061090A595CCC408460116801F46051E3
:1045C000C90A595C4468CC40C460116801F4404198
:1045D00003EB9131097CB4FBF1F1016110BC704730
:1045E000DFF818210029116802D0084310607047D5
:1045F00021EA000010607047DFF8042100291168EB
:1046000002D008431060704721EA00001060704734
:10461000DFF8F0200029116802D0084310607047CD
:1046200021EA000010607047DFF8DC2000291168E3
:1046300002D008431060704721EA00001060704704
:10464000DFF8C8200029116802D0084310607047C5
:1046500021EA000010607047014600200A46520916
:10466000DFF87430012A01D11A6804E0022A01D16E
:104670001A6A00E05A6A01F01F01CA40D10700D54A
:1046800001207047040001400054004040420F00E8
:10469000A1860100028802F08F0202800388CA8886
:1046A00013434A88134303808A8882850A880285D7
:1046B0000246DFF83C329A4203D0DFF838329A42A1
:1046C00001D1097A01860121818270470000000032
:1046D0000CED00E00400FA05001002400000FFF8B5
:1046E000FFFFF6FE04100240600042428004424296
:1046F00000093D0000127A00EC0000201410024076
:10470000181002401C1002400C1002401010024011
:10471000002904D0018841F001010180704702881E
:1047200040F2FE310A4002807047002A828902D09E
:1047300011438181704722EA010181817047C94399
:104740000182704780B5DFF8B01188420BD101219A
:104750004FF48040FFF768FF00214FF48040BDE830
:104760000440FFF761BFDFF8941188420BD10121AB
:104770004FF40030FFF764FF00214FF40030BDE834
:104780000440FFF75DBFDFF8781188420BD10121AB
:104790004FF48020FFF754FF00214FF48020BDE844
:1047A0000440FFF74DBFDFF85C1188420BD10121B7
:1047B0004FF40020FFF744FF00214FF40020BDE834
:1047C0000440FFF73DBFDFF8401188420BD10121C3
:1047D0004FF48010FFF734FF00214FF48010BDE844
:1047E0000440FFF72DBF01BD000030B585B0044681
:1047F0000D46218A4CF6FF700140E8880143218272
:10480000A1894EF6F3100140A8880143288901438D
:1048100068890143A181A18A4FF6FF400140A88920
:104820000143A1826846FFF790FEDFF8CC00844286
:1048300001D1039900E002991920414328688000C2
:10484000B1FBF0F26420B2FBF0F109010B461B0949
:104850006FF0630000FB0322120132326420B2FBCE
:10486000F0F000F00F000143218105B030BD0029B8
:1048700004D0818941F400518181704782894DF6CD
:10488000FF710A408281704710B40B46DBB25B09AE
:10489000012401F01F0104FA01F1012B01D10C30B8
:1048A00004E0022B01D1103000E01430002A02682D
:1048B00002D01143016002E022EA0101016010BC54
:1048C0007047C1F30801818070478088C0F30800F9
:1048D00070470246002012880A4200D0012070472B
:1048E0000122090A02FA01F189B2C9430180704725
:1048F000002C0140003401400038014000440040D9
:1049000000480040004C00400050004010F0004CB7
:1049100068B148BF4042B0FA80F18840D1F19D01B2
:104920004CEAC15C010671F100414CEB102070476C
:10493000C0F3C75181B1FF2906D0C110400721F053
:10494000E04101F16051704741020CBF40F4E001C9
:104950006FF000410020704700F0004100020AD0D3
:10496000B0FA80FC00FA0CF001F16051A1EB0C519F
:1049700001EBD0214005704730B540F2FF7C1CEAC6
:1049800011541DBF1CEA1355644565453FE0641989
:1049900081EA030C6FF35F530CF0004C43F4801377
:1049A000C90241F0004141EA505EC5021100A5FB79
:1049B000020200284FF00000EEFB01204FF0000142
:1049C000E3FB052118BF42F00102401800214941D4
:1049D000E3FB0E01A4F580640D0302D2921840415E
:1049E000494154F1010470DD450872F1004250F173
:1049F000000051EB0451A1F5801102D441EA0C01F1
:104A000030BD40F2FF7E4CEA0E51002030BD0CEA72
:104A10001355644518BF654581EA030C0CF0004C42
:104A200041D050EA410E1CBF52EA430E02E06146FB
:104A3000002030BD24422C441BD15FEA050EF6D085
:104A4000090302BF01460020AEF1140EB1FA81F550
:104A5000AEEB050401FA05FE0C35C5F1200100FAA4
:104A600005F5C8404EEA000E6FF35F5343F4801320
:104A70009CE733F00043B3FA83F504BFB2FA82FE39
:104A800075440B3D641BB5F1200E2FBF02FA0EF3E7
:104A9000AB40C5F1200E22FA0EFE38BF43EA0E03EA
:104AA000AA40641C7CE750EA410E14BF52EA430E50
:104AB0006FF000014FF4001515EB430F8EBF194640
:104AC00015EB410F9DE7B4D830BDD4F10104B4F12A
:104AD00020050FDAC4F12005520828BF42F0010278
:104AE00010FA05FE01FA05F57244E2BFE0402843E2
:104AF000E1400FE0352C9ADCC5F1200452EA400277
:104B000020FA05F218BF42F0010231FA05F0A14087
:104B10000A43002172F1004250F1000051EB0C01F8
:104B200030BD30B5016884684218416802EB51031A
:104B3000C90703D54C4401E0491C08D19A4218BF6B
:104B400012F9011B01D10C3030BD12F8015B0029B4
:104B500004F8015BF0D4491EF7D5EFE7F0B540F259
:104B6000FF7581EA030C0CF0004C15EA11541DBFCF
:104B700015EA1357AC42AF42E5E0BC41C1F3130163
:104B8000C3F31303801A994143F4801304D2641EC3
:104B90000018494180185941C90241EA5051B1FBFE
:104BA000F3F603FB1611A2FB0675D7EBC020A94153
:104BB00002D2761E80185941C90241EA5051B1FB18
:104BC000F3FE03FB1E11A2FB0E75D7EBC020A9411B
:104BD00003D2AEF1010E80185941890241EA905189
:104BE000760546EA8E2EB1FBF3F603FB1611A2FB07
:104BF0000675D7EB8020A94102D2761E8018594154
:104C0000C90241EA50514EEA060EB1FBF3F603FB2E
:104C10001611A2FB0675D7EBC020A94102D2761E61
:104C200080185941C90241EA5051B1FBF3F703FB27
:104C30001711A2FB0735D3EBC020A94167F100078C
:104C40000CBF004247F0010766F3D5274FEA1E313B
:104C5000B80814F5806412DDBD0775F1004250EB11
:104C60000E5051EB045111F5801F5CBF41EA0C015D
:104C7000F0BD4CF07F6141F0E0410020F0BDBD0788
:104C80006D0840EA0E5041F48011D4F10104B4F1F2
:104C900020060ADAC4F120060200E04001FA06F319
:104CA000E1401843B24015430EE0342C13DCC6F14A
:104CB000200445EA40056D0820FA06F2154321FA62
:104CC00006F0A1400D43002175F1004250F10000B3
:104CD00051EB0C01F0BD00205FEA0C01F0BDCFB933
:104CE00092185B41B3FA83F704BFB2FA82F6BF1998
:104CF0000B3FB7F120062FBF02FA06F3BB40C7F106
:104D0000200622FA06F638BF3343BA401CB1E41934
:104D1000641E33E77F4231F00041B1FA81F404BFF1
:104D2000B0FA80F6A4190B3CB4F120062FBF00FAAC
:104D300006F1A140C4F1200620FA06F638BF31433F
:104D4000A0403C1B1AE7AC421ABF05EA1357AF421A
:104D500012E050EA41061CBF52EA4306BFE750EAA0
:104D60004107304661461CBF41EA0551F0BD52EA99
:104D7000430C08BFC143F0BD00204FF4001616EBF2
:104D8000410F98BF16EB430F08BF16EB410F24BF2E
:104D9000C14305E016EB430F0CBF61464CEA0551D9
:104DA000F0BDFEE701F000428B1AA3F16051B1F5AE
:104DB000801F0ADBB1F17F6F1FD242EAC102C1003E
:104DC00071F1004142EB507070470B15C3F10903BC
:104DD000212B10D2890241EA9051800201284941D9
:104DE00041F0004121FA03F0C3F12003994071F131
:104DF000004150417047100070476FF0000013EB06
:104E0000103F5CBF000E42EAC0507047FF2212EA1A
:104E1000D05C1DBF12EAD153944593422BE09C44D1
:104E2000D30780EA010243EA002043EA01211A4045
:104E3000A1FB0030C04238BF00187CF17F010BDBC2
:104E4000FE294ADA5B0842EAC15153EA006373F172
:104E5000004C51EB10207047D1F1080CDCF120011F
:104E60002FDB5B0810FA01F10B4320FA0CF073F111
:104E700000415041704794451CBF02EAD153934210
:104E800080EA010202F000421DD0400019D0490022
:104E900017D05BB9634514D00902B1FA81F3994088
:104EA000BCEB030CC00140F00040C1E70002B0FAC7
:104EB00080FC10FA0CF0B3EB0C0CC90141F000417E
:104EC000B6E71000704740000AD0490008D010F142
:104ED000807F94BF11F1807F02E042F0FF40704775
:104EE000D04370474FF0FF0C1CEAD0531DBF1CEAA3
:104EF000D1526345624543E09B1A5FEACC7280EA77
:104F0000010C42EA01211CEA020C42EA0020421A8A
:104F100038BF01EB420253F17E034FEA1121B2FB8D
:104F2000F1F001FB102260F3D63C4FEA0222B2FB03
:104F3000F1F001FB102260F3CE1C4FEA0222B2FB1B
:104F4000F1F006DDFF2B29DA5CEA500040EBC3509C
:104F50007047C3F1020301FB1022192B40EA4C01F8
:104F60000CF0004C41F0807121DC21FA03F0C3F118
:104F700020039940114371F1004250EB0C0070473F
:104F800063451ABF0CEAD152624512E080EA010C77
:104F900000180CF0004C06D049181AD10CF0004C47
:104FA0004CF0FF407047C94208BF6FEA020C6046F0
:104FB0007047634506D1B2EB0C02F5D001F0004119
:104FC000484070474A0212BF0846484000F000407F
:104FD00070474AB90902B1FA81F2914043B19B1876
:104FE000C00140F0004092E7C90141F00041524247
:104FF0000002B0FA80F39840D31A88E710B5074949
:1050000079441831064C7C44163404E00A68081DC3
:10501000114488470146A142F8D110BD08000000A4
:1050200014000000FFFAFFFF7000000042000000C3
:105030000000002000F00DF8002801D0FFF7DEFF8F
:10504000AFF300800020AFF30080FEF73FFD00F0DB
:1050500002F80120704700F001B80000074638460A
:1050600000F002F8FBE7000080B5AFF30080024AD1
:1050700011001820ABBEFBE72600020005480146E0
:1050800003B4684680F30988AFF30080AFF3008073
:10509000FFF7D0FFA5EDF5FE8100A7000030FC0171
:1050A000FD000024F1000F010203040102030406C5
:0950B00007080902040608FB00D0
:040000050800507D22
:00000001FF
